:020000040800F2
:10000000500D00208901000865040008F70300086E
:1000100061040008D30200085F0900080000000026
:10002000000000000000000000000000E5050008DE
:10003000D702000800000000ED04000801070008D6
:10004000A3010008A3010008A3010008A301000800
:10005000A3010008A3010008A3010008A3010008F0
:10006000A3010008A3010008A3010008A3010008E0
:10007000A3010008A3010008A3010008A3010008D0
:10008000A3010008A3010008A3010008A3010008C0
:10009000A3010008A3010008A3010008A3010008B0
:1000A000A3010008A3010008A3010008A3010008A0
:1000B000A3010008A3010008A3010008A301000890
:1000C000A3010008A3010008A3010008A301000880
:1000D000A301000865070008A3010008A3010008A8
:1000E000A3010008A3010008A301000800F002F822
:1000F00000F03AF80AA090E8000C82448344AAF188
:100100000107DA4501D100F02FF8AFF2090EBAE885
:100110000F0013F0010F18BFFB1A43F0010318473B
:100120009C0E0000BC0E0000103A24BF78C878C1B5
:10013000FAD8520724BF30C830C144BF04680C60ED
:10014000704700000023002400250026103A28BF35
:1001500078C1FBD8520728BF30C148BF0B60704739
:100160001FB51FBD10B510BD00F07AF81146FFF79E
:10017000F7FF00F033FC00F098F803B4FFF7F2FF4C
:1001800003BC00F09FF80000094880470948004779
:10019000FEE7FEE7FEE7FEE7FEE7FEE7FEE7FEE737
:1001A000FEE7FEE704480549054A064B7047000094
:1001B00005070008ED00000850070020500D002042
:1001C00050090020500900204FF000020429C0F01F
:1001D000128010F0030C00F01E80CCF1040CBCF176
:1001E000020F18BF00F8012BA8BF20F8022BA1EBCB
:1001F0000C0100F010B85FEAC17C24BF00F8012BAD
:1002000000F8012B48BF00F8012B7047704770477A
:1002100070474FF0000200B51346944696462039C9
:1002200022BFA0E80C50A0E80C50B1F12001BFF4AF
:10023000F7AF090728BFA0E80C5048BF0CC05DF815
:1002400004EB890028BF40F8042B08BF704748BF63
:1002500020F8022B11F0804F18BF00F8012B7047D7
:10026000754600F02BF8AE4605006946534620F06F
:100270000700854618B020B5FFF794FFBDE8204081
:100280004FF000064FF000074FF000084FF0000B52
:1002900021F00701AC46ACE8C009ACE8C009ACE805
:1002A000C009ACE8C0098D46704710B50446AFF3ED
:1002B00000802046BDE81040FFF75FBF0048704750
:1002C000F006002001491820ABBEFEE72600020020
:1002D000704700BFFEE770472DE9F0410246002558
:1002E0000026002000230024002791F803C00CF012
:1002F0000F0591F803C00CF0100CBCF1000F03D0F7
:1003000091F802C04CEA050591F800C0BCF1000F5D
:1003100031D0146800202BE04FF0010C0CFA00F3F0
:10032000B1F800C00CEA03069E4220D183004FF0D2
:100330000F0C0CFA03F7BC4305FA03FC4CEA040467
:1003400091F803C0BCF1280F06D14FF0010C0CFA54
:1003500000FCC2F814C00AE091F803C0BCF1480FD9
:1003600005D14FF0010C0CFA00FCC2F810C0401C83
:100370000828D1D31460B1F800C0BCF1FF0F34DD00
:10038000546800202EE000F1080C4FF0010808FA34
:100390000CF3B1F800C00CEA03069E4221D18300A1
:1003A0004FF00F0C0CFA03F7BC4305FA03FC4CEAC0
:1003B000040491F803C0BCF1280F05D100F1080C2A
:1003C00008FA0CF8C2F8148091F803C0BCF1480F89
:1003D00007D100F1080C4FF0010808FA0CF8C2F838
:1003E0001080401C0828CED35460BDE8F0814161E4
:1003F00070470161704700BFFEE7000008B50121AA
:10040000402000F075F82020ADF8000010208DF895
:10041000030003208DF8020069460F48FFF75CFFD8
:1004200020210E48FFF7E5FF4020ADF800006946A7
:100430000948FFF751FF40210748FFF7DAFF102076
:10044000ADF8000069460448FFF746FF1021024856
:10045000FFF7CDFF08BD000000180140000C01406F
:1004600000BFFEE77047000070B5002100230F2297
:10047000C47804B3154C246804F4E064C4F5E06463
:10048000210AC1F10403CA40447804FA03F18478D4
:100490001440214309010E4C0678A155047804F05C
:1004A0001F050124AC4005786D11AD0005F1E02574
:1004B000C5F8004109E0047804F01F050124AC40B0
:1004C000044D0678761145F8264070BD0CED00E02D
:1004D00000E400E080E100E002490143024A1160CB
:1004E000704700000000FA050CED00E070470000C6
:1004F00029B1064A92690243044B9A6104E0034A17
:1005000092698243014B9A617047000000100240DB
:1005100030B500210022002400232D4D6D6805F028
:100520000C0121B1042905D0082923D105E0294D6A
:10053000056022E0274D05601FE0254D6D6805F43C
:100540007012234D6D6805F48034022505EB92424C
:100550001CB9214D554305600BE01D4D6D6805F438
:1005600000351DB11C4D5543056002E0194D554342
:10057000056002E0174D056000BF00BF144D6D68B7
:1005800005F0F0010909154D6B5C0568DD4045601B
:100590000F4D6D6805F4E061090A104D6B5C45680C
:1005A000DD4085600A4D6D6805F46051C90A0B4D48
:1005B0006B5C4568DD40C560054D6D6805F44041E4
:1005C000890B074D6B5CC568B5FBF3F5056130BD64
:1005D0000010024000127A0000093D0008000020CF
:1005E000180000207047000010B500F01DFA00F060
:1005F000C9F9002801DD00F009FC0648B0F818042C
:1006000000EB80110348001D00EB4100B0F8804072
:1006100010BD0000D001002010B500F001F810BDA1
:100620000CB50020019000903348006840F4803001
:100630003149086000BF3048006800F40030009085
:100640000198401C0190009818B90198B0F5A06F6E
:10065000F1D12948006800F4003010B10120009069
:1006600001E0002000900098012843D12348006851
:1006700040F01000214908600846006820F003009F
:1006800008600846006840F0020008601A484068A8
:10069000194948600846406848600846406840F488
:1006A000806048600846406820F47C104860084636
:1006B000406840F4E81048600846006840F08070E8
:1006C000086000BF0C48006800F000700028F9D0F6
:1006D0000948406820F00300074948600846406820
:1006E00040F00200486000BF0348406800F00C0082
:1006F0000828F9D10CBD0000001002400020024083
:100700007047000010B51348006840F0010011491F
:10071000086008464068104908400E49486008468D
:1007200000680E4908400B4908600846006820F43C
:10073000802008600846406820F4FE0048604FF4BE
:100740001F008860FFF768FF4FF0006004490860F1
:1007500010BD0000001002400000FFF8FFFFF6FE91
:1007600008ED00E010B540F22551144800F036F8CD
:1007700018B3124800F0EEF8C4B21148B0F8000106
:10078000FF280BDC0E48B0F80011B0F80001401C47
:100790000B4AA2F80001104644540EE0002008491C
:1007A000A1F800010846B0F80011B0F80001401CA3
:1007B000034AA2F800011046445410BD003801401D
:1007C000EC05002021B1828942F40052828104E0CC
:1007D00082894DF6FF731A408281704770B50246D8
:1007E000002400230025002040F66A16B14200D103
:1007F00000BFC1F3421501F01F03012606FA03F3FF
:10080000012D02D19689334006E0022D02D1168ACD
:10081000334001E0968A33400C12012606FA04F4B4
:100820001688344013B10CB1012000E0002070BDE7
:10083000F0B50346002400260025002040F66A1784
:10084000B94200D100BF1846C1F3421401F01F069F
:10085000012707FA06F5012C01D10C3004E0022C27
:1008600001D1103000E014301AB107682F4307603F
:1008700002E00768AF430760F0BD00002DE9F047D4
:1008800086B005460E460024A24600BFA1460027BA
:10089000B08900B100BF2F462C8A4CF6FF7004408F
:1008A000F08804432C82AC894EF6F3100440B088E3
:1008B00031890843718908430443AC81AC8A4FF6FF
:1008C000FF400440B0890443AC8201A8FFF720FE3A
:1008D0001F48874202D1DDF810A001E0DDF80CA02E
:1008E000A88900F4004040B10AEBCA0000EB0A10EE
:1008F00031684900B0FBF1F807E00AEBCA0000EBF1
:100900000A1031688900B0FBF1F86420B8FBF0F000
:1009100004012009642101FB1089A88900F400402A
:1009200040B1322000EBC900B0FBF1F000F007004D
:10093000044308E0322000EB09106421B0FBF1F021
:1009400000F00F0004432C8106B0BDE8F0870000E2
:100950000038014001468888C0F30800704700BF96
:10096000FEE7000010B500200449086000F03CF8E4
:1009700046210348FFF728FC10BD000000000020BE
:10098000D00000200948B0F81804084AB2F81A2428
:10099000811A002908DA0548B0F81A04C0F10800E5
:1009A000024AB2F818248118C8B27047D00100205A
:1009B0000948B0F80001084AB2F80221811A00295A
:1009C00008DA0548B0F80201C0F58070024AB2F8B2
:1009D0000021811888B27047EC05002000F082FAEF
:1009E00000BF00F06FFAFCE710B5002409E004EB4B
:1009F00084120C4901EB42008221FFF7E5FB601CE9
:100A000084B2082CF3DB00200649091FA1F8180462
:100A1000A1F81A04012081F81404002081F81504BB
:100A200010BD0000D401002010B5FFF7C1FF002861
:100A30007EDD6F48B0F80201FF2803DD00206C491D
:100A4000A1F802016A48B0F80211B0F80201401C96
:100A5000674AA2F802011046435C664890F8160403
:100A600028B9552B03D10120624981F81604614849
:100A700090F8160401285BD15E48B0F8180400EB2A
:100A800080115C48001D00EB4100B0F88000802818
:100A90002DDA5848B0F8180400EB80115548001DB5
:100AA00000EB4100B0F880105248B0F8180400EB99
:100AB00080125048001D00EB4200B0F88000401C3E
:100AC00082B24C48B0F8180400EB80144948001D6D
:100AD00000EB4400A0F880204648B0F8180400EB72
:100AE00080124448001D00EB420043540FE00021F7
:100AF0004048B0F8180400EB80123E48001D00EB9F
:100B00004200A0F8801000203A4981F816043948C4
:100B1000B0F8180400EB80113648001D00EB4100CE
:100B2000B0F88000032862DD3248B0F8180400E015
:100B30004CE000EB80112F48001D00EB4100407895
:100B4000001D2C49B1F8181401EB81122949091D27
:100B500001EB4201B1F88010884248DC2548B0F82A
:100B6000180400EB80112348001D00EB4101001F19
:100B7000B0F8180400EB80121E48001D00EB420084
:100B80004078C01C085CAA2821D11A48B0F8180483
:100B9000072807DA1748B0F81804401C1549A1F8CF
:100BA000180403E000201349A1F81804002011499B
:100BB00081F8160400210F48B0F8180400EB8012E9
:100BC0000C48001D00EB4200A0F880100FE000214F
:100BD0000848B0F8180400EB80120648001D00EB2E
:100BE0004200A0F880100020024981F8160410BDD0
:100BF000EC050020D001002010B50146794AB2F87A
:100C00001A2402EB8213774A121D02EB43029279F7
:100C10001306744AB2F81A2402EB8214714A121DA8
:100C200002EB4402D27903EB02436E4AB2F81A2473
:100C300002EB82146B4A121D02EB4402127A03EBA0
:100C40000223684AB2F81A2402EB8214654A121D84
:100C500002EB4402527A981882296BD011DCA1F180
:100C60006B02172A6FD2DFE802F0A1A5BAA9BA2F4A
:100C70003235383B3E4144474A4D505356595C5FEC
:100C800062008D2979D00ADCA1F183020A2AE9D217
:100C9000DFE802F053565A5D6063666A6D7093290F
:100CA00071D008DCA1F18E02052ADBD2DFE802F068
:100CB000686C6F727800C5296FD0CE296ED0CF29AD
:100CC0006DD0D0293FD186E0474B187588E0464B60
:100CD000587585E0444BD88282E0434B18837FE00F
:100CE000414B58837CE0404B988379E03F4B18752B
:100CF00076E03E4B587573E03C4BD88270E03B4B3E
:100D000018836DE0394B58836AE0384B988367E06D
:100D1000374B187564E0364B587561E0344BD88218
:100D20005EE0334B18835BE0314B588358E0304B27
:100D3000988355E02F4B187552E02E4B58754FE0B5
:100D40002C4BD8824CE04AE02A4B188348E0294BD0
:100D5000588345E0274B988342E0274B18753FE0C6
:100D6000254B58753CE008E0234BD88238E0224BF5
:100D7000188335E0204B588332E01F4B98832FE0D7
:100D80001E4B18752CE00EE01C4B587528E01B4BD1
:100D9000D88225E0194B188322E012E015E017E015
:100DA000164B58831CE0154B988319E0144B83F8BD
:100DB000280015E0124B83F8290011E0104B9885AC
:100DC0000EE00F4B83F82E000AE00E4A106407E095
:100DD0000C4A506404E00B4B83F8480000E000BF6D
:100DE00000BF10BDD00100201C0000203A000020F0
:100DF000580000207600002094000020B20000205F
:100E0000160100208401002070470000F0B52C4836
:100E1000B0F81A0400EB80112948001D00EB4100D6
:100E200047782748B0F81A0400EB80112448001DC9
:100E300000EB41008478E92C40D0E02C3ED12048E2
:100E4000B0F81A0400EB80111D48001D00EB4100B2
:100E500001791B48B0F81A0400EB80121848001DF5
:100E600000EB4200C07801EB002085B21448B0F8D6
:100E70001A0400EB80111248001D00EB4100467976
:100E8000212E13D006DC102E12D0132E11D0142ECA
:100E900011D10FE0222E04D0232E06D0252E0AD108
:100EA00005E02846FFF7A8FE07E006E005E004E0BD
:100EB00003E002E001E00020F0BD00BF0120FBE7FD
:100EC000D001002010B5FFF78FFB054800780448DB
:100ED000007803480078024800780148007810BD87
:100EE0000000002010B5FFF73DFD00F009F8FFF706
:100EF00085FAFFF789FF4FF4A060FFF7EDFA10BD08
:100F000000B587B0012144F20400FFF7F1FA4FF475
:100F10000070ADF8180003208DF81A0018208DF825
:100F20001B0006A92248FFF7D7F94FF48060ADF8FF
:100F3000180004208DF81B0006A91D48FFF7CCF906
:100F400025208DF8040003208DF805008DF806009B
:100F500001208DF8070001A8FFF786FA4FF4E13071
:100F600002900020ADF80C00ADF80E00ADF81000B6
:100F7000ADF814000C20ADF8120002A90D48FFF7DF
:100F80007DFC012240F225510A48FFF751FC012166
:100F90000848FFF717FC4FF482710748FFF714F970
:100FA00000200549A1F80001A1F8020107B000BD29
:100FB0000008014000380140EC050020DC0F00086B
:100FC000000000201C00000028010008F80F0008A5
:100FD0001C000020340D0000440100080000000047
:100FE00000000000000000000102030401020304ED
:080FF0000607080902040608C7
:04000005080000ED02
:00000001FF
