:020000040800F2
:10000000980B00208901000865040008F703000828
:1000100061040008D3020008E7090008000000009E
:10002000000000000000000000000000E5050008DE
:10003000D702000800000000ED040008D106000807
:10004000A3010008A3010008A3010008A301000800
:10005000A3010008A3010008A3010008A3010008F0
:10006000A3010008A3010008A3010008A3010008E0
:10007000A3010008A3010008A3010008A3010008D0
:10008000A3010008A3010008A3010008A3010008C0
:10009000A3010008A3010008A3010008A3010008B0
:1000A000A3010008A3010008A3010008A3010008A0
:1000B000A3010008A3010008A3010008A301000890
:1000C000A3010008A3010008A3010008A301000880
:1000D000A301000835070008A3010008A3010008D8
:1000E000A3010008A3010008A301000800F002F822
:1000F00000F03AF80AA090E8000C82448344AAF188
:100100000107DA4501D100F02FF8AFF2090EBAE885
:100110000F0013F0010F18BFFB1A43F0010318473B
:10012000180A0000380A0000103A24BF78C878C1C5
:10013000FAD8520724BF30C830C144BF04680C60ED
:10014000704700000023002400250026103A28BF35
:1001500078C1FBD8520728BF30C148BF0B60704739
:100160001FB51FBD10B510BD00F07AF81146FFF79E
:10017000F7FF00F045FC00F098F803B4FFF7F2FF3A
:1001800003BC00F09FF80000094880470948004779
:10019000FEE7FEE7FEE7FEE7FEE7FEE7FEE7FEE737
:1001A000FEE7FEE704480549054A064B7047000094
:1001B000D5060008ED00000898050020980B0020E7
:1001C00098070020980700204FF000020429C0F093
:1001D000128010F0030C00F01E80CCF1040CBCF176
:1001E000020F18BF00F8012BA8BF20F8022BA1EBCB
:1001F0000C0100F010B85FEAC17C24BF00F8012BAD
:1002000000F8012B48BF00F8012B7047704770477A
:1002100070474FF0000200B51346944696462039C9
:1002200022BFA0E80C50A0E80C50B1F12001BFF4AF
:10023000F7AF090728BFA0E80C5048BF0CC05DF815
:1002400004EB890028BF40F8042B08BF704748BF63
:1002500020F8022B11F0804F18BF00F8012B7047D7
:10026000754600F02BF8AE4605006946534620F06F
:100270000700854618B020B5FFF794FFBDE8204081
:100280004FF000064FF000074FF000084FF0000B52
:1002900021F00701AC46ACE8C009ACE8C009ACE805
:1002A000C009ACE8C0098D46704710B50446AFF3ED
:1002B00000802046BDE81040FFF75FBF0048704750
:1002C0003405002001491820ABBEFEE726000200DD
:1002D000704700BFFEE770472DE9F0410246002558
:1002E0000026002000230024002791F803C00CF012
:1002F0000F0591F803C00CF0100CBCF1000F03D0F7
:1003000091F802C04CEA050591F800C0BCF1000F5D
:1003100031D0146800202BE04FF0010C0CFA00F3F0
:10032000B1F800C00CEA03069E4220D183004FF0D2
:100330000F0C0CFA03F7BC4305FA03FC4CEA040467
:1003400091F803C0BCF1280F06D14FF0010C0CFA54
:1003500000FCC2F814C00AE091F803C0BCF1480FD9
:1003600005D14FF0010C0CFA00FCC2F810C0401C83
:100370000828D1D31460B1F800C0BCF1FF0F34DD00
:10038000546800202EE000F1080C4FF0010808FA34
:100390000CF3B1F800C00CEA03069E4221D18300A1
:1003A0004FF00F0C0CFA03F7BC4305FA03FC4CEAC0
:1003B000040491F803C0BCF1280F05D100F1080C2A
:1003C00008FA0CF8C2F8148091F803C0BCF1480F89
:1003D00007D100F1080C4FF0010808FA0CF8C2F838
:1003E0001080401C0828CED35460BDE8F0814161E4
:1003F00070470161704700BFFEE7000008B50121AA
:10040000402000F075F82020ADF8000010208DF895
:10041000030003208DF8020069460F48FFF75CFFD8
:1004200020210E48FFF7E5FF4020ADF800006946A7
:100430000948FFF751FF40210748FFF7DAFF102076
:10044000ADF8000069460448FFF746FF1021024856
:10045000FFF7CDFF08BD000000180140000C01406F
:1004600000BFFEE77047000070B5002100230F2297
:10047000C47804B3154C246804F4E064C4F5E06463
:10048000210AC1F10403CA40447804FA03F18478D4
:100490001440214309010E4C0678A155047804F05C
:1004A0001F050124AC4005786D11AD0005F1E02574
:1004B000C5F8004109E0047804F01F050124AC40B0
:1004C000044D0678761145F8264070BD0CED00E02D
:1004D00000E400E080E100E002490143024A1160CB
:1004E000704700000000FA050CED00E070470000C6
:1004F00029B1064A92690243044B9A6104E0034A17
:1005000092698243014B9A617047000000100240DB
:1005100030B500210022002400232D4D6D6805F028
:100520000C0121B1042905D0082923D105E0294D6A
:10053000056022E0274D05601FE0254D6D6805F43C
:100540007012234D6D6805F48034022505EB92424C
:100550001CB9214D554305600BE01D4D6D6805F438
:1005600000351DB11C4D5543056002E0194D554342
:10057000056002E0174D056000BF00BF144D6D68B7
:1005800005F0F0010909154D6B5C0568DD4045601B
:100590000F4D6D6805F4E061090A104D6B5C45680C
:1005A000DD4085600A4D6D6805F46051C90A0B4D48
:1005B0006B5C4568DD40C560054D6D6805F44041E4
:1005C000890B074D6B5CC568B5FBF3F5056130BD64
:1005D0000010024000127A0000093D0004000020D3
:1005E000140000207047704710B500F001F810BDEE
:1005F0000CB50020019000903348006840F4803032
:100600003149086000BF3048006800F400300090B5
:100610000198401C0190009818B90198B0F5A06F9E
:10062000F1D12948006800F4003010B10120009099
:1006300001E0002000900098012843D12348006881
:1006400040F01000214908600846006820F00300CF
:1006500008600846006840F0020008601A484068D8
:10066000194948600846406848600846406840F4B8
:10067000806048600846406820F47C104860084666
:10068000406840F4E81048600846006840F0807018
:10069000086000BF0C48006800F000700028F9D026
:1006A0000948406820F00300074948600846406850
:1006B00040F00200486000BF0348406800F00C00B2
:1006C0000828F9D10CBD00000010024000200240B3
:1006D0007047000010B51348006840F00100114950
:1006E000086008464068104908400E4948600846BE
:1006F00000680E4908400B4908600846006820F46D
:10070000802008600846406820F4FE0048604FF4EE
:100710001F008860FFF768FF4FF000600449086021
:1007200010BD0000001002400000FFF8FFFFF6FEC1
:1007300008ED00E010B540F22551414800F092F874
:1007400000287BD03E4800F049F9C4B23D48B0F8DB
:100750000001FF280BDC3B48B0F80011B0F80001A5
:10076000401C384AA2F80001104644540EE0002014
:100770003449A1F800010846B0F80011B0F80001B2
:10078000401C304AA2F80001104644542E48B0F8EC
:10079000120400EB80102C4901EB4000B0F88010EF
:1007A0002948B0F8120400EB8010274A02EB400001
:1007B000B0F88000401CB2F8122402EB8212224BE7
:1007C00003EB4202A2F880001846B0F8120400EBD6
:1007D00080101A4602EB400044541046B0F8120450
:1007E00000EB8010114601EB4000B0F880007F283C
:1007F00008DD0020B1F8121401EB811102EB410178
:10080000A1F88000AA2C19D10F48B0F81204401C9E
:100810000D49A1F812040846B0F81204082802DDB8
:100820000020A1F8120400200749B1F8121401EBCE
:100830008111054A02EB4101A1F8800010BD0000C2
:10084000003801402E0400201800002021B18289C8
:1008500042F40052828104E082894DF6FF731A400F
:100860008281704770B502460024002300250020D5
:1008700040F66A16B14200D100BFC1F3421501F043
:100880001F03012606FA03F3012D02D19689334096
:1008900006E0022D02D1168A334001E0968A3340E9
:1008A0000C12012606FA04F41688344013B10CB178
:1008B000012000E0002070BDF0B5034600240026B2
:1008C0000025002040F66A17B94200D100BF184643
:1008D000C1F3421401F01F06012707FA06F5012CA7
:1008E00001D10C3004E0022C01D1103000E01430B2
:1008F0001AB107682F43076002E00768AF4307603B
:10090000F0BD00002DE9F04786B005460E460024F4
:10091000A24600BFA1460027B08900B100BF2F4604
:100920002C8A4CF6FF700440F08804432C82AC897A
:100930004EF6F3100440B0883189084371890843AA
:100940000443AC81AC8A4FF6FF400440B0890443B5
:10095000AC8201A8FFF7DCFD1F48874202D1DDF819
:1009600010A001E0DDF80CA0A88900F4004040B11F
:100970000AEBCA0000EB0A1031684900B0FBF1F83D
:1009800007E00AEBCA0000EB0A1031688900B0FBEF
:10099000F1F86420B8FBF0F004012009642101FBA8
:1009A0001089A88900F4004040B1322000EBC90052
:1009B000B0FBF1F000F00700044308E0322000EB48
:1009C00009106421B0FBF1F000F00F0004432C810A
:1009D00006B0BDE8F0870000003801400146888875
:1009E000C0F30800704700BFFEE7000010B500200C
:1009F0000249086000F00AF810BD00000000002065
:100A000000F034F800BF00F021F8FCE710B5002436
:100A100009E004EB84110B4A02EB41008221FFF74D
:100A2000D3FB601C84B2082CF3DB00200549A1F83D
:100A30001204A1F81404012081F81004002081F8A8
:100A4000110410BD180000207047000010B5FFF71A
:100A5000CAFD054800780448007803480078024839
:100A600000780148007810BD0000002010B5FFF7A5
:100A7000BDFF00F009F8FFF7C1FCFFF7E5FF4FF4F9
:100A8000A060FFF729FD10BD00B587B0012144F239
:100A90000400FFF72DFD4FF40070ADF8180003209F
:100AA0008DF81A0018208DF81B0006A91F48FFF7C3
:100AB00013FC4FF48060ADF8180004208DF81B0083
:100AC00006A91A48FFF708FC25208DF8040003202A
:100AD0008DF805008DF8060001208DF8070001A8AB
:100AE000FFF7C2FC4FF4E13002900020ADF80C009B
:100AF000ADF80E00ADF81000ADF814000C20ADF804
:100B0000120002A90A48FFF7FDFE012240F225511A
:100B10000748FFF7D1FE01210548FFF797FE4FF484
:100B200082710448FFF750FB07B000BD0008014088
:100B3000003801402E040020580B0008000000205F
:100B40001800000028010008700B000818000020A1
:100B5000800B0000440100080000000000000000BD
:100B6000010203040102030406070809020406083F
:04000005080000ED02
:00000001FF
