:020000040800F2
:10000000981000208901000865040008F703000823
:1000100061040008D30200085F0900080000000026
:10002000000000000000000000000000E5050008DE
:10003000D702000800000000ED04000801070008D6
:10004000A3010008A3010008A3010008A301000800
:10005000A3010008A3010008A3010008A3010008F0
:10006000A3010008A3010008A3010008A3010008E0
:10007000A3010008A3010008A3010008A3010008D0
:10008000A3010008A3010008A3010008A3010008C0
:10009000A3010008A3010008A3010008A3010008B0
:1000A000A3010008A3010008A3010008A3010008A0
:1000B000A3010008A3010008A3010008A301000890
:1000C000A3010008A3010008A3010008A301000880
:1000D000A301000865070008A3010008A3010008A8
:1000E000A3010008A3010008A301000800F002F822
:1000F00000F03AF80AA090E8000C82448344AAF188
:100100000107DA4501D100F02FF8AFF2090EBAE885
:100110000F0013F0010F18BFFB1A43F0010318473B
:10012000280F0000480F0000103A24BF78C878C19B
:10013000FAD8520724BF30C830C144BF04680C60ED
:10014000704700000023002400250026103A28BF35
:1001500078C1FBD8520728BF30C148BF0B60704739
:100160001FB51FBD10B510BD00F07AF81146FFF79E
:10017000F7FF00F053FC00F098F803B4FFF7F2FF2C
:1001800003BC00F09FF80000094880470948004779
:10019000FEE7FEE7FEE7FEE7FEE7FEE7FEE7FEE737
:1001A000FEE7FEE704480549054A064B7047000094
:1001B00005070008ED000008980A002098100020AC
:1001C000980C0020980C00204FF000020429C0F089
:1001D000128010F0030C00F01B80CCF1040CBCF179
:1001E000020F18BF00F8012BA8BF20F8022BA1EBCB
:1001F0000C0100F00DB85FEAC17C24BF00F8012BB0
:1002000000F8012B48BF00F8012B70474FF00002A7
:1002100000B5134694469646203922BFA0E80C50FC
:10022000A0E80C50B1F12001BFF4F7AF090728BFD7
:10023000A0E80C5048BF0CC05DF804EB890028BF53
:1002400040F8042B08BF704748BF20F8022B11F07C
:10025000804F18BF00F8012B7047704770477047F8
:10026000754600F02BF8AE4605006946534620F06F
:100270000700854618B020B5FFF794FFBDE8204081
:100280004FF000064FF000074FF000084FF0000B52
:1002900021F00701AC46ACE8C009ACE8C009ACE805
:1002A000C009ACE8C0098D46704710B50446AFF3ED
:1002B00000802046BDE81040FFF75FBF0048704750
:1002C000380A002001491820ABBEFEE726000200D4
:1002D000704700BFFEE770472DE9F0410246002558
:1002E0000026002000230024002791F803C00CF012
:1002F0000F0591F803C00CF0100CBCF1000F03D0F7
:1003000091F802C04CEA050591F800C0BCF1000F5D
:1003100031D0146800202BE04FF0010C0CFA00F3F0
:10032000B1F800C00CEA03069E4220D183004FF0D2
:100330000F0C0CFA03F7BC4305FA03FC4CEA040467
:1003400091F803C0BCF1280F06D14FF0010C0CFA54
:1003500000FCC2F814C00AE091F803C0BCF1480FD9
:1003600005D14FF0010C0CFA00FCC2F810C0401C83
:100370000828D1D31460B1F800C0BCF1FF0F34DD00
:10038000546800202EE000F1080C4FF0010808FA34
:100390000CF3B1F800C00CEA03069E4221D18300A1
:1003A0004FF00F0C0CFA03F7BC4305FA03FC4CEAC0
:1003B000040491F803C0BCF1280F05D100F1080C2A
:1003C00008FA0CF8C2F8148091F803C0BCF1480F89
:1003D00007D100F1080C4FF0010808FA0CF8C2F838
:1003E0001080401C0828CED35460BDE8F0814161E4
:1003F00070470161704700BFFEE7000008B50121AA
:10040000402000F075F82020ADF8000010208DF895
:10041000030003208DF8020069460F48FFF75CFFD8
:1004200020210E48FFF7E5FF4020ADF800006946A7
:100430000948FFF751FF40210748FFF7DAFF102076
:10044000ADF8000069460448FFF746FF1021024856
:10045000FFF7CDFF08BD000000180140000C01406F
:1004600000BFFEE77047000070B5002100230F2297
:10047000C47804B3154C246804F4E064C4F5E06463
:10048000210AC1F10403CA40447804FA03F18478D4
:100490001440214309010E4C0678A155047804F05C
:1004A0001F050124AC4005786D11AD0005F1E02574
:1004B000C5F8004109E0047804F01F050124AC40B0
:1004C000044D0678761145F8264070BD0CED00E02D
:1004D00000E400E080E100E002490143024A1160CB
:1004E000704700000000FA050CED00E070470000C6
:1004F00029B1064A92690243044B9A6104E0034A17
:1005000092698243014B9A617047000000100240DB
:1005100030B500210022002400232D4D6D6805F028
:100520000C0121B1042905D0082923D105E0294D6A
:10053000056022E0274D05601FE0254D6D6805F43C
:100540007012234D6D6805F48034022505EB92424C
:100550001CB9214D554305600BE01D4D6D6805F438
:1005600000351DB11C4D5543056002E0194D554342
:10057000056002E0174D056000BF00BF144D6D68B7
:1005800005F0F0010909154D6B5C0568DD4045601B
:100590000F4D6D6805F4E061090A104D6B5C45680C
:1005A000DD4085600A4D6D6805F46051C90A0B4D48
:1005B0006B5C4568DD40C560054D6D6805F44041E4
:1005C000890B074D6B5CC568B5FBF3F5056130BD64
:1005D0000010024000127A0000093D000B000020CC
:1005E0001B0000207047000010B500F03DFA00F03D
:1005F000E9F9002801DD00F04BFC0648B0F81804CA
:1006000000EB80110348001D00EB4100B0F8804072
:1006100010BD00001805002010B500F001F810BD55
:100620000CB50020019000903348006840F4803001
:100630003149086000BF3048006800F40030009085
:100640000198401C0190009818B90198B0F5A06F6E
:10065000F1D12948006800F4003010B10120009069
:1006600001E0002000900098012843D12348006851
:1006700040F01000214908600846006820F003009F
:1006800008600846006840F0020008601A484068A8
:10069000194948600846406848600846406840F488
:1006A000806048600846406820F47C104860084636
:1006B000406840F4E81048600846006840F08070E8
:1006C000086000BF0C48006800F000700028F9D0F6
:1006D0000948406820F00300074948600846406820
:1006E00040F00200486000BF0348406800F00C0082
:1006F0000828F9D10CBD0000001002400020024083
:100700007047000010B51348006840F0010011491F
:10071000086008464068104908400E49486008468D
:1007200000680E4908400B4908600846006820F43C
:10073000802008600846406820F4FE0048604FF4BE
:100740001F008860FFF768FF4FF0006004490860F1
:1007500010BD0000001002400000FFF8FFFFF6FE91
:1007600008ED00E010B540F22551144800F036F8CD
:1007700018B3124800F0EEF8C4B21148B0F8000106
:10078000FF280BDC0E48B0F80011B0F80001401C47
:100790000B4AA2F80001104644540EE0002008491C
:1007A000A1F800010846B0F80011B0F80001401CA3
:1007B000034AA2F800011046445410BD003801401D
:1007C0003409002021B1828942F40052828104E080
:1007D00082894DF6FF731A408281704770B50246D8
:1007E000002400230025002040F66A16B14200D103
:1007F00000BFC1F3421501F01F03012606FA03F3FF
:10080000012D02D19689334006E0022D02D1168ACD
:10081000334001E0968A33400C12012606FA04F4B4
:100820001688344013B10CB1012000E0002070BDE7
:10083000F0B50346002400260025002040F66A1784
:10084000B94200D100BF1846C1F3421401F01F069F
:10085000012707FA06F5012C01D10C3004E0022C27
:1008600001D1103000E014301AB107682F4307603F
:1008700002E00768AF430760F0BD00002DE9F047D4
:1008800086B005460E460024A24600BFA1460027BA
:10089000B08900B100BF2F462C8A4CF6FF7004408F
:1008A000F08804432C82AC894EF6F3100440B088E3
:1008B00031890843718908430443AC81AC8A4FF6FF
:1008C000FF400440B0890443AC8201A8FFF720FE3A
:1008D0001F48874202D1DDF810A001E0DDF80CA02E
:1008E000A88900F4004040B10AEBCA0000EB0A10EE
:1008F00031684900B0FBF1F807E00AEBCA0000EBF1
:100900000A1031688900B0FBF1F86420B8FBF0F000
:1009100004012009642101FB1089A88900F400402A
:1009200040B1322000EBC900B0FBF1F000F007004D
:10093000044308E0322000EB09106421B0FBF1F021
:1009400000F00F0004432C8106B0BDE8F0870000E2
:100950000038014001468888C0F30800704700BF96
:10096000FEE7000010B500200F49086000F05CF8B9
:100970004FF44E710D48FFF727FC52210C48FFF74A
:1009800023FCE4210B48FFF71FFC3C210A48FFF73A
:100990001BFC4C210948FFF739FC09480021016084
:1009A0008180817110BD0000000000202000002027
:1009B00058030020AA0300208E040020CC0400204D
:1009C000040000200948B0F81804084AB2F81A24B4
:1009D000811A002908DA0548B0F81A04C0F10800A5
:1009E000024AB2F818248118C8B2704718050020CE
:1009F0000948B0F80001084AB2F80221811A00291A
:100A000008DA0548B0F80201C0F58070024AB2F871
:100A10000021811888B270473409002000F0A8FA3C
:100A200000BF00F095FAFCE710B5002409E004EBE4
:100A300084120C4901EB42008221FFF7C5FB601CC8
:100A400084B2082CF3DB00200649091FA1F8180422
:100A5000A1F81A04012081F81404002081F815047B
:100A600010BD00001C05002010B5FFF7C1FF0028D5
:100A70007EDD6F48B0F80201FF2803DD00206C49DD
:100A8000A1F802016A48B0F80211B0F80201401C56
:100A9000674AA2F802011046435C664890F81604C3
:100AA00028B9552B03D10120624981F81604614809
:100AB00090F8160401285BD15E48B0F8180400EBEA
:100AC00080115C48001D00EB4100B0F880008028D8
:100AD0002DDA5848B0F8180400EB80115548001D75
:100AE00000EB4100B0F880105248B0F8180400EB59
:100AF00080125048001D00EB4200B0F88000401CFE
:100B000082B24C48B0F8180400EB80144948001D2C
:100B100000EB4400A0F880204648B0F8180400EB31
:100B200080124448001D00EB420043540FE00021B6
:100B30004048B0F8180400EB80123E48001D00EB5E
:100B40004200A0F8801000203A4981F81604394884
:100B5000B0F8180400EB80113648001D00EB41008E
:100B6000B0F88000032862DD3248B0F8180400E0D5
:100B70004CE000EB80112F48001D00EB4100407855
:100B8000001D2C49B1F8181401EB81122949091DE7
:100B900001EB4201B1F88010884248DC2548B0F8EA
:100BA000180400EB80112348001D00EB4101001FD9
:100BB000B0F8180400EB80121E48001D00EB420044
:100BC0004078C01C085CAA2821D11A48B0F8180443
:100BD000072807DA1748B0F81804401C1549A1F88F
:100BE000180403E000201349A1F81804002011495B
:100BF00081F8160400210F48B0F8180400EB8012A9
:100C00000C48001D00EB4200A0F880100FE000210E
:100C10000848B0F8180400EB80120648001D00EBED
:100C20004200A0F880100020024981F8160410BD8F
:100C3000340900201805002010B50146874AB2F893
:100C40001A2402EB8213854A121D02EB43029279A9
:100C50001306824AB2F81A2402EB82147F4A121D4C
:100C600002EB4402D27903EB02437C4AB2F81A2425
:100C700002EB8214794A121D02EB4402127A03EB52
:100C80000223764AB2F81A2402EB8214734A121D28
:100C900002EB4402527A9818822975D011DCA1F136
:100CA0006B02172A6BD2DFE802F0BCC0D6C4D62F85
:100CB0003235383B3E4145494C4F5255595D61658F
:100CC0006B008D2970D00ADCA1F183020A2AE9D2D7
:100CD000DFE802F05E62666B6F73787C8087932931
:100CE0006FD008DCA1F18E02052ADBD2DFE802F02A
:100CF0008185898D9100C52970D0CE296FD0CF29EB
:100D00006ED0D0293BD1A2E0554B1875A4E0544BCE
:100D10005875A1E0524BD8829EE0514B18839BE05E
:100D20004F4B588398E04E4B988395E04C4A82F89D
:100D3000320091E04A4A82F833008DE0484A9086BA
:100D40008AE0474AD08687E0454A108784E0444AD3
:100D5000508781E0424A82F850007DE0404A82F8A4
:100D6000510079E03E4AA2F8520075E03C4AA2F8F0
:100D7000540071E03A4AA2F856006DE004E06AE0DF
:100D8000374AA2F8580067E0354A82F86E0063E0FF
:100D9000334A82F86F005FE0314AA2F870005BE0EE
:100DA0002F4AA2F8720057E01FE02D4AA2F8740003
:100DB00052E02B4AA2F876004EE0294A82F88C00D5
:100DC0004AE02AE0264A82F88D0045E0244AA2F84B
:100DD0008E0041E0224AA2F890003DE02DE030E094
:100DE00032E01F4AA2F8920036E01D4AA2F89400B1
:100DF00032E01B4A82F8AA002EE0194A82F8AB00C2
:100E00002AE0174AA2F8AC0026E0154AA2F8AE0084
:100E100022E0134AA2F8B0001EE0114AA2F8B20084
:100E20001AE00F4B83F8DC0016E00D4B83F8DD0071
:100E300012E00B4BA3F8E0000EE0094B83F8E20050
:100E40000AE0084A106407E0064A506404E0054BD3
:100E500083F8480000E000BF00BF10BD1805002067
:100E6000AA030020CC040020074AB2F81A2402EB9F
:100E70008213054A121D02EB43029179BF2800D16B
:100E800000BF00BF70470000180500207047000039
:100E9000F0B52E48B0F81A0400EB80112B48001D65
:100EA00000EB410047782948B0F81A0400EB8011A4
:100EB0002648001D00EB41008478E92C43D0E02C4B
:100EC00041D12248B0F81A0400EB80111F48001DE0
:100ED00000EB410001791D48B0F81A0400EB8012C4
:100EE0001A48001D00EB4200C07801EB002085B2DB
:100EF0001648B0F81A0400EB80111448001D00EBEE
:100F000041004679212E16D006DC102E15D0132E66
:100F100014D0142E14D112E0222E04D0232E06D089
:100F2000252E0DD108E02846FFF786FE0AE0284668
:100F3000FFF79AFF06E005E004E003E002E001E0CD
:100F40000020F0BD00BF0120FBE7000018050020D5
:100F500010B5FFF749FB05480078044800780348BE
:100F60000078024800780148007810BD0000002099
:100F700010B5FFF7F7FC00F009F8FFF73FFAFFF7AD
:100F800085FF4FF4A060FFF7A7FA10BD00B587B04A
:100F9000012144F20400FFF7ABFA4FF40070ADF802
:100FA000180003208DF81A0018208DF81B0006A9E0
:100FB0002248FFF791F94FF48060ADF81800042043
:100FC0008DF81B0006A91D48FFF786F925208DF82E
:100FD000040003208DF805008DF8060001208DF82F
:100FE000070001A8FFF740FA4FF4E130029000201B
:100FF000ADF80C00ADF80E00ADF81000ADF814001F
:101000000C20ADF8120002A90D48FFF737FC0122B1
:1010100040F225510A48FFF70BFC01210848FFF771
:10102000D1FB4FF482710748FFF7CEF80020054945
:10103000A1F80001A1F8020107B000BD00080140BD
:10104000003801403409002068100008000000202A
:10105000200000002801000888100008200000205F
:1010600078100000440100080000000000000000AB
:101070000000000000000001020304010203040656
:0810800007080902040608003C
:04000005080000ED02
:00000001FF
