:020000040800F2
:10000000181600208901000855070008E9060008B5
:1000100051070008C3030008670C00080000000037
:10002000000000000000000000000000F5080008CB
:10003000C905000800000000DD070008E10900080C
:10004000A3010008A3010008A3010008A301000800
:10005000A3010008A3010008A3010008A3010008F0
:10006000A3010008A3010008A3010008A3010008E0
:10007000A3010008A3010008C9030008A3010008A8
:10008000A3010008A3010008A3010008A3010008C0
:10009000A3010008A3010008A3010008A3010008B0
:1000A000A3010008A3010008A3010008A3010008A0
:1000B000A3010008A3010008A3010008A301000890
:1000C000A3010008A3010008A3010008A301000880
:1000D000A3010008450A0008A3010008A3010008C5
:1000E000A3010008A3010008A301000800F002F822
:1000F00000F03AF80AA090E8000C82448344AAF188
:100100000107DA4501D100F02FF8AFF2090EBAE885
:100110000F0013F0010F18BFFB1A43F0010318473B
:10012000181C0000381C0000103A24BF78C878C1A1
:10013000FAD8520724BF30C830C144BF04680C60ED
:10014000704700000023002400250026103A28BF35
:1001500078C1FBD8520728BF30C148BF0B60704739
:100160001FB51FBD10B510BD00F0F1F81146FFF727
:10017000F7FF00F039FE00F00FF903B4FFF7F2FFCC
:1001800003BC00F017F90000094880470948004700
:10019000FEE7FEE7FEE7FEE7FEE7FEE7FEE7FEE737
:1001A000FEE7FEE704480549054A064B7047000094
:1001B000E5090008ED0000081810002018160020BE
:1001C0001812002018120020032A40F2308010F08C
:1001D000030C00F0158011F8013BBCF1020F6244E2
:1001E00098BF11F801CB00F8013B38BF11F8013B73
:1001F000A2F1040298BF00F801CB38BF00F8013B20
:1002000011F0030300F07180083AC0F0088051F843
:10021000043B083A51F804CBA0E80810F5E7121D9A
:100220005CBF51F8043B40F8043BAFF30080D207B9
:1002300024BF11F8013B11F801CB48BF11F8012B85
:1002400024BF00F8013B00F801CB48BF00F8012BA8
:1002500070474FF000020429C0F0128010F0030C28
:1002600000F01B80CCF1040CBCF1020F18BF00F8A9
:10027000012BA8BF20F8022BA1EB0C0100F00DB858
:100280005FEAC17C24BF00F8012B00F8012B48BFB6
:1002900000F8012B70474FF0000200B5134694465A
:1002A0009646203922BFA0E80C50A0E80C50B1F1CE
:1002B0002001BFF4F7AF090728BFA0E80C5048BFE2
:1002C0000CC05DF804EB890028BF40F8042B08BF80
:1002D000704748BF20F8022B11F0804F18BF00F87C
:1002E000012B704770477047704710B5203AC0F037
:1002F0000B80B1E81850203AA0E81850B1E8185027
:10030000A0E81850BFF4F5AF5FEA027C24BFB1E863
:100310001850A0E8185044BF18C918C0BDE81040D4
:100320005FEA827C24BF51F8043B40F8043B08BFDD
:100330007047D20728BF31F8023B48BF11F8012BA4
:1003400028BF20F8023B48BF00F8012B70477546D4
:1003500000F02CF8AE4605006946534620F0070031
:10036000854618B020B5FFF71DFFBDE820404FF0CF
:1003700000064FF000074FF000084FF0000B21F08F
:100380000701AC46ACE8C009ACE8C009ACE8C0095C
:10039000ACE8C0098D46704710B50446AFF3008045
:1003A0002046BDE81040FFF7E8BE00000048704757
:1003B000B40F002001491820ABBEFEE72600020062
:1003C000704700BFFEE7000010B54FF4005000F08A
:1003D00007F80021014800F011F810BD4400024068
:1003E00000F0805111B10349086001E00249486002
:1003F00070470000040402400000024021B102687E
:1004000042F00102026004E002684FF6FE731A40F7
:100410000260704701684FF6FE72114001600021D2
:10042000016041608160C1604B49884208D14A49FE
:100430000839496841F00F01474A083A51608AE09B
:1004400045491431884208D143490839496841F087
:10045000F001414A083A51607DE03F492831884225
:1004600008D13D490839496841F470613A4A083A6F
:10047000516070E038493C31884208D1364908392A
:10048000496841F47041344A083A516063E03249A6
:100490005031884208D130490839496841F4702107
:1004A0002D4A083A516056E02B496431884208D100
:1004B00029490839496841F47001274A083A5160CE
:1004C00049E025497831884208D1234908394968EB
:1004D00041F07061204A083A51603CE01F4988426F
:1004E00006D1011F096841F00F01021F116032E0BF
:1004F0001A491431884208D11849091F096841F086
:10050000F001164A121F116025E014492831884273
:1005100008D11249091F096841F470610F4A121F7E
:10052000116018E00D493C31884208D10B49091F80
:10053000096841F47041094A121F11600BE0074934
:100540005031884207D10549091F096841F47021DB
:10055000024A121F1160704708000240080402405E
:1005600001460020002201F0805313B1054B1A68A8
:1005700001E0054B1A6802EA01030BB1012000E01B
:1005800000207047000402400000024010B5002225
:10059000026847F6F0739A430C6A8B6823430C6930
:1005A00023434C6923438C692343CC6923434C6A1E
:1005B00023438C6A23431A430260CB6843600B6871
:1005C00083604B68C36010BD70472DE9F04102465F
:1005D00000250026002000230024002791F803C0F6
:1005E0000CF00F0591F803C00CF0100CBCF1000FDB
:1005F00003D091F802C04CEA050591F800C0BCF1A7
:10060000000F31D0146800202BE04FF0010C0CFAE1
:1006100000F3B1F800C00CEA03069E4220D183002B
:100620004FF00F0C0CFA03F7BC4305FA03FC4CEA3D
:10063000040491F803C0BCF1280F06D14FF0010C5F
:100640000CFA00FCC2F814C00AE091F803C0BCF137
:10065000480F05D14FF0010C0CFA00FCC2F810C095
:10066000401C0828D1D31460B1F800C0BCF1FF0FC2
:1006700034DD546800202EE000F1080C4FF0010832
:1006800008FA0CF3B1F800C00CEA03069E4221D12F
:1006900083004FF00F0C0CFA03F7BC4305FA03FC80
:1006A0004CEA040491F803C0BCF1280F05D100F115
:1006B000080C08FA0CF8C2F8148091F803C0BCF1D9
:1006C000480F07D100F1080C4FF0010808FA0CF8A8
:1006D000C2F81080401C0828CED35460BDE8F081D9
:1006E000416170470161704700BFFEE708B5012115
:1006F000402000F085F82020ADF8000010208DF893
:10070000030003208DF8020069460F48FFF75DFFE4
:1007100020210E48FFF7E6FF4020ADF800006946B3
:100720000948FFF752FF40210748FFF7DBFF102081
:10073000ADF8000069460448FFF747FF1021024862
:10074000FFF7CEFF08BD000000180140000C01407B
:1007500000BFFEE77047000070B5002100230F22A4
:10076000C47804B3154C246804F4E064C4F5E06470
:10077000210AC1F10403CA40447804FA03F18478E1
:100780001440214309010E4C0678A155047804F069
:100790001F050124AC4005786D11AD0005F1E02581
:1007A000C5F8004109E0047804F01F050124AC40BD
:1007B000044D0678761145F8264070BD0CED00E03A
:1007C00000E400E080E100E002490143024A1160D8
:1007D000704700000000FA050CED00E070470000D3
:1007E00029B1064A52690243044B5A6104E0034AA4
:1007F00052698243014B5A61704700000010024069
:1008000029B1064A92690243044B9A6104E0034A03
:1008100092698243014B9A617047000000100240C8
:1008200030B500210022002400232D4D6D6805F015
:100830000C0121B1042905D0082923D105E0294D57
:10084000056022E0274D05601FE0254D6D6805F429
:100850007012234D6D6805F48034022505EB924239
:100860001CB9214D554305600BE01D4D6D6805F425
:1008700000351DB11C4D5543056002E0194D55432F
:10088000056002E0174D056000BF00BF144D6D68A4
:1008900005F0F0010909154D6B5C0568DD40456008
:1008A0000F4D6D6805F4E061090A104D6B5C4568F9
:1008B000DD4085600A4D6D6805F46051C90A0B4D35
:1008C0006B5C4568DD40C560054D6D6805F44041D1
:1008D000890B074D6B5CC568B5FBF3F5056130BD51
:1008E0000010024000127A0000093D0001000020C3
:1008F00011000020704710B500F002F810BD000094
:100900000CB50020019000903348006840F480301E
:100910003149086000BF3048006800F400300090A2
:100920000198401C0190009818B90198B0F5A06F8B
:10093000F1D12948006800F4003010B10120009086
:1009400001E0002000900098012843D1234800686E
:1009500040F01000214908600846006820F00300BC
:1009600008600846006840F0020008601A484068C5
:10097000194948600846406848600846406840F4A5
:10098000806048600846406820F47C104860084653
:10099000406840F4E81048600846006840F0807005
:1009A000086000BF0C48006800F000700028F9D013
:1009B0000948406820F0030007494860084640683D
:1009C00040F00200486000BF0348406800F00C009F
:1009D0000828F9D10CBD00000010024000200240A0
:1009E0007047000010B51348006840F0010011493D
:1009F000086008464068104908400E4948600846AB
:100A000000680E4908400B4908600846006820F459
:100A1000802008600846406820F4FE0048604FF4DB
:100A20001F008860FFF767FF4FF00060044908600F
:100A300010BD0000001002400000FFF8FFFFF6FEAE
:100A400008ED00E010B540F22551154800F04AF8D5
:100A500020B3134800F002F904461248B0F800042D
:100A6000B0F5806F0BD20F48B0F80024B0F8000446
:100A7000401C0C4BA3F80004184684540EE00020E0
:100A80000849A1F800040846B0F80024B0F80004B2
:100A9000401C0B46A3F800040846845410BD000017
:100AA00000380140A807002001F40072B2F5007F71
:100AB00000D100BFCA430280704721B1828942F44D
:100AC0000052828104E082894DF6FF731A408281D0
:100AD00070471AB1838A0B43838202E0838A8B4377
:100AE0008382704770B50246002400230025002051
:100AF00040F66A16B14200D100BFC1F3421501F0C1
:100B00001F03012606FA03F3012D02D19689334013
:100B100006E0022D02D1168A334001E0968A334066
:100B20000C12012606FA04F41688344013B10CB1F5
:100B3000012000E0002070BDF0B50346002400262F
:100B40000025002040F66A17B94200D100BF1846C0
:100B5000C1F3421401F01F06012707FA06F5012C24
:100B600001D10C3004E0022C01D1103000E014302F
:100B70001AB107682F43076002E00768AF430760B8
:100B8000F0BD00002DE9F04786B005460E46002472
:100B9000A24600BFA1460027B08900B100BF2F4682
:100BA0002C8A4CF6FF700440F08804432C82AC89F8
:100BB0004EF6F3100440B088318908437189084328
:100BC0000443AC81AC8A4FF6FF400440B089044333
:100BD000AC8201A8FFF724FE1F48874202D1DDF84E
:100BE00010A001E0DDF80CA0A88900F4004040B19D
:100BF0000AEBCA0000EB0A1031684900B0FBF1F8BB
:100C000007E00AEBCA0000EB0A1031688900B0FB6C
:100C1000F1F86420B8FBF0F004012009642101FB25
:100C20001089A88900F4004040B1322000EBC900CF
:100C3000B0FBF1F000F00700044308E0322000EBC5
:100C400009106421B0FBF1F000F00F0004432C8187
:100C500006B0BDE8F08700000038014001468888F2
:100C6000C0F30800704700BFFEE7000010B50E4853
:100C70000021017040F26A310C48FFF7EAFA542172
:100C80000B48FFF7E6FAF8210A48FFF7E2FA692174
:100C90000948FFF7DEFA4C210848FFF7FCFA10215B
:100CA0000748FFF7D6FA10BD00000020180000200A
:100CB00082030020D6030020CE0400203805002047
:100CC0008405002010B5064890F8050430B100F006
:100CD00005FF18B10020024981F8050410BD00008D
:100CE000AC0B002070B504460D4640210348FFF7C9
:100CF000DBFE2946204600F039F870BD003801407F
:100D000010B5194890F8050460BB174890F8041412
:100D100000F5806000EB4100008818B3124A92F899
:100D2000043402F5806202EB430211880E4A92F805
:100D300004240D4B03EB4220FFF7D4FF00210A48A7
:100D400090F8042400F5806000EB42000180064822
:100D500090F80404C0F10100034981F80404012063
:100D600081F8050410BD0000AC0B002070B50446EE
:100D70000D4600210548FFF741FB044844388564CF
:100D8000046501210148FFF739FB70BD44000240B2
:100D90000948B0F81002084AB2F81222811A002954
:100DA00008DA0548B0F81202C0F10400024AB2F8AD
:100DB00010228118C8B27047940500200948B0F885
:100DC0000004084AB2F80224811A002908DA05480A
:100DD000B0F80204C0F58060024AB2F8002481181D
:100DE00088B27047A807002000F0FCFD00BF00F0AB
:100DF000F1FDFCE710B5002409E004EB84120C4976
:100E000001EB42008221FFF724FA601C84B2042C1B
:100E1000F3DB00200649091FA1F81002A1F8120215
:100E2000012081F80C02002081F80D0210BD0000A5
:100E30009805002010B5FFF7C1FF00287DDD704840
:100E4000B0F80204B0F5806F03D300206C49A1F81C
:100E500002046B48B0F80214B0F80204401C684A5F
:100E6000A2F802041046435C664890F80E0228B9C6
:100E7000552B03D10120634981F80E02614890F897
:100E80000E02012859D15F48B0F8100200EB801122
:100E90005C48001D00EB4100B0F8800080282DDA8E
:100EA0005848B0F8100200EB80115648001D00EBC6
:100EB0004100B0F880105348B0F8100200EB8012E7
:100EC0005048001D00EB4200B0F88000401C82B288
:100ED0004C48B0F8100200EB80144A48001D00EBAB
:100EE0004400A0F880204748B0F8100200EB8012C0
:100EF0004448001D00EB420043540FE000214148EC
:100F0000B0F8100200EB80123E48001D00EB4200DA
:100F1000A0F8801000203B4981F80E023948B0F853
:100F2000100200EB80113748001D00EB4100B0F8C3
:100F30008000032862DD334800E04EE0B0F8100284
:100F400000EB80112F48001D00EB41004078001D90
:100F50002C49B1F8101201EB81122A49091D01EB4D
:100F60004201B1F88010884248DC2648B0F81002EF
:100F700000EB80112348001D00EB4101001FB0F879
:100F8000100200EB80121F48001D00EB4200407869
:100F9000C01C085CAA2821D11A48B0F81002032806
:100FA00007DA1848B0F81002401C1649A1F81002E0
:100FB00003E000201349A1F810020020114981F834
:100FC0000E0200210F48B0F8100200EB80120D480D
:100FD000001D00EB4200A0F880100FE0002109483E
:100FE000B0F8100200EB80120648001D00EB420032
:100FF000A0F880100020034981F80E0210BD000007
:10100000A8070020940500200146972932D11B48EB
:10101000B0F8120200EB80121848001D00EB4200ED
:10102000C2791648B0F8120200EB80131348001D75
:1010300000EB4300807902EB0020114AA2F87C0209
:101040000E48B0F8120200EB80120C48001D00EBB5
:101050004200C2790948B0F8120200EB8013074839
:10106000001D00EB4300007A02EB0020044AA2F8C6
:101070007E0201E0002070470120FCE7940500207B
:10108000180000200146AD2902D0AE291CD10DE088
:101090001048B0F8120200EB80120E48001D00EB61
:1010A000420080790C4A82F867030FE00948B0F8E3
:1010B000120200EB80120748001D00EB420080790D
:1010C000054A82F8680301E00020704700BF012054
:1010D000FBE7000094050020180000200146682965
:1010E0003CD12048B0F8120200EB80121D48001DD0
:1010F00000EB4200C2791B48B0F8120200EB8013EB
:101100001848001D00EB4300807902EB0020164ACE
:1011100090801448B0F8120200EB80121148001DB4
:1011200000EB4200027A104882710E48B0F81202B9
:1011300000EB80120B48001D00EB4200427A0A4887
:10114000C2710848B0F8120200EB80120548001D79
:1011500000EB4200827A0448027201E000207047EE
:101160000120FCE7940500208405002010B502460C
:101170008848B0F8120200EB80138648001D00EB8F
:101180004300807903068348B0F8120200EB801414
:101190008048001D00EB4400C07903EB00437D480C
:1011A000B0F8120200EB80147A48001D00EB4400F6
:1011B000007A03EB00237748B0F8120200EB8014AA
:1011C0007448001D00EB4400407A1918822A75D03B
:1011D00011DCA2F16B0017286BD2DFE800F0BCC075
:1011E000D6C4D62F3235383B3E4145494C4F525537
:1011F000595D61656B008D2A70D00ADCA2F1830015
:101200000A28E9D2DFE800F05E62666B6F73787CD3
:101210008087932A6FD008DCA2F18E000528DBD2EC
:10122000DFE800F08185898D9100C52A70D0CE2A33
:101230006FD0CF2A6ED0D02A3BD1A2E0564B597541
:10124000A5E0554B9975A2E0534B19839FE0524B93
:1012500059839CE0504B998399E04F4BD98396E09A
:101260004D4880F8351092E04B4880F836108EE0FB
:10127000494801878BE04848418788E04648818794
:1012800085E04548C18782E0434880F855107EE0FC
:10129000414880F856107AE03F48A0F8581076E0B0
:1012A0003D48A0F85A1072E03B48A0F85C106EE090
:1012B00004E06AE03848A0F85E1068E0364880F83C
:1012C000751064E0344880F8761060E03248A0F889
:1012D00078105CE03048A0F87A1058E01FE02E4803
:1012E000A0F87C1053E02C48A0F87E104FE02A486C
:1012F00080F895104BE02AE0274880F8961046E0E9
:101300002548A0F8981042E02348A0F89A103EE043
:101310002DE030E032E02048A0F89C1037E01E4875
:10132000A0F89E1033E01C4880F8B5102FE01A4852
:1013300080F8B6102BE01848A0F8B81027E016483F
:10134000A0F8BA1023E01448A0F8BC101FE012481F
:10135000A0F8BE101BE0104B83F8EA1017E00E4B0C
:1013600083F8EB1013E00C4BA3F8EE100FE00A4BE0
:1013700083F8F0100BE00948016408E00748416475
:1013800005E0064B83F8481001E0002010BD00BFC7
:101390000120FBE794050020D6030020380500203B
:1013A0000C48B0F8120200EB80110A48001D00EB57
:1013B000410001790748B0F8120200EB801205489D
:1013C000001D00EB4200C07801EB002002490870CC
:1013D0000120704794050020000000200146952957
:1013E00002D0BB291CD10DE01048B0F8120200EB6E
:1013F00080120E48001D00EB420080790C4A82F8F2
:10140000F1000FE00948B0F8120200EB8012074823
:10141000001D00EB42008079054A82F8F20001E0ED
:101420000020704700BF0120FBE70000940500206A
:10143000D603002070B50346F948B0F8120200EB5D
:101440008014F748001D00EB440082791846BF2B3A
:1014500017D00EDCB7287CD006DC69287AD06A2841
:1014600079D0B12878D15CE1BC2876D0BD28F9D1FB
:10147000D0E1C03805286FD2DFE800F0275181ABFA
:10148000D5000020E74C207500211AE0E548007DDA
:10149000142813DAE248B0F8120200EB8014E04896
:1014A000001D00EB4404C81D245CDE48057D007D62
:1014B000401CDC4E30753046445500E003E0481CCB
:1014C000C1B29142E2DB00BFD8E10024D54880F8E8
:1014D000344000211FE0D34890F83400142817DA74
:1014E000CF48B0F8120200EB8014CD48001D00EB8D
:1014F0004404C81D245CCB4890F8345090F8340064
:10150000401CC6B2C74880F834602030445500E023
:1015100003E0481CC1B29142DDDB00BFAEE1002414
:10152000C04880F85440002125E0BE4890F854009F
:1015300014281DDABA48B0F8120200EB8014B8483B
:10154000001D00EB4404C81D245CB64890F85450BC
:1015500004E011E191E0BAE08EE131E190F854004D
:10156000401CC6B2AF4880F854604030445500E09B
:1015700003E0481CC1B29142D7DB00BF7EE10024EA
:10158000A84880F8744000211FE0A64890F8740035
:10159000142817DAA248B0F8120200EB8014A04811
:1015A000001D00EB4404C81D245C9E4890F8745054
:1015B00090F87400401CC6B29A4880F8746060309D
:1015C000445500E003E0481CC1B29142DDDB00BF9E
:1015D00054E10024934880F8944000211FE0914892
:1015E00090F89400142817DA8D48B0F8120200EB36
:1015F00080148B48001D00EB4404C81D245C8948FE
:1016000090F8945090F89400401CC6B2854880F839
:1016100094608030445500E003E0481CC1B2914220
:10162000DDDB00BF2AE100247E4880F8B4400021C1
:101630001FE07C4890F8B400142817DA7848B0F816
:10164000120200EB80147648001D00EB4404C81D14
:10165000245C744890F8B45090F8B400401CC6B2B2
:10166000704880F8B460A030445500E003E0481CA6
:10167000C1B29142DDDB00BF00E10020694C84F87B
:10168000D40000211FE0674890F8D400142817DA2E
:101690006348B0F8120200EB80146148001D00EBB3
:1016A0004404C81D245C5F4890F8D45090F8D400DE
:1016B000401C5C4E86F8D40006F1C000445500E0A2
:1016C00003E0481CC1B29142DDDB00BFD6E0002040
:1016D000544C84F8E90000211FE0524890F8E900DA
:1016E000142817DA4E48B0F8120200EB80144C4868
:1016F000001D00EB4404C81D245C4A4890F8E950E2
:1017000090F8E900401C474E86F8E90006F1D50044
:10171000445500E003E0481CC1B29142DDDB00BF4C
:10172000ACE00020404C84F85200002120E03E480C
:1017300090F85200142818DA3948B0F8120200EB79
:1017400080143748001D00EB4404C81D245C364853
:1017500090F8525090F85200401C334E86F85200D8
:1017600006F12A0020F8154000E003E0481CC1B251
:101770009142DCDB00BF81E000202C4C2075002171
:101780001AE02A48007D142813DA2548B0F812021E
:1017900000EB80142248001D00EB4404C81D245CAB
:1017A0002248057D007D401C204E30753046445552
:1017B00000E003E0481CC1B29142E2DB00BF5DE003
:1017C00000201A4C84F8290000211FE0174890F8E7
:1017D0002900142817DA1248B0F8120200EB80141E
:1017E0000F48001D00EB4404C81D245C0F4890F80E
:1017F000295090F82900401C0C4E86F8290006F16B
:101800001500445500E003E0481CC1B29142DDDB05
:1018100000BF33E00020054C84F83E00002127E0A3
:1018200094050020D603002082030020CE0400206F
:10183000144890F83E00142817DA1348B0F8120242
:1018400000EB80141048001D00EB4404C81D245C0C
:101850000C4890F83E5090F83E00401C094E86F827
:101860003E0006F12A00445500E003E0481CC1B2E6
:101870009142DDDB00BF01E0002070BD00BF012010
:10188000FBE70000CE0400209405002001466729F4
:1018900024D11448B0F8120200EB80121148001D48
:1018A00000EB42008079104A10700E48B0F8120226
:1018B00000EB80120B48001D00EB4200C0790A4A81
:1018C00050700848B0F8120200EB80120548001D65
:1018D00000EB4200007A044A907001E0002070475B
:1018E0000120FCE7940500208405002070470000DB
:1018F000F0B53748B0F8120200EB80113448001DF3
:1019000000EB410047783248B0F8120200EB80113A
:101910002F48001D00EB41008478E92C03D1FFF72C
:101920003FFD0120F0BDE52C50D12948B0F812024E
:1019300000EB80112648001D00EB4100017924488E
:10194000B0F8120200EB80122148001D00EB4200AB
:10195000C07801EB002085B21D48B0F8120200EB00
:1019600080111B48001D00EB41004679212E16D046
:1019700006DC102E1BD0132E1DD0142E23D11EE0FA
:10198000222E04D0232E06D0252E1CD10BE0284673
:10199000FFF7ECFB19E02846FFF74CFD15E0284661
:1019A000FFF770FB11E02846FFF718FD0DE0284611
:1019B000FFF72AFB09E02846FFF768FF05E0284605
:1019C000FFF78CFB01E00020ACE700BF0120A9E796
:1019D0009405002010B500F08FF800F059F900F0E0
:1019E00095F910BD10B5FFF741F9012000F0ECF8B2
:1019F000FEF77CFEFFF77AFFFFF7FCF94FF4A060DB
:101A0000FEF7E2FE10BD000000B58DB00E208DF88F
:101A1000040003208DF8050002208DF80600012047
:101A20008DF8070001A8FEF797FE2948FEF7F2FCA3
:101A300001210846FEF7D4FE0120059010200490F5
:101A400000200C904FF40070059000200390214876
:101A500002900020099080200790002006900A90B4
:101A60004FF480500B9002A91948FEF78FFD00211A
:101A700017481430FEF7C2FC15481430FEF7CAFCB4
:101A80001548039013480290002004904FF48060A2
:101A90000590002006908020079000200890099073
:101AA0000A904FF440500B9000200C9002A9084877
:101AB0001430FEF76BFD012105481430FEF79EFC43
:101AC000012280210348001FFFF703F80DB000BD7D
:101AD0004400024004380140A807002010B54FF42C
:101AE0000050FEF73DFD012804D14003FEF778FCCD
:101AF000012010BD0020FCE710B5FFF79BF9FFF7B0
:101B000047F900281BDDFFF7F3FE012807D1244821
:101B1000B0F81202401C2249A1F8120206E0204847
:101B2000B0F81202401C1E49A1F812021C48B0F87D
:101B30001202042803DB00201949A1F812021948F7
:101B4000007D00282ADD1748017D00F0A7F8154820
:101B5000017D00F0A3F81348017D00F09FF81148C3
:101B6000017D00F09BF80F48017D00F097F80D48CB
:101B7000017D00F093F80B48017D00F08FF80948D3
:101B8000017D00F08BF80748017D00F087F80548DB
:101B9000017D00F083F800200249087510BD0000A7
:101BA00094050020D603002010B540F204410448FB
:101BB000FEF74FFB40F206410248FEF74AFB10BD1C
:101BC000A8070020AC0B002010B586B00446FFF734
:101BD000EBFF012144F20400FEF712FE4FF4007007
:101BE000ADF8140003208DF8160018208DF81700AA
:101BF00005A92448FEF7E9FC4FF48060ADF8140015
:101C000004208DF8170005A91E48FEF7DEFC2520EC
:101C10008DF8000003208DF801008DF802000120EE
:101C20008DF803006846FEF797FD4FF4E130019010
:101C30000020ADF80800ADF80A00ADF80C00ADF8D2
:101C400010000C20ADF80E0001A90F48FEF79AFF16
:101C5000012240F225510C48FEF76EFF01210A488F
:101C6000FEF72BFF40F204410848FEF7F2FA0CB9E8
:101C700006B010BD012C02D1FFF7C6FE00E0F7E769
:101C800000BFF5E70008014000380140A807002028
:101C900010B5FFF717F8FFF733F810BD70B505461C
:101CA0000C460026184890F8041400F5806000EBFC
:101CB00041000088C0F50076A64212D3124991F87F
:101CC0000414114A02EB41220F4991F8043401F542
:101CD000806101EB43010988501822462946FEF72E
:101CE00073FA094890F8041400F5806000EB410095
:101CF0000088204481B2044890F8042400F58060F4
:101D000000EB4200018070BDAC0B00200948007858
:101D100007280CD2DFE800F00405060708090A00CE
:101D200006E005E004E003E002E001E000E000BFBF
:101D300000BF704700000020581D00080000002070
:101D40001800000028010008701D0008180000207D
:101D5000001600004401000800000000000102031A
:101D60000401020304060708090204060800000033
:04000005080000ED02
:00000001FF
