:020000040800F2
:10000000C0DF002091010008911300088112000850
:100010008D130008D30800084337000800000000D3
:10002000000000000000000000000000A92D0008F2
:10003000D10C00080000000019140008D12E00089F
:10004000AB010008AB010008AB010008AB010008E0
:10005000AB010008AB010008AB010008AB010008D0
:10006000AB010008AB010008AB010008AB010008C0
:10007000AB010008AB010008D10A0008AB01000881
:10008000AB010008AB010008AB010008AB010008A0
:10009000AB010008AB010008AB010008AB01000890
:1000A000AB010008AB010008AB010008AB01000880
:1000B000AB01000875310008AB010008AB01000876
:1000C000AB010008AB010008AB010008AB01000860
:1000D000AB0100082D350008AB010008AB0100089A
:1000E000AB010008AB010008AB01000800F002F80A
:1000F00000F03FF80AA090E8000C82448344AAF183
:100100000107DA4501D100F034F8AFF2090EBAE880
:100110000F0013F0010F18BFFB1A43F0010318473B
:100120001C2F03003C2F0300103A24BF78C878C16D
:10013000FAD8520724BF30C830C144BF04680C60ED
:10014000704700000023002400250026103A28BF35
:1001500078C1FBD8520728BF30C148BF0B60704739
:10016000642900F0A180002070471FB51FBD10B5A5
:1001700010BD00F086FA1146FFF7F7FF05F046FCC8
:1001800000F0A4FA03B4FFF7F2FF03BC00F0A8FAF2
:100190000948804709480047FEE7FEE7FEE7FEE71B
:1001A000FEE7FEE7FEE7FEE7FEE7FEE70448054957
:1001B000054A064B70470000D52E0008ED000008E8
:1001C000C0CD0020C0DF0020C0CF0020C0CF002065
:1001D00010B54C1084EA530404D54042C1F100012B
:1001E00038BF491E1B4204D55242C3F1000338BF39
:1001F0005B1E00F058F914F0804F04D04042C1F16A
:10020000000138BF491E14F0004F04D05242C3F120
:10021000000338BF5B1E10BD0FB41CB5074B06AA08
:100220007B4469460090059800F013FA0020694667
:1002300000F022FA1CBC5DF814FB0000550400001D
:100240002DE9F0410E460446002020622046E16878
:10025000884730B3252805D0D4E901219047206A8A
:10026000401CF2E7E168204600278847050018D0C7
:10027000A5F14100192802D820354FF40067324615
:10028000294620462760FFF76BFF40B1012804D0C4
:10029000F61D26F007060836D8E7361DD6E72846AD
:1002A000DAE7206ABDE8F0812DE9F0410646002436
:1002B00010687529314616A510D0AFF300800028CC
:1002C00002DA404213A507E031688A0701D512A57A
:1002D00002E0490704D511A5012401E0AFF3008035
:1002E00000210A2206F1240709E0B0FBF2FCB0FB72
:1002F000F2F302FB1C00303078541846491C0028E9
:10030000F3D123462A463046BDE8F04100F042B919
:10031000000000002D0000002B0000002000000065
:10032000032A40F2308010F0030C00F0158011F821
:10033000013BBCF1020F624498BF11F801CB00F8F9
:10034000013B38BF11F8013BA2F1040298BF00F84D
:1003500001CB38BF00F8013B11F0030300F025800A
:10036000083AC0F0088051F8043B083A51F804CB31
:10037000A0E80810F5E7121D5CBF51F8043B40F8F7
:10038000043BAFF30080D20724BF11F8013B11F802
:1003900001CB48BF11F8012B24BF00F8013B00F846
:1003A00001CB48BF00F8012B704710B5203AC0F0D0
:1003B0000B80B1E81850203AA0E81850B1E8185066
:1003C000A0E81850BFF4F5AF5FEA027C24BFB1E8A3
:1003D0001850A0E8185044BF18C918C0BDE8104014
:1003E0005FEA827C24BF51F8043B40F8043B08BF1D
:1003F0007047D20728BF31F8023B48BF11F8012BE4
:1004000028BF20F8023B48BF00F8012B70474FF08F
:1004100000020429C0F0128010F0030C00F01B80D1
:10042000CCF1040CBCF1020F18BF00F8012BA8BFDF
:1004300020F8022BA1EB0C0100F00DB85FEAC17CA3
:1004400024BF00F8012B00F8012B48BF00F8012B56
:1004500070474FF0000200B5134694469646203987
:1004600022BFA0E80C50A0E80C50B1F12001BFF46D
:10047000F7AF090728BFA0E80C5048BF0CC05DF8D3
:1004800004EB890028BF40F8042B08BF704748BF21
:1004900020F8022B11F0804F18BF00F8012B704795
:1004A00070477047704753EA020C00F069802DE9ED
:1004B000F04B4FF00006002B1FBFB3FA83F503FA91
:1004C00005F424FA05F65E4012BF1643B2FA82F52F
:1004D00002FA05F4C5F120051EBF22FA05FC44EA24
:1004E0000C04203556EA044C4FEA144418BF641C2F
:1004F0004FF000084FF00009904271EB030C39D324
:10050000002919BFB1FA81F701FA07F6B0FA80F7AE
:1005100000FA07F6C7F120071EBF20FA07FC46EADB
:100520000C062037B6FBF4FCA7EB0507103F07F0DD
:100530001F0BCBF120060CFA0BFB2CFA06F644BF7E
:10054000B3460026202FA4BF5E464FF0000B5BEAA7
:10055000060C08BF4FF0010B19EB0B09ABFB027C3B
:1005600048EB0608C01B06FB02CC0BFB03CC71EB6F
:100570000C01C1E70B46024641464846BDE8F08BF8
:1005800013B54FF000004FF00001AFF30080BDE85D
:100590001C4070472DE9F0470D46994692460446A7
:1005A00000F124080168880604D5E06921F01001F3
:1005B000216000E00120A84201DD471B00E0002788
:1005C000A1697A1902EB0900081AA0612078C00617
:1005D00002D42046AFF30080002608E0D4E90121D0
:1005E0001AF806009047206A401C761C20624E458F
:1005F000F4DB2078C0060AD52046AFF3008006E081
:10060000D4E9012130209047206A401C2062381E26
:10061000A7F10107F4DC07E0D4E9012118F805008F
:100620009047206A401C2062281EA5F10105F3DCDA
:100630002046AFF300802078000602D50220BDE8F6
:10064000F0870120FBE7000001694A1C026108787D
:10065000704700B58FB0CDE9013100210591054902
:100660007944CDE9031011466846FFF7E9FD0FB064
:1006700000BD0000E5FFFFFF0A6802F8010B0A60F9
:100680007047754600F028F8AE46050069465346A7
:1006900020F00700854618B020B5FFF787FDBDE8BC
:1006A00020404FF000064FF000074FF000084FF0D9
:1006B000000B21F00701AC46ACE8C009ACE8C0096A
:1006C000ACE8C009ACE8C0098D4670470446AFF3FA
:1006D00000802046FFF756FD0048704760CD00209F
:1006E00001491820ABBEFEE726000200704721B189
:1006F000826842F00102826003E0826822F0010217
:100700008260704721B1826842F48072826003E0A7
:10071000826822F4807282607047000010B504463F
:100720001248844208D10121401500F0B3FE002197
:10073000601500F0AFFE17E00D48844208D101219A
:10074000001500F0A7FE0021201500F0A3FE0BE02D
:100750000848844208D10121C80300F09BFE002113
:100760004FF4004000F096FE10BD00000024014050
:1007700000280140003C0140014600208A6802F048
:1007800004020AB1012000E0002070470146002069
:100790008A6802F008020AB1012000E000207047D8
:1007A00030B502460020002350680F4C20400D79E0
:1007B0000C6844EA05242043506090680B4C2040AC
:1007C000D1E902542C434D7944EA4504204390601A
:1007D000D06A20F470000C7C641EE4B2234340EA2B
:1007E0000350D06230BD0000FFFEF0FFFDF7F1FFC7
:1007F000F0B504460D4600200021092D11DDE0680A
:10080000A5F10A0606EB4607072606FA07F1884314
:10081000A5F10A0606EB460603FA06F10843E06076
:100820000CE0206905EB4507072606FA07F1884327
:1008300005EB450603FA06F108432061072A0FDAA3
:10084000606B561E06EB86071F2606FA07F18843E3
:10085000561E06EB860605FA06F10843606322E0A1
:100860000D2A0FDA206BD61F06EB86071F2606FA25
:1008700007F18843D61F06EB860605FA06F1084302
:10088000206310E0E06AA2F10D0606EB86071F2642
:1008900006FA07F18843A2F10D0606EB860605FA73
:1008A00006F10843E062F0BD816841F00801816013
:1008B000704721B1826842F4A002826003E082683E
:1008C00022F4A00282607047816841F004018160D7
:1008D000704700BFFEE770B500254FF4803404E098
:1008E000802000F005FF00B103E02000A4F1010426
:1008F000F6D100BF0CB9032070BD40F2FF5000F0EC
:10090000B1FE2846F8E7000070B5044605E015483A
:10091000456B05F0450000B100E0F8E700BF04209A
:1009200000F0E6FE20B1042000F09CFE032070BD24
:10093000012000F0DDFE20B1012000F093FE012037
:10094000F5E708480069A04201D01020EFE740F227
:10095000FF50044988630846406908210840C0B236
:10096000E5E700000080014070B500264FF48035B7
:1009700005E01148446B04F0450000B103E0280095
:10098000A5F10105F5D100BF15B104F0040028B1AF
:100990000326042000F066FE304670BD012000F002
:1009A000A7FE18B10126012000F05CFE40F2FF50C6
:1009B00000F058FE3046F0E70080014010B505E039
:1009C0000B48446B04F0450000B100E0F8E700BFBD
:1009D000042000F08DFE20B1042000F043FE03202F
:1009E00010BD40F2FF5000F03DFE0020F8E700008F
:1009F000008001402DE9F04105460E464FF0000809
:100A000005E01F48476B07F0450000B100E0F8E73C
:100A100000BF042000F06CFE28B1042000F022FE8C
:100A20000320BDE8F081012000F062FE20B101202A
:100A300000F018FE0120F4E711480069A84201D037
:100A40001020EEE740F2FF5000F00CFE0C48446925
:100A500004F4604018B9200C30804046E1E704F40B
:100A6000005008B11320DCE704F4804008B11020E6
:100A7000D7E704F4004008B10F20D2E74046D0E7A2
:100A80000080014070B500264FF4803505E00F4826
:100A9000446B04F0450000B103E02800A5F1010516
:100AA000F5D100BF15B104F0040028B103260420DD
:100AB00000F0D8FD304670BD04F0400018B10026AB
:100AC000402000F0CFFD3046F5E7000000800140F7
:100AD00010B54FF4005000F007F80021014800F075
:100AE00011F810BD4400024000F0805111B10349DB
:100AF000086001E0024948607047000004040240B9
:100B00000000024021B1026842F00102026004E0EC
:100B100002684FF6FE731A400260704701684FF694
:100B2000FE72114001600021016041608160C1607E
:100B30004B49884208D14A490839496841F00F01B8
:100B4000474A083A51608AE045491431884208D141
:100B500043490839496841F0F001414A083A516077
:100B60007DE03F492831884208D13D49083949682C
:100B700041F470613A4A083A516070E038493C31BA
:100B8000884208D136490839496841F47041344AED
:100B9000083A516063E032495031884208D1304907
:100BA0000839496841F470212D4A083A516056E0ED
:100BB0002B496431884208D129490839496841F4F0
:100BC0007001274A083A516049E025497831884246
:100BD00008D123490839496841F07061204A083A30
:100BE00051603CE01F49884206D1011F096841F06D
:100BF0000F01021F116032E01A491431884208D1F6
:100C00001849091F096841F0F001164A121F1160C6
:100C100025E014492831884208D11249091F096882
:100C200041F470610F4A121F116018E00D493C3108
:100C3000884208D10B49091F096841F47041094AEB
:100C4000121F11600BE007495031884207D1054956
:100C5000091F096841F47021024A121F1160704790
:100C6000080002400804024001460020002201F072
:100C7000805313B1054B1A6801E0054B1A6802EA6C
:100C800001030BB1012000E0002070470004024086
:100C90000000024010B50022026847F6F0739A4344
:100CA0000C6A8B6823430C6923434C6923438C698A
:100CB0002343CC6923434C6A23438C6A23431A435E
:100CC0000260CB6843600B6883604B68C36010BDF3
:100CD000704700002DE9FC4107460D460026002420
:100CE00000200090019008205B49086010204860B7
:100CF000402088600020C8604FF48060086108468A
:100D000000F028FD1020FFF7FFFD044614B1204637
:100D1000BDE8FC815148008800044F490860372035
:100D20004860402088600020C8604FF480600861FF
:100D3000084600F00FFD3720FFF7E6FD04460CB132
:100D40002046E5E74FF0FF3045490860082048603D
:100D5000302088600220C8600020086101204861BE
:100D6000084600F09BFC00203B49086033204860A7
:100D7000402088600020C8604FF480600861084609
:100D800000F0E8FC3320FFF7BFFD04460CB120461D
:100D9000BEE70CE04FF4001000F0AAFC38B100F000
:100DA000D3FC4DF82600761C022E00D306E02D4819
:100DB000406B40F22A6108400028EBD000BF0820B9
:100DC00000F096FC20B1082000F04CFC04209FE7C6
:100DD000022000F08DFC20B1022000F043FC022034
:100DE00096E7202000F084FC20B1202000F03AFC9F
:100DF00006208DE74FF4007000F07AFC28B14FF424
:100E0000007000F02FFC072082E740F2FF5000F056
:100E100029FC00980006009901F47F4140EA012076
:100E2000009901F47F0140EA1120009940EA116025
:100E3000686001980006019901F47F4140EA0120B1
:100E4000019901F47F0140EA1120019940EA116003
:100E5000286020465CE70000A02000201C00002045
:100E6000B42000200080014010B500F0CBF900F064
:100E7000E3F900F00FF800F073F900F08DF832217B
:100E80004FF47A7001F092FF00F07EFB02F03AFB23
:100E900010BD000000B591B0012148F2810000F0C2
:100EA000E9FA0121022000F0C5FA4FF4004000F0F9
:100EB000B5FA3548FFF732FC4020ADF8400000207D
:100EC0008DF8430003208DF8420010A92F4800F050
:100ED000BBF800200B908DF8300001208DF8310018
:100EE0004FF460200D9000200E9001208DF83C0002
:100EF0000BA92548FFF754FC0723012204212248AF
:100F0000FFF776FC01212048FFF7FCFB01211E487A
:100F1000FFF7EDFB1C48FFF7C7FC00BF1A48FFF7BF
:100F200035FC0028FAD11848FFF7CEFC00BF164860
:100F3000FFF722FC0028FAD101211348FFF7B9FC82
:100F40001348FFF7EBFD10484C300090114801901A
:100F50000020029001200390002004904020059082
:100F600080000690800007902020089000020990E1
:100F700000200A9069460648FFF78CFE01210448CC
:100F8000FFF7C0FD11B000BD003C0140001C014056
:100F9000580402407000002000B589B001210220F1
:100FA00000F058FA0121042000F064FA8020ADF826
:100FB000200028208DF8230008A9214800F044F8DB
:100FC00080211F4800F034F94FF6FF70ADF818008B
:100FD0004720ADF814000020ADF81A00ADF8160057
:100FE00005A9184802F03CFA0420ADF804000020DE
:100FF000ADF806000120ADF808000020ADF80A00A9
:10100000ADF80C0001A90F4802F048F91D208DF839
:10101000100002208DF8110000208DF81200012030
:101020008DF8130004A800F0B5F901220521054848
:1010300002F08AF90121034802F00FF909B000BD5E
:1010400000080140000400402DE9F041024600255F
:101050000026002000230024002791F803C00CF094
:101060000F0591F803C00CF0100CBCF1000F03D079
:1010700091F802C04CEA050591F800C0BCF1000FE0
:1010800031D0146800202BE04FF0010C0CFA00F373
:10109000B1F800C00CEA03069E4220D183004FF055
:1010A0000F0C0CFA03F7BC4305FA03FC4CEA0404EA
:1010B00091F803C0BCF1280F06D14FF0010C0CFAD7
:1010C00000FCC2F814C00AE091F803C0BCF1480F5C
:1010D00005D14FF0010C0CFA00FCC2F810C0401C06
:1010E0000828D1D31460B1F800C0BCF1FF0F34DD83
:1010F000546800202EE000F1080C4FF0010808FAB7
:101100000CF3B1F800C00CEA03069E4221D1830023
:101110004FF00F0C0CFA03F7BC4305FA03FC4CEA42
:10112000040491F803C0BCF1280F05D100F1080CAC
:1011300008FA0CF8C2F8148091F803C0BCF1480F0B
:1011400007D100F1080C4FF0010808FA0CF8C2F8BA
:101150001080401C0828CED35460BDE8F081000008
:1011600000B589B00121042000F084F90121082094
:1011700000F070F90121084600F07CF90120ADF87B
:10118000200003208DF8220018208DF8230008A9E4
:101190001748FFF759FF17480088ADF818001648A0
:1011A0000088ADF814000020ADF81A00ADF8160064
:1011B00005A9124802F054F911480088ADF80A0058
:1011C0006020ADF804000120ADF806000020ADF865
:1011D0000C0001A9094802F0C1F80821074802F0F3
:1011E00009F90121054802F038F809B000BD0000F6
:1011F000000801407400002072000020000C004034
:101200007600002008B50121082000F033F94FF4E2
:101210007060ADF8000010208DF8030003208DF8F9
:10122000020069460148FFF70FFF08BD000C0140AE
:10123000416170470161704708B50121082000F045
:1012400019F90121802000F015F94FF4E040ADF8C4
:10125000000010208DF8030003208DF8020069467D
:101260000548FFF7F1FE8020ADF80000694603480D
:10127000FFF7EAFE08BD0000000C0140001C014021
:1012800000BFFEE772B6704762B670471CB50446F1
:101290000020019000902148008800042049086047
:1012A0000D204860402088600020C8604FF48060B6
:1012B0000861084600F04EFA1A48406B009002E0C0
:1012C0001848406B0090009800F045000028F7D0C7
:1012D000012000F00DFA20B1012000F0C3F9012037
:1012E0001CBD042000F004FA20B1042000F0BAF97B
:1012F0000320F5E70B4800690D2801D01020EFE727
:1013000040F2FF5000F0AEF90648406901900198A4
:10131000C0F3432020700020E2E700001C00002002
:10132000A02000200080014008B50121402000F0ED
:10133000A1F82020ADF8000010208DF80300032054
:101340008DF8020069460F48FFF77EFE20210E4807
:10135000FFF770FF4020ADF8000069460948FFF72D
:1013600073FE40210748FFF765FF1020ADF800002D
:1013700069460448FFF768FE10210248FFF758FF4E
:1013800008BD000000180140000C014000BFFEE74E
:101390007047000070B5002100230F22C47804B309
:1013A000154C246804F4E064C4F5E064210AC1F13A
:1013B0000403CA40447804FA03F1847814402143BA
:1013C00009010E4C0678A155047804F01F0501248C
:1013D000AC4005786D11AD0005F1E025C5F8004180
:1013E00009E0047804F01F050124AC40044D0678A0
:1013F000761145F8264070BD0CED00E000E400E0F9
:1014000080E100E002490143024A11607047000098
:101410000000FA050CED00E07047000001460020D6
:10142000034A506820F44040084350607047000071
:101430000010024029B1064A52690243044B5A6126
:1014400004E0034A52698243014B5A61704700002D
:101450000010024029B1064AD2690243044BDA6106
:1014600004E0034AD2698243014BDA61704700000D
:101470000010024029B1064A92690243044B9A6166
:1014800004E0034A92698243014B9A61704700006D
:101490000010024029B1064AD2680243044BDA60C8
:1014A00004E0034AD2688243014BDA6070470000CF
:1014B0000010024030B500210022002400232D4DF1
:1014C0006D6805F00C0121B1042905D0082923D14C
:1014D00005E0294D056022E0274D05601FE0254D00
:1014E0006D6805F47012234D6D6805F48034022593
:1014F00005EB92421CB9214D554305600BE01D4D93
:101500006D6805F400351DB11C4D5543056002E0C2
:10151000194D5543056002E0174D056000BF00BF3F
:10152000144D6D6805F0F0010909154D6B5C0568F7
:10153000DD4045600F4D6D6805F4E061090A104D0E
:101540006B5C4568DD4085600A4D6D6805F460514F
:10155000C90A0B4D6B5C4568DD40C560054D6D6883
:1015600005F44041890B074D6B5CC568B5FBF3F58D
:10157000056130BD0010024000127A0000093D00F4
:10158000020000201200002010B54FF480710948BD
:10159000FFF74EFE4FF400710648FFF749FE4FF487
:1015A00000610448FFF744FE4FF480610148FFF7F3
:1015B0003FFE10BD000C01407CB505460024002014
:1015C0000090019000260DB1022600E0002622487E
:1015D000406900F0007008B10E207CBD1F490988E9
:1015E00088B26946FFF776FB04460CB12046F4E763
:1015F000019800F4802060B318480088000418495E
:10160000086037204860402088600020C8604FF4A0
:1016100080600861084600F09DF83720FFF774F9F4
:1016200004460CB12046D8E70D48066006200C4958
:101630004860402088600020C8604FF480600861E6
:10164000084600F087F80620FFF75EF904462046BA
:10165000C3E72520C1E70000008001401C000020F6
:10166000A0200020014988637047000000800140ED
:101670000149086070470000A00030420146034A5B
:10168000506820F0FF000843506070470080014020
:1016900001490860704700008C05304200210A4B68
:1016A00002685A6242689A621A46D16A21F0F701CA
:1016B000D0E902231A4303691A4343691A431143C9
:1016C000014AD162704700000080014000200649B5
:1016D000086048608860C86048628862C8620348E1
:1016E00088630020C863704700800140FF07C00086
:1016F00001460020034A526B0A400AB1012000E073
:1017000000207047008001400248006800F003009C
:10171000704700000080014000210A4A516847F6E6
:10172000FF629143027D83681A4343681A43C3688A
:101730001A4303681A4303691A431143014A51606B
:1017400070470000008001400148006870470000B9
:10175000808001400021094B02689A601A46D168D6
:101760006FF30A01D0E901231A43C3681A430369DE
:101770001A431143014AD1607047000000800140C4
:101780000549096821F00301034A116011460968FF
:10179000014311607047000000800140014908606A
:1017A000704700008080014070B58CB006460C4642
:1017B000154601210220FFF73DFE1348FFF7AEF961
:1017C00000211148FFF79EF91048019002960395F9
:1017D000A0080490002005908020069080000790CB
:1017E00080000890002009904FF400500A900020DB
:1017F0000B9001A90448FFF74DFA00210248FFF7BA
:1018000081F90CB070BD00004404024080800140AA
:1018100070B50446002516480078032801D127201A
:1018200070BD1348007838B111480078012803D002
:101830000F480078022818D1022C01D32720EFE7A7
:10184000E0B2FFF7B9FE05467DB90A48406820F4CA
:10185000C0500849486008464068A1B240EAC1202B
:10186000044948600846406848602846D8E70000B8
:101870001800002000800140F0B501460020002241
:10188000BE4B1B7881F85630BD4B1B88A1F85430F5
:10189000BC4B1B681A0E93090B70C2F383034B7089
:1018A00002F003038B70B74B1B68C3F30742CA7087
:1018B000B44B1B88C3F307220A71B24B1A784A71E2
:1018C0005B681A0E1301CB80AE4B5B68C3F3074213
:1018D000CB8843EA1213CB8002F00F030B72A94BA3
:1018E0009B88C3F30722D3094B72C2F380138B7218
:1018F000C2F34013CB72C2F300130B7300234B737C
:101900009E4B1B783BB19D4B1B78012B03D09B4B0F
:101910001B78032B4FD193071B0D0B61994B1A7941
:101920000B6943EA82030B61964B9B681A0E0B69A5
:1019300043EA92130B61C2F3C2030B7502F0070373
:101940004B75904B9B68C3F3074253098B75C2F3E9
:101950008203CB7593075B0F0B768A4B1B89C3F30E
:1019600007220B7E43EAD2130B760B695B1C002423
:10197000C1E912340B7E9B1C012404FA03F3DC172B
:10198000D1E91256A5FB037C06FB03C305FB043318
:10199000C1E912730C7A0123A3400B650024D1E93D
:1019A00012650B6DA6FB037C05FB03C306FB04332A
:1019B000C1E912732EE0714B1B78022B2AD1714BB7
:1019C0001A7993069B0A0B616E4B9B681A0E0B6982
:1019D00043EA02230B616B4B9B68C3F307420B691D
:1019E00013430B61674B1B89C3F307220B695B1C15
:1019F0004FF40074A3FB04464FF480630025A4FB5E
:101A0000037C06FB03C304FB0533C1E912734FF4E7
:101A100000730B65C2F3801301F8193F93065B0E48
:101A20004B70584B1A7A4B7843EAD2134B7002F042
:101A30007F038B70534BDB681A0ED309CB70C2F354
:101A400041130B71C2F382034B7193071B0F8B7110
:101A50004C4BDB68C3F307428B7943EA92138B71DB
:101A6000C2F34013CB7100230B7202F001034B72DF
:101A7000444B9B89C3F30722D3098B72C2F38013B3
:101A8000CB72C2F340130B73C2F300134B73C2F358
:101A900081038B7302F00303CB733A4B1A7B530819
:101AA0000B7401234B74384B1B681A0ECA74193916
:101AB000354B1B68C3F307421402CC85324B1B889D
:101AC000C3F30722CB8D1343CB852F4B1A78140613
:101AD0000C635B681A0E0B6B43EA02440C632A4BDF
:101AE0005B68C3F307420B6B43EA02240C63264B8B
:101AF0009B88C3F307220B6B13430B63224B1A79AA
:101B000034235A54204B9B681A0E35235A541E4BCB
:101B10009B68C3F3074214068C631B4B1B89C3F3FA
:101B200007228B6B43EA02448C63174B1A7A8B6B48
:101B300043EA02248C63144BDB681A0E8B6B13434D
:101B40008B63114BDB68C3F307423C235B5C43EAC6
:101B500012143C235C5413071C0DCC870A4B9B8941
:101B6000C3F30722CB8F1343CB87074B1A7B540851
:101B700040235C54012441235C54F0BD1800002034
:101B80001C000020CC200020DC2000207CB500259B
:101B9000002401213020FFF76DFC012140F20240BA
:101BA000FFF748FC4FF4F850ADF8000018208DF80E
:101BB000030003208DF8020069463048FFF744FA1D
:101BC0000420ADF8000018208DF8030003208DF8E4
:101BD000020069462A48FFF737FA8020ADF8000076
:101BE00048208DF8030003208DF802006946244840
:101BF000FFF72AFAFFF76AFD31208DF80400002074
:101C00008DF805008DF8060001208DF8070001A869
:101C1000FFF7C0FB00F0E4F8044614B900F036F812
:101C200004461CB91748FFF727FE044634B9154986
:101C3000B1F85410080400F0ADFC04461CB90120B2
:101C4000FFF7E6FD04461CB10F480078032812D1C7
:101C50000C4890F8560020B10A4890F85600012828
:101C600001D10A2500E004252846FFF707FD0020E2
:101C700000F0A8FC044620467CBD00000010014096
:101C800000140140F02000201800002038B5002486
:101C900001200090FFF738FD08B9252038BD4A48DB
:101CA0000078042821D000204849086002204860BC
:101CB000C02088600020C8604FF48060086108463A
:101CC000FFF748FDFEF750FE04460CB12046E5E75D
:101CD0003F4840693F4908603D48806948603C484A
:101CE000C06988603A48006AC8603748007858B1CF
:101CF00035480078012807D033480078062803D0FB
:101D000031480078022816D10020304908600320AD
:101D10004860402088600020C8604FF480600861FF
:101D20000846FFF717FD69460320FEF763FE0446E9
:101D30000CB12046B2E724480078032816D1BDF83C
:101D400000000004214908600320486040208860AA
:101D50000020C8604FF4806008610846FFF7FAFC75
:101D6000FEF702FE04460CB1204697E716480078BD
:101D7000042827D0BDF8000017490860BDF800000E
:101D800000041249086009204860C02088600020D3
:101D9000C8604FF4806008610846FFF7DBFCFEF77F
:101DA000E3FD04460CB1204678E7094840690B4939
:101DB00008600748806948600548C0698860044831
:101DC000006AC860002069E718000020A0200020F9
:101DD00000800140DC2000201C000020CC200020DE
:101DE0002DE9F0470027002400260025A046A14643
:101DF000B2206C4908750020086048608860C8609F
:101E000008610846FFF788FC0320FFF7B9FC0120B2
:101E1000FFF72EFC00BF12E0002063490860486015
:101E20008860C8604FF4806008610846FFF792FC44
:101E3000FEF751FD044604B903E0781CC7B24A2FEF
:101E4000EADB00BF14B12046BDE8F0874FF4D5703F
:101E50005549086008204860402088600020C8601C
:101E60004FF4806008610846FFF774FCFEF70AFE35
:101E7000044624B901204D4908704FF080490020E4
:101E80004949086037204860402088600020C860C9
:101E90004FF4806008610846FFF75CFC3720FEF7CE
:101EA00033FD0446002C4BD134E000203E4908604D
:101EB00037204860402088600020C8604FF4806070
:101EC00008610846FFF746FC3720FEF71DFD044673
:101ED0000CB12046B8E7364849EA000032490860AC
:101EE00029204860402088600020C8604FF480604E
:101EF00008610846FFF72EFCFEF760FD04460CB1B2
:101F00002046A1E72B484669012080EAD67080F080
:101F100001086D1CB8F1000F03D14FF6FF70854228
:101F2000C3D34FF6FF70854202D31B2420468BE7B4
:101F300006F08040060032D002201C4908702EE0D6
:101F40001CE01D4818490860012048604020886056
:101F50000020C8604FF4806008610846FFF7FAFB74
:101F6000FEF72CFD04460CB120466DE7114846698A
:101F7000012080EAD67080F001086D1CB8F1000FD6
:101F800003D14FF6FF708542DBD34FF6FF708542D9
:101F900002D31B24204657E703200449087020463B
:101FA00052E7000088200020A02000201800002018
:101FB00000001080008001400080FF802DE9F84F74
:101FC0008146174698460A9C4FF0000AD3464D4674
:101FD0004FF0FF36B9F1000F02D12620BDE8F88F8F
:101FE00000208249C86282480078022805D1040294
:101FF000780A40EAC8574FEA682800207D4988607F
:102000004860401E0860012048610020C8600861E7
:102010000846FFF743FB7548406900F0007008B1BF
:102020000E20DBE7002C21DDB4F5006F1EDC601E06
:102030002040D8B9204602F081F800906E48046034
:1020400010206D494860402088600020C8604FF42F
:10205000806008610846FFF77DFB1020FEF754FC06
:102060008246BAF1000F03D05046B7E72620B5E705
:10207000009800015F498860084644604FF0FF30D7
:102080000860012048610220C860002008610846FD
:10209000FFF704FB5848076011205749486040206B
:1020A00088600020C8604FF4806008610846FFF730
:1020B00051FB1120FEF728FC8246BAF1000F01D037
:1020C00050468BE74D48007800285AD1FFF7DAF8E0
:1020D00018E04FF40040FFF70BFB78B14FF0000B16
:1020E00006E042488030006845F82B000BF1010BF8
:1020F000BBF1080FF5D32035414E03E00EB90420A3
:102100006CE7761E3948406B40F22A61084000288F
:10211000DFD00820FFF7ECFA20B10820FFF7A2FA81
:1021200004205BE70220FFF7E3FA20B10220FFF76B
:1021300099FA022052E72020FFF7DAFA20B1202096
:10214000FFF790FA062049E74FF40070FFF7D0FA46
:1021500028B14FF40070FFF785FA07203EE703E04F
:10216000FFF7F2FA28602D1D4FF40010FFF7C0FAB8
:102170000028F5D1FFF788F840F2FF50FFF772FA18
:1021800031E01E48007801282DD100222146484622
:10219000FFF70AFB00201B4908701B4908701B4908
:1021A00008701248C06B40F22A3108430F49C863D7
:1021B0000120FFF76DFA00E0761E1548006800F474
:1021C000005038B91148007820B90E48007808B995
:1021D000002EF1D10EB9042000E70A48007810B1B2
:1021E000084890F800A05046F8E600000080014042
:1021F00018000020B4200020A02000202000002093
:10220000FFFF7F002200002021000020230000208B
:10221000000402402DE9FE4F83460C469146002003
:102220000290002625462C46700240EAD5566D02E3
:102230000BF00300F0B14FF0000A18E04FF400700B
:1022400000904FEA4A20471946EBE0733A46164899
:10225000FFF7B4FE02904FF4007213495846FEF7A0
:102260005FF80BF5007B0AF1010000F0FF0ACA4598
:10227000E4DB16E0B9F1010F09D14FF400702A46F2
:10228000334600905846FFF799FE029009E04FF45C
:1022900000702A463346CDE90009584600F006F89A
:1022A00002900298BDE8FE8F482100202DE9FF5FD3
:1022B00017469846DDE90E464FF00009CA464FF032
:1022C000FF35A949009808600020A849C862A848BD
:1022D0000078022805D10402780A40EAC8574FEA7C
:1022E00068280020A34988604860401E08600120DB
:1022F00048610020C86008610846FFF7CFF99B4895
:10230000406900F0007018B10E2004B0BDE8F09FE5
:10231000002C21DDB4F5006F1EDC601E2040D8B912
:10232000204601F00BFF8346934804601020924939
:102330004860402088600020C8604FF480600861D9
:102340000846FFF707FA1020FEF7DEFA8146B9F1DA
:10235000000F03D04846D8E72620D6E7012E70D9D3
:1023600006FB04F0B0F1007F01D32620CDE74FEA51
:102370000B108049886006FB04F048604FF0FF3086
:102380000860012048610220C860002008610846FA
:10239000FFF784F9784807601220774948604020A9
:1023A00088600020C8604FF4806008610846FFF72D
:1023B000D1F91220FEF7A8FA8146B9F1000F01D039
:1023C0004846A2E76D48007800287DD1FEF75AFF05
:1023D0001EE04FF40040FFF78BF9A8B14FF0000A60
:1023E00008E06248803000685F49096841F82A00C7
:1023F0000AF1010ABAF1080FF3D35B4800682030F4
:10240000594908605E4D03E00DB904207DE76D1E5B
:102410005648406B40F22A3108400028D9D00820A5
:10242000FFF766F920B10820FFF71CF904206CE7DC
:102430000220FFF75DF928B10220FFF713F902200F
:1024400063E78EE02020FFF753F920B12020FFF74B
:1024500009F9062059E74FF40070FFF749F928B150
:102460004FF40070FFF7FEF807204EE709E0FFF792
:102470006BF93D49096808603B480068001D3A490E
:1024800008604FF40010FFF733F90028EFD14FF444
:102490008070FFF72DF920B33548007838B1344803
:1024A0000078012803D032480078022819D1002092
:1024B000314908600C204860402088600020C860D6
:1024C0004FF48060086100E012E00846FFF742F92F
:1024D0000C20FEF719FA8146B9F1000F01D04846E9
:1024E00013E7FEF7D1FE40F2FF50FFF7BBF838E0EC
:1024F00022480078012834D106FB04F1002200981C
:10250000FFF752F900201F49087001201E4908708A
:1025100000201E4908701548C06B40F22A3108435C
:102520001249C8630846C06A40F00800C86200E06B
:102530006D1E1748006800F4005008B9002DF7D14F
:102540000DB90420E1E600BF1048007818B90D4825
:1025500000780028F8D00B48007810B1094890F8AE
:1025600000904846D1E60000240000200080014091
:1025700018000020B4200020A0200020200000200F
:10258000FFFF7F0022000020210000202300002008
:102590000004024010B504460948046007200849B9
:1025A0004860402088600020C8604FF48060086167
:1025B0000846FFF7CFF80720FEF7A6F910BD000088
:1025C000A020002001460020012900D011B9024BB3
:1025D000197000E026207047200000202DE9FF5FE1
:1025E00086B017469846149D00260020059004905A
:1025F000002481460390824602900195DDF818B0D0
:10260000DDF818B0BBF1000F03D126200AB0BDE8F9
:10261000F09F0020C449C862C44988604860401ED9
:102620000860012048610020C86008610846FFF783
:1026300035F8BD48406900F0007008B10E20E5E7AC
:10264000BB480078022805D10502780A40EAC8573D
:102650004FEA6828002D1FDDB5F5006F1CDC681EF1
:102660002840C8B9284601F069FD0590B1480560C9
:102670001020B0494860402088600020C8604FF4B6
:10268000806008610846FFF765F81020FEF73CF906
:1026900006461EB13046B9E72620B7E7A6480088AF
:1026A0000004A44908600D20486040208860002094
:1026B000C8604FF4806008610846FFF74BF80D20B2
:1026C000FEF722F906460EB130469FE7964840696C
:1026D00003904FF0FF341BE0641E9748008800040D
:1026E000944908600D204860402088600020C86040
:1026F0004FF4806008610846FFF72CF80D20FEF7C4
:1027000003F906460EB1304680E7874840690390DA
:10271000039800F4807008B9002CDDD10CB9292091
:1027200074E7844807601820824948604020886028
:102730000020C8604FF4806008610846FFF70AF87F
:102740001820FEF7E1F806460EB130465EE700209D
:102750007A49087005980001744988600846456008
:102760004FF0FF300860012048610020C860086118
:102770000846FEF793FF4FF0FF34714800780028B9
:102780007BD1FEF77FFD43E04FF48040FEF7B0FFC2
:10279000C8B30198A0EB0900202821D20198A0EB32
:1027A000090000F0030020B90198A0EB090080089F
:1027B00004E00198A0EB09008008401C02904FF053
:1027C000000A09E0DBF80000FEF7E8FF0AF1010A61
:1027D0000BF1040B09F1040902988245F2D30FE0D2
:1027E0004FF0000A05E05BF82A00FEF7D7FF0AF178
:1027F000010ABAF1080FF6D30BF1200B09F12009F9
:102800006FF0404404E0FFE70CB90420FEE6641ECC
:102810004548406B40F21A6108400028B4D00820B7
:10282000FEF766FF20B10820FEF71CFF0420EDE64E
:102830000220FEF75DFF20B10220FEF713FF022009
:10284000E4E61020FEF754FF20B11020FEF70AFF47
:102850000520DBE64FF40070FEF74AFF30B14FF47D
:102860000070FEF7FFFE0720D0E606E0FEF70CFD45
:1028700040F2FF502C4988633EE03148007801283F
:102880003AD1102229460698FEF78EFF00202D49E6
:1028900008702A4908702C4908702348C06B40F220
:1028A0001A3108432049C8630846C06A40F008004E
:1028B000C86200E0641E2548006800F4005008B9B2
:1028C000002CF7D11CB9FFF761F904209EE64FF008
:1028D000FF3400E0641E1C48007820B919480078D5
:1028E00008B9002CF6D10CB904208FE61548007801
:1028F00010B11448007889E640F2FF50FEF7B2FEAE
:1029000004A8FEF7C3FC064603E004A8FEF7BEFCDD
:1029100006463EB99DF810000728F6D09DF8100035
:102920000628F2D0304671E600800140B420002035
:1029300018000020A02000201C0000202100002002
:10294000200000202200002023000020000402407C
:102950002DE9FE4F81460C4692460020029000264B
:1029600025462C46700240EAD5566D0209F0030058
:10297000F0B14FF0000B18E04FF4007249461948CF
:10298000FDF7CEFC4FF4007000904FEA4B20471942
:1029900046EBE0733A461348FFF720FE029009F534
:1029A00000790BF1010000F0FF0BD345E4DB16E0EA
:1029B000BAF1010F09D14FF400702A463346009056
:1029C0004846FFF70BFE029009E04FF400702A46DC
:1029D0003346CDE9000A484600F006F80290029816
:1029E000BDE8FE8F482100202DE9FF5F84B0DDE9BE
:1029F0001247002600200390029000258046814661
:102A0000019007FB04FBDDF810A0DDF810A0BAF17F
:102A1000000F03D1262008B0BDE8F09F0020D84960
:102A2000C862D84988604860401E0860012048613B
:102A30000020C86008610846FEF730FED0484069B3
:102A400000F0007008B10E20E5E7CF4800780228BA
:102A500008D10402DDE90601400A40EAC1504912EA
:102A6000CDE90601002C1FDDB4F5006F1CDC601EF3
:102A70002040C8B9204601F061FB0390C3480460C0
:102A80001020C2494860402088600020C8604FF490
:102A9000806008610846FEF75DFE1020FDF734FFF8
:102AA00006461EB13046B6E72620B4E7012F6FD99F
:102AB00007FB04F0B0F1007F01D32620ABE7B2485A
:102AC000007838B1B0480078012803D0AE480078CB
:102AD00002282DD1AE4800880004AC490860372098
:102AE0004860402088600020C8604FF48060086122
:102AF0000846FEF72FFE3720FDF706FF06460EB10B
:102B0000304688E7A14807601720A0494860402068
:102B100088600020C8604FF4806008610846FEF7B6
:102B200019FE1720FDF7F0FE06460EB1304672E79B
:102B30009649069808601920486040208860002067
:102B4000C8604FF4806008610846FEF703FE192054
:102B5000FDF7DAFE06460EB130465CE70398000149
:102B60008849886007FB04F048604FF0FF30086038
:102B7000012048610020C86008610846FEF78EFD0C
:102B800084480078002871D1451EFEF77BFB40E0A9
:102B9000DEE07B48406B00F48040A8B3ABEB08005C
:102BA00020281ED2ABEB080000F0030018B9ABEBF5
:102BB0000800800803E0ABEB08008008401C01908F
:102BC0004FF0000909E0DAF80000FEF7E7FD09F12F
:102BD00001090AF1040A08F1040801988145F2D3B9
:102BE0000FE04FF0000905E05AF82900FEF7D6FD86
:102BF00009F10109B9F1080FF6D30AF1200A08F129
:102C000020086FF0404504E0FFE70DB9042002E71B
:102C10006D1E5B48406B40F21A3108400028B8D066
:102C20000820FEF765FD20B10820FEF71BFD0420FB
:102C3000F1E60220FEF75CFD20B10220FEF712FD56
:102C40000220E8E61020FEF753FD20B11020FEF729
:102C500009FD0520DFE64FF40070FEF749FD30B1B5
:102C60004FF40070FEF7FEFC0720D4E62CE04FF492
:102C70008070FEF73DFD00B34348007838B142480C
:102C80000078012803D040480078022815D10020A0
:102C90003E4908600C204860402088600020C860E1
:102CA0004FF4806008610846FEF754FD0C20FDF7E4
:102CB0002BFE06460EB13046ADE6FEF7E5FA40F2D1
:102CC000FF50FEF7CFFC43E03248007801283FD1A7
:102CD00007FB04F110220498FEF766FD00202E4940
:102CE000087001202D49087000202D4908702448E3
:102CF000C06B40F21A3108432149C8630846C06AD4
:102D000040F00800C8624FF0FF3500E06D1E254816
:102D1000006800F4005008B9002DF7D11DB9FEF786
:102D200035FF042077E64FF0FF3500E06D1E1C48AC
:102D3000007820B91848007808B9002DF6D10DB9EF
:102D4000042068E61448007810B11348007862E661
:102D500040F2FF50FEF786FC02A8FEF797FA0646FF
:102D600003E002A8FEF792FA06463EB99DF8080075
:102D70000728F6D09DF808000628F2D030464AE62B
:102D800000800140B420002018000020A020002076
:102D90001C00002020000020220000202100002034
:102DA00023000020000402407047000047220A4B25
:102DB0001A801A461288094B5A4392FBF0F2521EAF
:102DC000074B1A801A461288521C4A43642392FB0E
:102DD000F3F2044B1A8070477200002040420F004B
:102DE000740000207600002010B500F001F810BD3E
:102DF0000CB50020019000903348006840F480300A
:102E00003149086000BF3048006800F4003000908D
:102E10000198401C0190009818B90198B0F5A06F76
:102E2000F1D12948006800F4003010B10120009071
:102E300001E0002000900098012843D12348006859
:102E400040F01000214908600846006820F00300A7
:102E500008600846006840F0020008601A484068B0
:102E6000194948600846406848600846406840F490
:102E7000806048600846406820F47C10486008463E
:102E8000406840F4E81048600846006840F08070F0
:102E9000086000BF0C48006800F000700028F9D0FE
:102EA0000948406820F00300074948600846406828
:102EB00040F00200486000BF0348406800F00C008A
:102EC0000828F9D10CBD000000100240002002408B
:102ED0007047000010B51348006840F00100114928
:102EE000086008464068104908400E494860084696
:102EF00000680E4908400B4908600846006820F445
:102F0000802008600846406820F4FE0048604FF4C6
:102F10001F008860FFF768FF4FF0006004490860F9
:102F200010BD0000001002400000FFF8FFFFF6FE99
:102F300008ED00E0F0B50C46154600220021068C95
:102F40004FF6FE773E400684028B018C4FF60C76DE
:102F500032407E1C06EA03162E433243104EB04226
:102F60000ED0104EB0420BD0B0F1804F08D00E4EB4
:102F7000B04205D00D4EB04202D00D4EB04206D147
:102F80004FF6FD76314044F00106314305E04FF63F
:102F9000F576314044F00106314302830184F0BDEF
:102FA000002C0140003401400004004000080040B3
:102FB000000C0040F0B50C4615460022002100260A
:102FC000078C4FF6EF7C07EA0C070784028B018C15
:102FD0004FF6FF7707EA041640F6FF473A404FF6F0
:102FE000FF7707EA03373A434FF6FF7707EA0527EB
:102FF0003A43114FB8420ED0104FB8420BD0B0F147
:10300000804F08D00E4FB84205D00E4FB84202D0C4
:103010000D4FB84206D14FF6DF77394046F0100722
:10302000394305E04FF65F77394044F010073943E4
:1030300002830184F0BD0000002C014000340140F7
:103040000004004000080040000C0040F0B50C46B1
:103050001546002200210026078C4FF6FF6C07EA78
:103060000C070784828B018C4FF6FF7707EA042652
:103070004FF60C773A404FF6FF7707EA03172F43D6
:103080003A43114FB8420ED0104FB8420BD0B0F1B6
:10309000804F08D00E4FB84205D00E4FB84202D034
:1030A0000D4FB84206D14FF6FF57394046F48077AE
:1030B000394305E04FF2FF57394044F480773943F4
:1030C00082830184F0BD0000002C014000340140E7
:1030D0000004004000080040000C0040F0B50C4621
:1030E0001546002200210026078C4EF6FF7C07EAD9
:1030F0000C070784828B018C4FF6FF7707EA0436B2
:1031000040F6FF473A404FF6FF7707EA05273A4374
:103110004FF6FF7707EA03373A43114FB8420ED014
:10312000104FB8420BD0B0F1804F08D00E4FB842CC
:1031300005D00E4FB84202D00D4FB84206D14DF621
:10314000FF77394046F48057394305E047F6FF578B
:10315000394044F48057394382830184F0BD000034
:10316000002C0140003401400004004000080040F1
:10317000000C004010B53248007800F080000028B4
:1031800058D101212F4800F077F8B0B12C480078D1
:1031900000F0400088B12A48007800F03F003F2846
:1031A00006D180202649087000202749086004E0E5
:1031B00023480078401C224908700421214800F06F
:1031C0005BF858B31E48007800F0400038B31D4843
:1031D00000F04FF81D490880084600881C490988FE
:1031E00088420BDD16480078402807D11748008830
:1031F00017490988401A1449086009E014480088F2
:103200004FF6FF71081A1149098808440E490860F1
:103210000B48007840F08000094908700AE009482E
:1032200000F027F80A49088000200749086040207C
:10323000034908700521034800F00CF810BD000098
:1032400078000020000400407C0000208200002064
:1032500080000020CA430282704721B1028842F0F8
:103260000102028004E002884FF6FE731A400280D9
:1032700070470146088F704730B502460020002392
:103280000024158A05EA0103958905EA010413B1B2
:103290000CB1012000E0002030BD000070B50546F3
:1032A0000C46244885420ED0234885420BD0B5F108
:1032B000804F08D02148854205D02148854202D060
:1032C0002048854200D100E000BF208850B9238902
:1032D000A28861882846FFF72DFEE188284600F085
:1032E00092F825E0208804280AD12389A2886188E1
:1032F0002846FFF75FFEE188284600F08DF817E0CA
:10330000208808280AD12389A28861882846FFF7E7
:103310009DFEE188284600F08CF809E02389A28808
:1033200061882846FFF7DAFEE188284600F08AF82F
:1033300070BD0000002C014000340140000400403A
:1033400000080040000C00401AB183890B438381C0
:1033500002E083898B4383817047000070B50024AD
:1033600000220023058C4FF6FE7635400584028C42
:103370008388048B4FF68F752C40B51E2C400D882A
:103380002C43751E2A400D892A434D882A43144D2B
:10339000A8420BD0134DA84208D0134DA84205D027
:1033A000124DA84202D0124DA84213D14FF6F77524
:1033B0002A404D892A434FF6FB752A408D882A43BF
:1033C0004FF6FF652B404FF6FF552B408D892B4361
:1033D000CD892B4383800483CD888586028470BD8C
:1033E000002C0140003401400040014000440140F5
:1033F000004801400A460021018B4FF6F77319403F
:10340000114301837047028B4FF6F3731A40028316
:10341000028B0A4302837047028B4FF2FF331A403C
:103420000283028B4FF6FF7303EA01231A430283E0
:103430007047828B4FF6F3731A408283828B0A4364
:1034400082837047828B4FF2FF331A408283828BD4
:103450004FF6FF7303EA01231A438283704700008B
:10346000002202881D4B98420ED01D4B98420BD073
:10347000B0F1804F08D01B4B984205D01A4B9842B0
:1034800002D01A4B984204D14FF68F731A404B88E2
:103490001A43174B984207D0164B984204D04FF668
:1034A000FF431A40CB881A4302808B8883850B88A0
:1034B00003850A4B98420BD0094B984208D00E4B1B
:1034C000984205D00D4B984202D00D4B984201D145
:1034D0000B7A03860123838270470000002C014091
:1034E000003401400004004000080040000C00408F
:1034F0000010004000140040004001400044014022
:103500000048014010B54FF480510748FDF790FE88
:103510004FF400510448FDF78BFE4FF48041024800
:10352000FDF786FE10BD0000000C014010B540F212
:103530002551124800F044F8F8B1104800F0FCF8AA
:1035400004460F48B0F80004B0F5806F09D20C496A
:10355000B1F80004411C0A4BA3F8001419460C549E
:103560000BE000200649A1F80004B1F80004411C5A
:10357000034BA3F8001419460C5410BD0038014049
:103580007C0C002001F40072B2F5007F00D100BF76
:10359000CA430280704721B1828942F4005282817D
:1035A00004E082894DF6FF731A40828170471AB198
:1035B000838A0B43838202E0838A8B438382704732
:1035C00070B50246002400230025002040F66A164C
:1035D000B14200D100BFC1F3421501F01F03012623
:1035E00006FA03F3012D02D19689334006E0022D3D
:1035F00002D1168A334001E0968A33400C1201262C
:1036000006FA04F41688344013B10CB1012000E02E
:10361000002070BDF0B503460024002600250020E0
:1036200040F66A17B94200D100BF1846C1F34214F0
:1036300001F01F06012707FA06F5012C01D10C3015
:1036400004E0022C01D1103000E014301AB10768F8
:103650002F43076002E00768AF430760F0BD00003A
:103660002DE9F04786B005460E460024A24600BF6D
:10367000A1460027B08900B100BF2F462C8A4CF626
:10368000FF700440F08804432C82AC894EF6F3109E
:103690000440B08831890843718908430443AC81F0
:1036A000AC8A4FF6FF400440B0890443AC8201A8C5
:1036B000FDF700FF1F48874202D1DDF810A001E0AE
:1036C000DDF80CA0A88900F4004040B10AEBCA0064
:1036D00000EB0A1031684900B0FBF1F807E00AEB93
:1036E000CA0000EB0A1031688900B0FBF1F86420D1
:1036F000B8FBF0F004012009642101FB1089A889BE
:1037000000F4004040B1322000EBC900B0FBF1F002
:1037100000F00700044308E0322000EB09106421A8
:10372000B0FBF1F000F00F0004432C8106B0BDE8BF
:10373000F08700000038014001468888C0F3080087
:10374000704700BFFEE7000010B500200A49C8809E
:1037500008468088C988401A0749088008460088BA
:10376000002802DD0120887002E0002002498870F4
:1037700003F0C0FF10BD00000004002010B5174882
:10378000407820B900F030F80120144948701448FE
:1037900090F83900012805D1FFF7D6FF0020104925
:1037A00081F839000E4890F83A00012807D100F05E
:1037B0006BF8012803D10020094981F83A00084834
:1037C000416B406B401C064A50630648814204D955
:1037D00000F010F800200249486310BD00000020EE
:1037E00000040020A086010010B50021B12004F0E3
:1037F000F2FC10BD10B5214801680068401C1F4A4A
:103800001060642902DD00201146086000201C4978
:1038100008801C48807830B91A4800880988084414
:103820001849888010E0174800881549098888429F
:1038300007DA1448008812490988081A1149888053
:1038400002E000200F4988800C4800880D498880DC
:10385000888801F11C02083100F08AF80121B120AA
:1038600004F0B9FC0748027F00F10801B12004F020
:1038700093FC0021B12004F0AEFC10BD6C000020D0
:10388000700000200004002010B51F4890F83B0095
:10389000012807D12321B02003F0D8F900201A49CC
:1038A00081F83B00184890F83C0001282AD11648BE
:1038B00090F8312000F11D01801D00F037F801283B
:1038C0001AD11148C08810498988884209DD0E48FC
:1038D000C0880D498988401A0B49088000208870EB
:1038E00008E0094880880849C988401A06490880C4
:1038F0000120887003F0FEFE0020034981F83C009F
:10390000012010BD0020FCE700040020054840789D
:1039100030B90020044981F811050120014948709F
:1039200070470000000000204004002070B50446ED
:103930000B4615460022681EC1B214E0585C3028C0
:103940000DDB585C39280ADC02EB82004FF6FF766B
:1039500006EA4002585C3038104482B201E0002090
:1039600070BD481EC1B20029E8DA22800120F7E7C5
:103970002DE9F04105460E4617462A460AA1304673
:10398000FCF74AFC012408E095FBF4F000EB800012
:10399000400000B903E0601CC4B20A2CF4DB00BF95
:1039A0003C70BDE8F08100002564000070B504465D
:1039B0000D4600202071401EE0622946204602F09C
:1039C00055F808B1032070BD94F82E1294F82F0218
:1039D00041EA00204AF65521884201D00220F2E750
:1039E00094F86900010694F8680041EA004194F8EF
:1039F000670041EA002094F86610084320F07F40F9
:103A00000D49884201D10020DDE794F885000106C8
:103A100094F8840041EA004194F8830041EA0020D0
:103A200094F88210084320F07F400349884201D176
:103A30000020C8E70120C6E746415400024600E0E6
:103A4000521C107810B110788842F9D11078704764
:103A500070B503460D46586A021D680A1E68B6789E
:103A6000B0FBF6F400BF02CA09B9002070BD8C4259
:103A700000D202E0641A121DF5E700BF106820446E
:103A8000F4E70246891E5069801E884201D8002052
:103A900070479378906A01FB0300F9E72DE9F0473E
:103AA00005460C46207820F04000401E00EB8001C7
:103AB00001EBC00600274FF0010800BF1A48C05DA7
:103AC000205C1949C95D2144497840EA0129B8F1CF
:103AD000000F10D0484601F0C9FB8046FF2E07D2E8
:103AE0003146761C35F8110001F0C0FB404508D086
:103AF0000020BDE8F0874FF6FF70814501D000201F
:103B0000F7E7781C07460D28D8D3207800F040004E
:103B100038B1B8F1000F04D035F8160008B1002014
:103B2000E7E70120E5E70000E82F030810B50E489D
:103B300090F81405012805D100F018F800200A4972
:103B400081F81405084890F81505012809D103F0FB
:103B5000ABF90020044981F8150581F8130501200F
:103B600010BD0020FCE700004004002010B5252116
:103B7000952003F06BF82321692003F067F82321D7
:103B80006A2003F063F822216B2003F05FF8222102
:103B90006C2003F05BF821216D2003F057F82221FF
:103BA0006E2003F053F82221C52003F04FF80024C3
:103BB00036E004F1BF00232103F048F804EB440190
:103BC000490001F17000222103F040F804EB4401A8
:103BD000490001F17100222103F038F804EB44019F
:103BE000490001F17200222103F030F804EB440196
:103BF000490001F17300222103F028F804EB44018D
:103C0000490001F17400222103F020F804EB440183
:103C1000490001F17500222103F018F8601CC4B2BC
:103C2000044890F80605A042C3DC2521BB2003F020
:103C30000DF810BD4004002010B500240DE004EB89
:103C400084015F4800EB810300F57A70025D214634
:103C5000952004F015FB601CC4B25948C03890F898
:103C6000EF04A042EBDC5648C03890F807159520C9
:103C700004F0F3FA5248C03890F80815BB2004F05D
:103C8000ECFA4F48C03890F8073500F59560C25CF3
:103C9000A0F5956090F8070500EB8003484800EB1D
:103CA0008301692004F078FA4548C03890F804256B
:103CB00000F59E616A2004F06FFA4148C03890F820
:103CC00005156B2004F09AFA3D48C03890F80615A7
:103CD0006C2004F093FA3A48C03890F80E156D2025
:103CE00004F047FA3648C038B0F80C156E2004F0DE
:103CF00085FA3348C038B0F80A15C52004F07EFABA
:103D0000002456E02E4BC03B03EB44131A7D2C4B92
:103D1000C03B03EB441104F1BF0004F03DFA284A14
:103D2000C03A02EB4412517D04EB4402702303EBD2
:103D3000420004F063FA224AC03A02EB4412917D39
:103D400004EB4402712303EB420004F057FA1C4ACF
:103D5000C03A02EB4412118B04EB4402722303EBD2
:103D6000420004F04BFA164AC03A02EB4412518B5F
:103D700004EB4402732303EB420004F03FFA104AC1
:103D8000C03A02EB4412918B04EB4402742303EB20
:103D9000420004F033FA0A4AC03A02EB4412D18BD3
:103DA00004EB4402752303EB420004F027FA601C85
:103DB000C4B20348C03890F80605A042A2DC10BD8A
:103DC0000005002010B5634890F8060506287DDC44
:103DD000604890F8110500283ED1002436E004F137
:103DE000BF00002104F0F7F904EB4401490001F1A0
:103DF0007000002104F0EFF904EB4401490001F1E7
:103E00007100002104F0E7F904EB4401490001F1DD
:103E10007200002104F0DFF904EB4401490001F1D4
:103E20007300002104F0D7F904EB4401490001F1CB
:103E30007400002104F0CFF904EB4401490001F1C2
:103E40007500002104F0C7F9601CC4B2414890F825
:103E50000605A042C3DC3FE0002436E004F1BF00C9
:103E6000012104F0B8F904EB4401490001F17000AC
:103E7000012104F0B0F904EB4401490001F17100A3
:103E8000012104F0A8F904EB4401490001F172009A
:103E9000012104F0A0F904EB4401490001F1730091
:103EA000012104F098F904EB4401490001F1740088
:103EB000012104F090F904EB4401490001F175007F
:103EC000012104F088F9601CC4B200E041E02148FF
:103ED00090F80605A042C1DC1E4890F8064536E081
:103EE00004F1BF00022104F076F904EB440149001B
:103EF00001F17000022104F06EF904EB4401490065
:103F000001F17100022104F066F904EB440149005B
:103F100001F17200022104F05EF904EB4401490052
:103F200001F17300022104F056F904EB4401490049
:103F300001F17400022104F04EF904EB4401490040
:103F400001F17500022104F046F9601CC4B2062C90
:103F5000C6DB10BD4004002010B5124890F81105D2
:103F6000F8B90021BB2004F036F90021692004F0E3
:103F700032F900216A2004F02EF900216B2004F0B0
:103F80002AF900216C2004F026F900216D2004F0AC
:103F900022F900216E2004F01EF90021C52004F052
:103FA0001AF910BD4004002010B50121BB2004F017
:103FB00012F90121692004F00EF901216A2004F0B0
:103FC0000AF901216B2004F006F901216C2004F0AC
:103FD00002F901216D2004F0FEF801216E2004F0A9
:103FE000FAF80121C52004F0F6F8002436E004F1C7
:103FF000BF00012104F0EFF804EB4401490001F196
:104000007000012104F0E7F804EB4401490001F1DC
:104010007100012104F0DFF804EB4401490001F1D3
:104020007200012104F0D7F804EB4401490001F1CA
:104030007300012104F0CFF804EB4401490001F1C1
:104040007400012104F0C7F804EB4401490001F1B8
:104050007500012104F0BFF8601CC4B2024890F85A
:104060000605A042C3DC10BD4004002010B51F4867
:10407000407840B900F03EF800201D4981F8130552
:1040800001201A4948701A4890F8130540B900F009
:104090004BF80020164981F81205012081F813051C
:1040A000134890F8120528B9FFF78CFE012010493B
:1040B00081F812050E4890F81005012807D1FFF786
:1040C00035FD012803D10020094981F81005084871
:1040D00090F80F05012807D102F0A6FE0020044940
:1040E00081F8130581F80F0510BD000000000020C5
:1040F0004004002010B50B4890F8110540B902218A
:10410000962004F068F80221C62004F064F807E065
:104110000121962004F05FF80121C62004F05BF82D
:1041200010BD00004004002010B503F00DF8FFF7AB
:104130003BFFFFF781FDFFF70FFF10BD0146002099
:1041400002E04910421CD0B20129FAD170472DE992
:10415000F04704468946B9F1000F06D1E76817B168
:104160006069B84215D8012713E04946204601F09E
:1041700071FB0646022E02D20120BDE8F087701CBA
:1041800008B93046F9E76069B04201D93046F4E732
:104190004F463D4600BF6D1C6069A84204D8022509
:1041A000BD4201D90020E8E72946204601F052FB34
:1041B000064606B909E0701C08B1012E01D130464F
:1041C000DBE7BD42E7D10020D7E700BF6FF07042C8
:1041D0002946204602F050FD8046B8F1000F08D174
:1041E000B9F1000F05D02A464946204602F044FDA9
:1041F0008046B8F1000F0BD1E5602069401C78B112
:104200002069401E2061607940F00100607107E084
:10421000B8F1010F02D14FF0FF3000E00120054658
:104220002846AAE72DE9F34F83B081460498006839
:10423000019002E00198401C0190019800782F281D
:10424000F8D0019800785C28F4D0D9F81CA000259B
:104250002F4600BF38467F1C01990C5C202C03DBE5
:104260002F2C01D05C2C00D132E0FF2D03D306208F
:1042700005B0BDE8F08FE4B2812C13DBE0B2FE287C
:1042800010DC38467F1C01990E5C06EB042084B2DA
:10429000402E01DB7E2E05DD802E01DBFE2E01DDB2
:1042A0000620E5E70121204600F094FF04460CB902
:1042B0000620DDE7802C06DA214671A0FFF7BEFB61
:1042C00008B10620D4E728466D1C2AF81040C1E743
:1042D00000BF0198C11904980160202C01DA042064
:1042E00000E00020804608E0681E3AF81040202CCC
:1042F00002D02E2C00D002E06D1E002DF4D100BFA4
:104300000DB90620B4E700202AF815000B22202161
:10431000D9F8180001F0A0FB002700E07F1C3AF854
:1043200017002028FAD03AF817002E28F6D00FB13F
:1043300048F0030800E06D1E25B1681E3AF8100031
:104340002E28F8D10020064602904FF0080B00BF3F
:1043500038467F1C3AF8104004B963E0202C03D0A3
:104360002E2C04D1AF4202D048F00308F0E70298A7
:10437000584501D2AF4214D1BBF10B0F02D148F026
:1043800003084FE0AF4201D048F00308AF4200D924
:1043900048E02F46082002904FF00B0BB006060EA7
:1043A000D6E7802C09DB204600F060FF002100905A
:1043B00000F010FF044648F00208FF2C11DDABF1BD
:1043C00001000299884204D848F00308CDF808B0EB
:1043D000BEE72212D9F818300298411C02911A54F3
:1043E00019E024B1214629A0FFF728FB18B15F246A
:1043F00048F003080FE0412C04DB5A2C02DC46F0A5
:10440000020608E0612C06DB7A2C04DC46F001068B
:10441000A4F1200084B2D9F818300298411C02910E
:104420001C5495E700BFD9F818000078E52803D19F
:104430000520D9F818100870BBF1080F01D1B0069B
:10444000060E06F00C000C2803D006F0030003282B
:1044500001D148F0020808F0020058B906F0030044
:10446000012801D148F0100806F00C00042801D101
:1044700048F00808D9F8180080F80B800020F7E60B
:10448000222A3A3C3E3F7C7F000000002B2C3B3D23
:104490005B5D000010B511480021018040F26A31D7
:1044A0000F48FBF7B4FF40210E48FBF7D2FF4FF453
:1044B000A3610D48FBF7ABFF85210C48FBF7A7FF75
:1044C00044210B48FBF7A3FF10210A48FBF79FFF8D
:1044D00034210948FBF79BFF10BD000000000020BD
:1044E000940000200004002040040020580900200F
:1044F000DE090020220A0020480C00202DE9F041AE
:1045000004460E460021204600F0B7F90546EDB9F5
:10451000002700BF2169206801F0A8FA054605B10F
:1045200013E060690078E52802D06069007820B95E
:10453000781C0746B04201D107E000270121204640
:1045400000F07FF80546002DE4D000BF042D00D117
:1045500007252846BDE8F0812DE9F04704460021F3
:10456000204600F08AF9074617B13846BDE8F087C3
:104570004FF0FF09CA464FF6FF70208400BF216943
:10458000206801F073FA074607B157E065692E7895
:104590000EB9042752E0E87A00F03F08E52E05D076
:1045A00008F0080040B1B8F10F0F05D04FF0FF0937
:1045B0004FF6FF7020843AE0B8F10F0F1CD1E0698C
:1045C00078B306F0400030B195F80DA026F0400613
:1045D000B146E08820844E450AD1687B504507D11A
:1045E0002946E069FFF75AFA10B1A9F1010000E08D
:1045F000FF2000F0FF091AE0B9F1000F05D12846AD
:1046000003F078FB504500D118E0A069C07A00F0B3
:10461000010038B90B222846A16901F0FDF908B95B
:104620000CE004E04FF0FF094FF6FF7020840021FA
:10463000204600F006F80746002FA0D000BF3846FD
:1046400094E72DE9F04104468846E088461CB0B264
:1046500008B1206910B90420BDE8F08106F00F0010
:1046600000286BD12069401C2061E06828B92068CF
:104670000089B04262D80420EEE720688078401EAE
:1046800000EA1610002859D1E168206801F0E2F82C
:104690000546012D01D80220DEE7681C08B901207B
:1046A000DAE720684069A84242D8B8F1000F01D18A
:1046B0000420D1E7E1682068FFF749FD05460DB900
:1046C0000720C9E7012D01D10220C5E7681C08B900
:1046D0000120C1E7206803F081FB08B10120BBE79E
:1046E000216801F130004FF40072002101F0B4F9AB
:1046F00029462068FFF7C5F92168C86200270EE047
:10470000012021680871206803F068FB08B10120CE
:10471000A2E72068C06A401C2168C8627F1C20682C
:104720008078B842ECD82068C06AC01B2168C86293
:10473000E56029462068FFF7A4F92061E68020683B
:10474000303006F00F0100EB41106061002083E77C
:104750002DE9FE4F0446D4F81880D4F81C900C22A2
:104760004146684601F06BF900BF9DF80B0000F070
:10477000010020B3002088F80B00E06101260CE066
:1047800033464A466946404600F0FEFF2046FFF7A2
:10479000E3FE054605B102E0761C642EF0D300BFAF
:1047A000642E02D10720BDE8FE8F042D01D02846DB
:1047B000F9E79DF80B0088F80B00C4F81C909DF8F1
:1047C0000B0000F0020060B1002600E0761C39F812
:1047D00016000028FAD106F119000D21B0FBF1F7FF
:1047E00000E0012739462046FFF788FE054645BB15
:1047F000781E070025D0E088C11B204600F03DF858
:104800000546F5B9A06903F075FA824600BF216933
:10481000206801F02BF9054605B111E0FAB25346C4
:104820006169E06900F008FF01202168087100213A
:104830002046FFF706FF054615B9781E0700E6D1AA
:1048400000BFC5B92169206801F010F9054695B986
:1048500020220021606901F0FFF80B22D4E9050154
:1048600001F0EDF8A069C07A00F0180061690873E2
:10487000012021680871284695E72DE9F04104469A
:104880000E46E680A568012D03D020684069A84245
:1048900002D80220BDE8F0812DB9206800780328F5
:1048A00001D12068456A45B920680089B04201D825
:1048B0000220EFE72068476A1EE0206880784FEA10
:1048C000001812E02946206800F0C4FF0546681C65
:1048D00008B90120DEE7022D03D320684069A84211
:1048E00001D80220D6E7A6EB08064645EAD22946BB
:1048F0002068FFF7C6F80746E5600FB90220C9E750
:1049000007EB161020612068303006F00F0100EB35
:10491000411060610020BDE770B5044600251CB958
:10492000FDF734F9054601E0012500BF00BF0DB1D8
:10493000012070BD0020FCE72DE9F04706468946BE
:10494000154646BBB9F1000F09D0B9F1010F13D0DC
:10495000B9F1020F05D0B9F1030F19D106E0002417
:1049600018E04FF400702860002413E00C48B0F801
:104970005000288000240DE009484FF40072002305
:10498000D0E912713846FBF723FC2860002401E0CF
:10499000042400BF00E001242046BDE8F0870000A9
:1049A000F02000202DE9F04105460E4617461C4632
:1049B0004FF0000814B90420BDE8F08195B9E2B2C7
:1049C00039463046FDF726FC804607E0FDF7DEF865
:1049D000E2B239463046FDF71DFC8046B8F1000FC3
:1049E000F4D102E04FF0010800BF00BFB8F1000FA2
:1049F00001D10020E0E70120DEE7014600207047FA
:104A00002DE9F04105460E4617461C464FF00008BA
:104A100014B90420BDE8F08195B9E2B239463046B8
:104A2000FDF796FF804607E0FDF7B0F8E2B23946A1
:104A30003046FDF78DFF8046B8F1000FF4D102E05B
:104A40004FF0010800BF00BFB8F1000F01D10020F6
:104A5000E0E70120DEE7000010B50548407928B105
:104A600003F070FA10B100210148417110BD00003F
:104A70008020002070B504460D4640210348FEF713
:104A800081FD2946204600F02DF870BD0038014018
:104A900010B51248407900BB1048017900EB410085
:104AA0000088D0B10D4A137902EB430211880B4AFA
:104AB00012790B4B03EBC220FFF7DCFF0021074804
:104AC000027900EB4200018004480079C0F1010046
:104AD000C1B2024801710121417110BD8020002046
:104AE0008010002070B504460D4600210548FCF7F3
:104AF00009F8044844388564046501210148FCF73D
:104B000001F870BD4400024010B500240EE04FF4DF
:104B10000C71002001F0A2F8184941F82400084661
:104B200050F8240000B903E0601CC4B2022CEEDB94
:104B300000BF4FF40A71002001F090F8104908609E
:104B40004FF40A71002001F089F80E4908604FF413
:104B50000071002001F082F80B490860022C0AD194
:104B60000748006838B10748006820B10846006867
:104B700008B1002010BD0120FCE700003400002037
:104B80003C000020400000204C00002070B505468D
:104B9000284600F0D1F9044634B9284603F0CEFA8D
:104BA00004460CB900202860204670BDF7B582B0DD
:104BB00016460398019001A800F0C7FE0546002D97
:104BC00002DA0B2005B0F0BD0E4850F825400CB1BC
:104BD00000202070029810B1002002990870094945
:104BE000029841F82500029808B1012E01D000205A
:104BF000E8E7002203A902A800F054FB0746384664
:104C0000E0E70000280000202DE9F7478DB00546B9
:104C100016461DB9092010B0BDE8F08700202860B5
:104C200006F01F0626F001020EA904A800F03AFBC8
:104C30000746002F73D14FF4007000F009FB814646
:104C4000B9F1000F01D11120E5E7CDF82C9001A8B2
:104C50000A9004A80E9900F02FFD0746099C0FB991
:104C600004B9062706F01C00002851D04FB1042FCC
:104C700003D104A8FFF76CFD074646F00806099C1F
:104C800009E0E07A00F0110008B1072703E006F020
:104C9000040000B10827002F4AD106F008000028C0
:104CA00046D000F050FE804684F80E804FEA18216E
:104CB000E1734FEA184121744FEA186161740020D2
:104CC000E072207700216177A177E177214604988F
:104CD00000F08CFE82460021204603F003F80120FC
:104CE00004990871BAF1000F22D00498D0F82C80F2
:104CF0005146049802F061F80746CFB9AAF10100C5
:104D00000499C8604146049800F0B0FE07460FE0E1
:104D100077B9E07A00F0100010B1042708E031E024
:104D200006F0020020B1E07A00F0010000B1072790
:104D300047B906F0080008B146F020060498C06A9A
:104D4000E8612C62484600F08AFADFB9AE710020B3
:104D5000E8712146049800F049FE2861E07F0106D1
:104D6000A07F41EA0041607F41EA0020217F0843A3
:104D7000E8600020A860A86168620498286028683C
:104D8000C088A880384646E72DE9FF4F83B0044627
:104D900015469A46DDF810B00020CAF800002046FB
:104DA00003F0CCF90290029818B1029807B0BDE860
:104DB000F08FE07908B1E079F8E7A07900F0010020
:104DC00008B90720F2E7D4E90210401A00900098D1
:104DD000854200D9009DAAE02089C0F30800002880
:104DE00076D120688078401EA16800EA512000F04A
:104DF000FF09B9F1000F1FD1A06810B92069019017
:104E00000CE0606A28B12046A168FEF721FE0190FF
:104E100004E06169206800F01DFD019001980228FE
:104E200002D20220E071C1E70198401C10B90120B4
:104E3000E071BBE70198606161692068FEF721FEBF
:104E4000064616B90220E071B0E74E444FEA5528F5
:104E5000B8F1000F29D009EB080021688978884251
:104E600003D920688078A0EB090821684878434678
:104E700032465946FFF796FD10B10120E07195E7E3
:104E8000A07900F0400068B1A069801B404509D2BC
:104E9000A169891B0BEB41204FF4007204F128013A
:104EA00000F0CDFD4FEA482737E0A069B04220D09E
:104EB000A07900F0400080B121684878012304F116
:104EC0002801A269FFF79CFD18B10120E0716DE790
:104ED00010E0A07920F04000A071216848780123FB
:104EE000324604F12801FFF75DFD10B10120E071A9
:104EF0005CE7A6612089C0F30800C0F50077AF42E7
:104F000000D92F462089C0F3080204F128001118A7
:104F10003A46584600F093FD00BFBB44A0683844B1
:104F2000A060DAF800003844CAF80000ED1B002D3C
:104F30007FF452AF002039E72DE9F04104462046C6
:104F400003F0FCF80746002F4CD1A07900F02000B8
:104F5000002847D0A07900F0400078B12168487857
:104F6000012304F12801A269FFF74AFD10B10120D5
:104F7000BDE8F081A07920F04000A071E1692068CF
:104F800000F074FD0746002F2CD1256AE87A40F026
:104F90002000E872207B2877A089010A6977E06801
:104FA000010CA977E068010EE9772846216902F033
:104FB00099FE00F0C8FC0646AE75310AE975310C61
:104FC0002976310E69760020A8740021E974A07951
:104FD00020F02000A071012021680871206802F0F3
:104FE00099FE07463846C3E72DE9FF4F83B00446D4
:104FF00015469B46049801900020CBF800002046FF
:1050000003F09CF80290029818B1029807B0BDE82E
:10501000F08FE07908B1E079F8E7A07900F00200BC
:1050200008B90720F2E7A0682844A168884200D2A6
:105030000025BEE02089C0F3080000287DD120684B
:105040008078401EA16800EA512000F0FF0ABAF102
:10505000000F26D1A06838B9276997B900212068C8
:10506000FFF775F807460CE0606A28B12046A16892
:10507000FEF7EEFC074604E061692068FFF767F879
:10508000074607B998E0012F02D10220E071BDE781
:10509000781C10B90120E071B8E76761206900B998
:1050A0002761A07900F0400078B121684878012399
:1050B00004F12801A269FFF7A3FC10B10120E071FF
:1050C000A4E7A07920F04000A07161692068FEF794
:1050D000D8FC064616B90220E07197E756444FEA1D
:1050E0005529B9F1000F2CD00AEB09002168897805
:1050F000884203D920688078A0EB0A0921684878A3
:105100004B4632460199FFF77BFC10B10120E0715C
:105110007CE7A069801B48450ED2A069801B019ADC
:1051200002EB40214FF4007204F1280000F087FCEC
:10513000A07920F04000A07100E016E04FEA492875
:105140002AE0A069B0420FD0D4E9020188420BD214
:10515000216848780123324604F12801FFF722FC38
:1051600010B10120E07151E7A6612089C0F3080069
:10517000C0F50078A84500D9A8462189C1F30802E6
:1051800004F1280150184246019900F058FCA0791A
:1051900040F04000A07100BF019840440190A06819
:1051A0004044A060DBF800004044CBF80000A5EBD1
:1051B0000805002D7FF43EAF00BFD4E9020188420C
:1051C00001D9A068E060A07940F02000A071002023
:1051D0001CE700002DE9F04102460F46802A01DA63
:1051E00010462FE01FB1184B45F2205602E0174B36
:1051F00045F220560025102416E0A6EB050C0CEB1A
:10520000DC7805EB68014FEA410C33F81CC094458B
:1052100000D10BE04FEA410C33F81CC0944501DA91
:105220000D4600E00E46641E002CE6D100BF34B1EE
:105230004FF0010C0CEB410C33F81CC001E04FF0B7
:10524000000C6046BDE8F081A4D701082083000867
:1052500010B504462146002000F000FD10BD10B539
:1052600004462146002000F0E7FC10BD0246002164
:1052700000E0491C094830F8110020B1074830F817
:1052800011009042F5D1054830F8110018B10448DA
:1052900030F8110070471046FCE70000282C030886
:1052A000082E03082DE9F74F8AB000210A98016003
:1052B0000B9800F04AFB09900998002803DA0B20AC
:1052C0000DB0BDE8F08FD849099851F820400CB9CD
:1052D0000C20F5E70A980460207878B16078FFF731
:1052E0008CFB814609F0010040B90C9820B109F00F
:1052F000040008B10A20E3E70020E1E70020207065
:10530000099860706078FFF707FB814609F001009B
:1053100008B10320D4E70C9820B109F0040008B1CB
:105320000A20CDE7002739462046FEF73FFB054619
:10533000012D01D09DBB32E000261AE004F5F77084
:1053400000EB061898F8040070B198F80B000106FD
:1053500098F80A0041EA004198F8090041EA002063
:1053600098F80810084300E0002002A941F8260040
:10537000761C042EE2D3002606B1761E00BF02A8DA
:1053800050F8267027B139462046FEF70FFB00E0A3
:10539000022005461DB1701C06460428EFD3032DDC
:1053A00001D101208CE70DB10D2089E73B20015D83
:1053B00094F83C0041EA0020B0F5007F01D00D20B8
:1053C0007EE74620015D94F8470041EA002ABAF1E1
:1053D000000F0ED194F85700010694F8560041EAE8
:1053E000004194F8550041EA002094F8541040EA36
:1053F000010AC4F818A04020005DE070E0780128A0
:1054000004D0E078022801D00D2059E7E0780AFBAB
:1054100000FA3D20005DA070A07818B1A078411E70
:10542000084008B10D204BE74120015D94F842008F
:1054300041EA00202081207A00F00F0008B10D2001
:105440003EE74320015D94F8440041EA00200890C3
:10545000089870B994F85300010694F8520041EA94
:10546000004194F8510041EA002094F8501008439C
:1054700008903E20015D94F83F0041EA0020019031
:10548000019808B90D201BE701985044218900EBD1
:1054900011100790DDE90701814201D20D200FE7CD
:1054A000DDE90710401AA178B0FBF1FBBBF1000F5A
:1054B00001D10D2004E7012540F6F670834500D3A5
:1054C00002254FF6F670834500D303250BF1020049
:1054D0006061E76101983844206207983844A0620F
:1054E000032D16D1208908B10D20E9E694F85F005C
:1054F000010694F85E0041EA004194F85D0041EA3B
:10550000002094F85C100843606260698000069097
:1055100014E0208908B90D20D2E6206A5044606268
:10552000022D02D16069400007E0207D00F00100FB
:10553000616901EB410100EB51000690A1690698F9
:1055400000F2FF10B1EB502F01D20D20B8E64FF062
:10555000FF302061E06080206071032D5AD194F803
:10556000601094F8610041EA0020012852D1791CB2
:10557000204600F07BFAE8BB0020607194F82E1200
:1055800094F82F0241EA00204AF65521884241D181
:105590003320005D01063220005D41EA00413120E8
:1055A000005D41EA002094F8301008431F4988420A
:1055B00030D194F81702010694F8160241EA00412E
:1055C00094F8150241EA002094F81412084318498F
:1055D00088421FD194F81B02010694F81A0241EA8E
:1055E000004194F8190241EA002094F81812084387
:1055F000206100E00EE094F81F02010694F81E02FC
:1056000041EA004194F81D0241EA002094F81C127E
:105610000843E060257007480088401C80B20549B7
:105620000880E08000204BE62800002052526141B3
:105630007272416130000020F0B504461D464D7382
:105640000F27CF7200270F738F76BC4681F81BC0DF
:10565000571E07EB870C0CEBC706002738463B4666
:1056600000BF4FF6FF77B84203D03746761C34F8B8
:105670001700DFF840C01CF803C001F80C00071247
:10568000DFF830C01CF803C08C448CF8017008B9F6
:105690004FF6FF705F1C3B460D2FE2D34FF6FF77AE
:1056A000B84202D034F816700FB942F040020A70C6
:1056B000F0BD0000E82F03082DE9F34104460198EE
:1056C00000782F2803D0019800785C2802D1019837
:1056D000401C01900020A06001980078202807D28B
:1056E00000212046FFF7C9F805460020606128E048
:1056F00000BF01A92046FEF795FD054605B11FE054
:105700002046FEF729FF0546A069C67A3DB1042D63
:1057100004D100BF06F0040000B9052510E006F032
:10572000040000B10CE06769F87A00F0100008B9D5
:10573000052505E03946206800F058F9A060D8E753
:1057400000BF2846BDE8FC8170B504460D465520D3
:10575000207065700021A81C2154002609E0A81CB7
:10576000215CB01C205C0844C1B2A81C2154701CF0
:10577000C6B2AE42F3DBAA21E81C2154291D204603
:1057800002F08EFC70BD00002DE9FF4F83B007468C
:1057900091461E460B223846049900F050F9052E1A
:1057A00019D9B04612E039F802BB00250CE0584682
:1057B00068F35F0080464FEA6B0B08F4803010B14D
:1057C000234888EA00086D1C102DF0D3B9F80000BA
:1057D0000028E8D14646072500BF06F00F0000F17B
:1057E000300ABAF1390F03DD0AF1070000F0FF0AB1
:1057F00028466D1E01A901F800A03609002EECD143
:105800007E20485500240BE0385D812807DB385D99
:10581000FE2804DC681EA04200D106E0641C641C63
:10582000AC4202D2385D2028EED100BF00BF082D67
:1058300004D228466D1C01A9095C00E02021204605
:10584000641C3954082CF2D307B0BDE8F08F000077
:10585000211001002DE9F04705460C46022C02D329
:105860006869A04202D84FF0010969E04FF0FF39A2
:105870002878012804D002282ED003285CD13FE0EC
:10588000274607EB5707286A00EB5721284600F008
:10589000EDF800B153E038467F1CC0F3080105F174
:1058A000300010F80180286A00EB5721284600F0EC
:1058B000DDF800B143E0C7F3080105F13000405CBA
:1058C00048EA002804F0010010B14FEA181001E086
:1058D000C8F30B00814632E0286A00EB1421284609
:1058E00000F0C4F800B12AE040F2FF1000EA4401E1
:1058F00005F130000E183078717840EA01291EE079
:10590000286A00EBD411284600F0B0F800B116E088
:1059100040F2FF1000EA840105F130000E18F07823
:105920000006B17840EA0140717840EA0120317800
:10593000084320F0704902E04FF0010900BF00BFAA
:105940004846BDE8F0870020704770B502464FF02A
:10595000FF301568E5B1116800E0491C0D78202D75
:1059600002D30D783A2DF8D10D783A2D0FD1146865
:1059700014F8015BA5F130030A2B07D28C4205D144
:10598000022B03D218464D1C2946156070BD00201D
:1059900000BFFBE70948B0F81002084AB2F812222B
:1059A000811A002908DA0548B0F81202C0F1040093
:1059B000024AB2F810228118C8B27047340A002097
:1059C0000948B0F80004084AB2F80224811A0029F4
:1059D00008DA0548B0F80204C0F58060024AB2F85F
:1059E0000024811888B270477C0C002010B5024654
:1059F0008C7ECB7E44EA03201378032B05D10C7DEB
:105A00004B7D44EA032340EA034010BD02F01BFA39
:105A100000BF02F00CFAFCE7F0B503461C460D4649
:105A2000002000BF1600A2F1010207D014F8017B8C
:105A300015F801CBA7EB0C063000F3D0F0BD70B524
:105A400003460C4603E014F8015B03F8015B150004
:105A5000A2F10102F7D170BD30B5034601E003F8B1
:105A6000011B1400A2F10102F9D130BD70B504464A
:105A70000D460026E06AA84210D0204602F0AEF99A
:105A800006465EB9607801232A4604F13001FEF72C
:105A900089FF10B14FF0FF350126E562304670BD39
:105AA0002DE9F04104460E461548005D38B914480A
:105AB00018380168204688470120BDE8F081114868
:105AC00050F82400B04219D90F4850F82400B6FB12
:105AD000F0F10B48083850F8240030F81120002568
