:020000040800F2
:1000000080C7002089010008BD0C0008AB0B000868
:10001000B90C0008F7040008BF2900080000000020
:100020000000000000000000000000004D26000855
:10003000F508000800000000450D000839270008F9
:10004000A3010008A3010008A3010008A301000800
:10005000A3010008A3010008A3010008A3010008F0
:10006000A3010008A3010008A3010008A3010008E0
:10007000A3010008A3010008F5060008A301000879
:10008000A3010008A3010008A3010008A3010008C0
:10009000A3010008A3010008A3010008A3010008B0
:1000A000A3010008A3010008A3010008A3010008A0
:1000B000A3010008A3010008A3010008A301000890
:1000C000A3010008A3010008A3010008A301000880
:1000D000A30100089D270008A3010008A301000850
:1000E000A3010008A3010008A301000800F002F822
:1000F00000F03AF80AA090E8000C82448344AAF188
:100100000107DA4501D100F02FF8AFF2090EBAE885
:100110000F0013F0010F18BFFB1A43F0010318473B
:10012000BC0B0300DC0B0300103A24BF78C878C175
:10013000FAD8520724BF30C830C144BF04680C60ED
:10014000704700000023002400250026103A28BF35
:1001500078C1FBD8520728BF30C148BF0B60704739
:100160001FB51FBD10B510BD00F08CF91146FFF78B
:10017000F7FF04F05DF900F0AAF903B4FFF7F2FF0E
:1001800003BC00F0B1F90000094880470948004766
:10019000FEE7FEE7FEE7FEE7FEE7FEE7FEE7FEE737
:1001A000FEE7FEE704480549054A064B7047000094
:1001B0003D270008ED00000880C1002080C7002016
:1001C00080C3002080C3002010B54C1084EA530483
:1001D00004D54042C1F1000138BF491E1B4204D57D
:1001E0005242C3F1000338BF5B1E00F0D4F814F094
:1001F000804F04D04042C1F1000138BF491E14F0C5
:10020000004F04D05242C3F1000338BF5B1E10BD43
:10021000032A40F2308010F0030C00F0158011F832
:10022000013BBCF1020F624498BF11F801CB00F80A
:10023000013B38BF11F8013BA2F1040298BF00F85E
:1002400001CB38BF00F8013B11F0030300F025801B
:10025000083AC0F0088051F8043B083A51F804CB42
:10026000A0E80810F5E7121D5CBF51F8043B40F808
:10027000043BAFF30080D20724BF11F8013B11F813
:1002800001CB48BF11F8012B24BF00F8013B00F857
:1002900001CB48BF00F8012B704710B5203AC0F0E1
:1002A0000B80B1E81850203AA0E81850B1E8185077
:1002B000A0E81850BFF4F5AF5FEA027C24BFB1E8B4
:1002C0001850A0E8185044BF18C918C0BDE8104025
:1002D0005FEA827C24BF51F8043B40F8043B08BF2E
:1002E0007047D20728BF31F8023B48BF11F8012BF5
:1002F00028BF20F8023B48BF00F8012B70474FF0A1
:1003000000020429C0F0128010F0030C00F01B80E2
:10031000CCF1040CBCF1020F18BF00F8012BA8BFF0
:1003200020F8022BA1EB0C0100F00DB85FEAC17CB4
:1003300024BF00F8012B00F8012B48BF00F8012B67
:1003400070474FF0000200B5134694469646203998
:1003500022BFA0E80C50A0E80C50B1F12001BFF47E
:10036000F7AF090728BFA0E80C5048BF0CC05DF8E4
:1003700004EB890028BF40F8042B08BF704748BF32
:1003800020F8022B11F0804F18BF00F8012B7047A6
:1003900070477047704753EA020C00F069802DE9FE
:1003A000F04B4FF00006002B1FBFB3FA83F503FAA2
:1003B00005F424FA05F65E4012BF1643B2FA82F540
:1003C00002FA05F4C5F120051EBF22FA05FC44EA35
:1003D0000C04203556EA044C4FEA144418BF641C40
:1003E0004FF000084FF00009904271EB030C39D335
:1003F000002919BFB1FA81F701FA07F6B0FA80F7C0
:1004000000FA07F6C7F120071EBF20FA07FC46EAEC
:100410000C062037B6FBF4FCA7EB0507103F07F0EE
:100420001F0BCBF120060CFA0BFB2CFA06F644BF8F
:10043000B3460026202FA4BF5E464FF0000B5BEAB8
:10044000060C08BF4FF0010B19EB0B09ABFB027C4C
:1004500048EB0608C01B06FB02CC0BFB03CC71EB80
:100460000C01C1E70B46024641464846BDE8F08B09
:1004700013B54FF000004FF00001AFF30080BDE86E
:100480001C407047754600F02BF8AE4605006946E3
:10049000534620F00700854618B020B5FFF782FECE
:1004A000BDE820404FF000064FF000074FF0000875
:1004B0004FF0000B21F00701AC46ACE8C009ACE8F6
:1004C000C009ACE8C009ACE8C0098D46704710B55A
:1004D0000446AFF300802046BDE81040FFF74DBE54
:1004E0000048704720C1002001491820ABBEFEE73C
:1004F00026000200704700BFFEE770B500254FF4EC
:10050000803404E0802000F045FD00B103E0201EAF
:10051000A4F10104F6D100BF0CB9032070BD40F274
:10052000FF5000F0F1FC2846F8E7000070B50446E3
:1005300005E01548456B05F0450000B100E0F8E71F
:1005400000BF042000F026FD20B1042000F0DCFCF8
:10055000032070BD012000F01DFD20B1012000F03E
:10056000D3FC0120F5E708480069A04201D0102023
:10057000EFE740F2FF5004498863084640690821CC
:100580000840C0B2E5E700000080014070B50026D9
:100590004FF4803505E01148446B04F0450000B18C
:1005A00003E0281EA5F10105F5D100BF15B104F047
:1005B000040028B10326042000F0A6FC304670BDDC
:1005C000012000F0E7FC18B10126012000F09CFC9E
:1005D00040F2FF5000F098FC3046F0E70080014008
:1005E00010B505E00B48446B04F0450000B100E095
:1005F000F8E700BF042000F0CDFC20B1042000F09B
:1006000083FC032010BD40F2FF5000F07DFC002071
:10061000F8E70000008001402DE9F04105460E4654
:100620004FF0000805E01F48476B07F0450000B198
:1006300000E0F8E700BF042000F0ACFC28B1042083
:1006400000F062FC0320BDE8F081012000F0A2FC74
:1006500020B1012000F058FC0120F4E711480069A6
:10066000A84201D01020EEE740F2FF5000F04CFC11
:100670000C48446904F4604018B9200C30804046AE
:10068000E1E704F4005008B11320DCE704F48040F3
:1006900008B11020D7E704F4004008B10F20D2E7DA
:1006A0004046D0E70080014070B500264FF4803509
:1006B00005E00F48446B04F0450000B103E0281E3C
:1006C000A5F10105F5D100BF15B104F0040028B172
:1006D0000326042000F018FC304670BD04F04000F2
:1006E00018B10026402000F00FFC3046F5E700006E
:1006F0000080014010B54FF4005000F007F80021D1
:10070000014800F011F810BD4400024000F0805193
:1007100011B10349086001E00249486070470000D8
:10072000040402400000024021B1026842F00102CC
:10073000026004E002684FF6FE731A4002607047E0
:1007400001684FF6FE7211400160002101604160B6
:100750008160C1604B49884208D14A4908394968DB
:1007600041F00F01474A083A51608AE04549143187
:10077000884208D143490839496841F0F001414AAB
:10078000083A51607DE03F492831884208D13D490F
:100790000839496841F470613A4A083A516070E09A
:1007A00038493C31884208D136490839496841F412
:1007B0007041344A083A516063E03249503188420E
:1007C00008D130490839496841F470212D4A083A66
:1007D000516056E02B496431884208D129490839D3
:1007E000496841F47001274A083A516049E02549B7
:1007F0007831884208D123490839496841F070614D
:10080000204A083A51603CE01F49884206D1011F46
:10081000096841F00F01021F116032E01A491431DA
:10082000884208D11849091F096841F0F001164AA9
:10083000121F116025E014492831884208D112495D
:10084000091F096841F470610F4A121F116018E016
:100850000D493C31884208D10B49091F096841F410
:100860007041094A121F11600BE00749503188425C
:1008700007D10549091F096841F47021024A121F76
:100880001160704708000240080402400146002041
:10089000002201F0805313B1054B1A6801E0054BAB
:1008A0001A6802EA01030BB1012000E00020704742
:1008B000000402400000024010B50022026847F622
:1008C000F0739A430C6A8B6823430C6923434C6989
:1008D00023438C692343CC6923434C6A23438C6AAA
:1008E00023431A430260CB6843600B6883604B6804
:1008F000C36010BD704700002DE9FC4107460D465E
:100900000026002400200090019008205B49086028
:1009100010204860402088600020C8604FF480604C
:100920000861084600F068FB1020FFF7FFFD044651
:1009300014B12046BDE8FC815148008800044F49AD
:10094000086037204860402088600020C8604FF46D
:1009500080600861084600F04FFB3720FFF7E6FD96
:1009600004460CB12046E5E74FF0FF3045490860EA
:1009700008204860302088600220C860002008619C
:1009800001204861084600F0DBFA00203B4908607E
:1009900033204860402088600020C8604FF48060A9
:1009A0000861084600F028FB3320FFF7BFFD04462E
:1009B0000CB12046BEE70CE04FF4001000F0EAFA5C
:1009C00038B100F013FB4DF82600761C022E00D340
:1009D00006E02D48406B40F22A6108400028EBD029
:1009E00000BF082000F0D6FA20B1082000F08CFAF1
:1009F00004209FE7022000F0CDFA20B1022000F091
:100A000083FA022096E7202000F0C4FA20B12020CB
:100A100000F07AFA06208DE74FF4007000F0BAFA81
:100A200028B14FF4007000F06FFA072082E740F21F
:100A3000FF5000F069FA00980006009901F47F4128
:100A400040EA0120009901F47F0140EA1120009959
:100A500040EA1160686001980006019901F47F4145
:100A600040EA0120019901F47F0140EA1120019937
:100A700040EA1160286020465CE700007014002006
:100A80001C00002084140020008001402DE9F0416A
:100A9000024600250026002000230024002791F8AC
:100AA00003C00CF00F0591F803C00CF0100CBCF162
:100AB000000F03D091F802C04CEA050591F800C080
:100AC000BCF1000F31D0146800202BE04FF0010C76
:100AD0000CFA00F3B1F800C00CEA03069E4220D1E4
:100AE00083004FF00F0C0CFA03F7BC4305FA03FC2C
:100AF0004CEA040491F803C0BCF1280F06D14FF072
:100B0000010C0CFA00FCC2F814C00AE091F803C012
:100B1000BCF1480F05D14FF0010C0CFA00FCC2F8F3
:100B200010C0401C0828D1D31460B1F800C0BCF13B
:100B3000FF0F34DD546800202EE000F1080C4FF068
:100B4000010808FA0CF3B1F800C00CEA03069E4253
:100B500021D183004FF00F0C0CFA03F7BC4305FAC8
:100B600003FC4CEA040491F803C0BCF1280F05D142
:100B700000F1080C08FA0CF8C2F8148091F803C0D0
:100B8000BCF1480F07D100F1080C4FF0010808FA3A
:100B90000CF8C2F81080401C0828CED35460BDE881
:100BA000F081416170470161704700BFFEE772B696
:100BB000704762B6704700001CB5044600200190E3
:100BC0000090214800880004204908600D204860FA
:100BD000402088600020C8604FF4806008610846AB
:100BE00000F00AFA1A48406B009002E01848406B87
:100BF0000090009800F045000028F7D0012000F098
:100C0000C9F920B1012000F07FF901201CBD0420AA
:100C100000F0C0F920B1042000F076F90320F5E7D8
:100C20000B4800690D2801D01020EFE740F2FF507B
:100C300000F06AF90648406901900198C0F343202A
:100C400020700020E2E700001C000020701400204B
:100C50000080014008B50121402000F085F82020E7
:100C6000ADF8000010208DF8030003208DF802007D
:100C700069460F48FFF70AFF20210E48FFF793FF50
:100C80004020ADF8000069460948FFF7FFFE40210B
:100C90000748FFF788FF1020ADF8000069460448B8
:100CA000FFF7F4FE10210248FFF77BFF08BD0000AC
:100CB00000180140000C014000BFFEE77047000033
:100CC00070B5002100230F22C47804B3154C2468AA
:100CD00004F4E064C4F5E064210AC1F10403CA40ED
:100CE000447804FA03F184781440214309010E4C3E
:100CF0000678A155047804F01F050124AC4005785E
:100D00006D11AD0005F1E025C5F8004109E004785A
:100D100004F01F050124AC40044D0678761145F817
:100D2000264070BD0CED00E000E400E080E100E052
:100D300002490143024A1160704700000000FA05B1
:100D40000CED00E07047000029B1064A52690243E9
:100D5000044B5A6104E0034A52698243014B5A61D1
:100D6000704700000010024029B1064A9269024310
:100D7000044B9A6104E0034A92698243014B9A61F1
:100D8000704700000010024030B50021002200240E
:100D900000232D4D6D6805F00C0121B1042905D00B
:100DA000082923D105E0294D056022E0274D056083
:100DB0001FE0254D6D6805F47012234D6D6805F434
:100DC0008034022505EB92421CB9214D5543056044
:100DD0000BE01D4D6D6805F400351DB11C4D5543EC
:100DE000056002E0194D5543056002E0174D0560AE
:100DF00000BF00BF144D6D6805F0F0010909154DE5
:100E00006B5C0568DD4045600F4D6D6805F4E06181
:100E1000090A104D6B5C4568DD4085600A4D6D68C0
:100E200005F46051C90A0B4D6B5C4568DD40C56037
:100E3000054D6D6805F44041890B074D6B5CC56835
:100E4000B5FBF3F5056130BD0010024000127A00D9
:100E500000093D0001000020110000207CB505467E
:100E6000002400200090019000260DB1022600E031
:100E700000262248406900F0007008B10E207CBDB9
:100E80001F49098888B26946FFF736FD04460CB150
:100E90002046F4E7019800F4802060B318480088E9
:100EA000000418490860372048604020886000200E
:100EB000C8604FF480600861084600F09DF8372054
:100EC000FFF734FB04460CB12046D8E70D48066016
:100ED00006200C494860402088600020C8604FF41C
:100EE00080600861084600F087F80620FFF71EFBC7
:100EF00004462046C3E72520C1E7000000800140EA
:100F00001C00002070140020014988637047000015
:100F1000008001400149086070470000A000304295
:100F20000146034A506820F0FF00084350607047B4
:100F30000080014001490860704700008C05304284
:100F400000210A4B02685A6242689A621A46D16AC4
:100F500021F0F701D0E902231A4303691A434369D8
:100F60001A431143014AD1627047000000800140DA
:100F700000200649086048608860C860486288624E
:100F8000C862034888630020C8637047008001403E
:100F9000FF07C00001460020034A526B0A400AB115
:100FA000012000E0002070470080014002480068F6
:100FB00000F00300704700000080014000210A4A51
:100FC000516847F6FF629143027D83681A43436884
:100FD0001A43C3681A4303681A4303691A43114347
:100FE000014A5160704700000080014001480068DC
:100FF00070470000808001400021094B02689A6020
:101000001A46D1686FF30A01D0E901231A43C36875
:101010001A4303691A431143014AD1607047000023
:10102000008001400549096821F00301034A11606D
:1010300011460968014311607047000000800140BB
:1010400001490860704700008080014070B58CB095
:1010500006460C46154601210220FFF775FE13488F
:10106000FFF76EFB00211148FFF75EFB104801906F
:1010700002960395A0080490002005908020069019
:101080008000079080000890002009904FF40050E5
:101090000A9000200B9001A90448FFF70DFC0021E5
:1010A0000248FFF741FB0CB070BD00004404024051
:1010B0008080014070B5044600251648007803285A
:1010C00001D1272070BD1348007838B1114800784D
:1010D000012803D00F480078022818D1022C01D330
:1010E0002720EFE7E0B2FFF7B9FE05467DB90A48D1
:1010F000406820F4C0500849486008464068A1B2E2
:1011000040EAC120044948600846406848602846D3
:10111000D8E700001800002000800140F0B501462B
:1011200000200022BE4B1B7881F85630BD4B1B8837
:10113000A1F85430BC4B1B681A0E93090B70C2F314
:1011400083034B7002F003038B70B74B1B68C3F330
:101150000742CA70B44B1B88C3F307220A71B24B13
:101160001A784A715B681A0E1301CB80AE4B5B682C
:10117000C3F30742CB8843EA1213CB8002F00F037C
:101180000B72A94B9B88C3F30722D3094B72C2F39E
:1011900080138B72C2F34013CB72C2F300130B7334
:1011A00000234B739E4B1B783BB19D4B1B78012B4F
:1011B00003D09B4B1B78032B4FD193071B0D0B6167
:1011C000994B1A790B6943EA82030B61964B9B6832
:1011D0001A0E0B6943EA92130B61C2F3C2030B753B
:1011E00002F007034B75904B9B68C3F3074253090A
:1011F0008B75C2F38203CB7593075B0F0B768A4B1B
:101200001B89C3F307220B7E43EAD2130B760B69CB
:101210005B1C0024C1E912340B7E9B1C012404FAE0
:1012200003F3DC17D1E91256A5FB037C06FB03C3CD
:1012300005FB0433C1E912730C7A0123A3400B654B
:101240000024D1E912650B6DA6FB037C05FB03C3EB
:1012500006FB0433C1E912732EE0714B1B78022B9D
:101260002AD1714B1A7993069B0A0B616E4B9B68CE
:101270001A0E0B6943EA02230B616B4B9B68C3F3A5
:1012800007420B6913430B61674B1B89C3F30722AA
:101290000B695B1C4FF40074A3FB04464FF480639E
:1012A0000025A4FB037C06FB03C304FB0533C1E953
:1012B00012734FF400730B65C2F3801301F8193FEA
:1012C00093065B0E4B70584B1A7A4B7843EAD21355
:1012D0004B7002F07F038B70534BDB681A0ED309FF
:1012E000CB70C2F341130B71C2F382034B719307AE
:1012F0001B0F8B714C4BDB68C3F307428B7943EABE
:1013000092138B71C2F34013CB7100230B7202F066
:1013100001034B72444B9B89C3F30722D3098B72A1
:10132000C2F38013CB72C2F340130B73C2F30013EA
:101330004B73C2F381038B7302F00303CB733A4BFD
:101340001A7B53080B7401234B74384B1B681A0E1D
:10135000CA741939354B1B68C3F307421402CC8594
:10136000324B1B88C3F30722CB8D1343CB852F4B06
:101370001A7814060C635B681A0E0B6B43EA02447E
:101380000C632A4B5B68C3F307420B6B43EA0224EE
:101390000C63264B9B88C3F307220B6B13430B6331
:1013A000224B1A7934235A54204B9B681A0E35234A
:1013B0005A541E4B9B68C3F3074214068C631B4BA5
:1013C0001B89C3F307228B6B43EA02448C63174BE0
:1013D0001A7A8B6B43EA02248C63144BDB681A0E77
:1013E0008B6B13438B63114BDB68C3F307423C23C6
:1013F0005B5C43EA12143C235C5413071C0DCC873E
:101400000A4B9B89C3F30722CB8F1343CB87074B30
:101410001A7B540840235C54012441235C54F0BDE2
:10142000180000201C0000209C140020AC14002098
:101430007CB50025002401213020FFF795FC012117
:1014400040F20240FFF780FC4FF4F850ADF8000086
:1014500018208DF8030003208DF8020069463048FB
:10146000FFF714FB0420ADF8000018208DF80300EE
:1014700003208DF8020069462A48FFF707FB802009
:10148000ADF8000048208DF8030003208DF802001D
:1014900069462448FFF7FAFAFFF76AFD31208DF814
:1014A000040000208DF805008DF8060001208DF85D
:1014B000070001A8FFF704FC00F0E4F8044614B9A3
:1014C00000F036F804461CB91748FFF727FE04461B
:1014D00034B91549B1F85410080400F0ADFC0446C5
:1014E0001CB90120FFF7E6FD04461CB10F48007847
:1014F000032812D10C4890F8560020B10A4890F801
:101500005600012801D10A2500E004252846FFF7EE
:1015100007FD002000F0A8FC044620467CBD00002A
:101520000010014000140140C014002018000020E9
:1015300038B5002401200090FFF738FD08B92520B8
:1015400038BD4A480078042821D000204849086066
:1015500002204860C02088600020C8604FF480608E
:1015600008610846FFF748FDFFF710F804460CB184
:101570002046E5E73F4840693F4908603D488069AB
:1015800048603C48C06988603A48006AC86037488B
:10159000007858B135480078012807D033480078E2
:1015A000062803D031480078022816D1002030499F
:1015B000086003204860402088600020C8604FF425
:1015C000806008610846FFF717FD69460320FFF7B2
:1015D00023F804460CB12046B2E7244800780328DB
:1015E00016D1BDF8000000042149086003204860BE
:1015F000402088600020C8604FF480600861084681
:10160000FFF7FAFCFEF7C2FF04460CB1204697E74D
:1016100016480078042827D0BDF800001749086054
:10162000BDF8000000041249086009204860C0208D
:1016300088600020C8604FF4806008610846FFF7AA
:10164000DBFCFEF7A3FF04460CB1204678E709480F
:1016500040690B4908600748806948600548C069CF
:1016600088600448006AC860002069E7180000200C
:101670007014002000800140AC1400201C000020E9
:101680009C1400202DE9F0470027002400260025A7
:10169000A046A146B2206C49087500200860486049
:1016A0008860C86008610846FFF788FC0320FFF7E0
:1016B000B9FC0120FFF72EFC00BF12E000206349B7
:1016C000086048608860C8604FF480600861084620
:1016D000FFF792FCFEF711FF044604B903E0781C03
:1016E000C7B24A2FEADB00BF14B12046BDE8F0873D
:1016F0004FF4D57055490860082048604020886044
:101700000020C8604FF4806008610846FFF774FC51
:10171000FEF7CAFF044624B901204D4908704FF076
:10172000804900204949086037204860402088608F
:101730000020C8604FF4806008610846FFF75CFC39
:101740003720FEF7F3FE0446002C4BD134E0002096
:101750003E49086037204860402088600020C8600B
:101760004FF4806008610846FFF746FC3720FEF71B
:10177000DDFE04460CB12046B8E7364849EA0000D1
:101780003249086029204860402088600020C860F5
:101790004FF4806008610846FFF72EFCFEF720FF3B
:1017A00004460CB12046A1E72B484669012080EA97
:1017B000D67080F001086D1CB8F1000F03D14FF610
:1017C000FF708542C3D34FF6FF70854202D31B24BE
:1017D00020468BE706F08040061E32D002201C49CE
:1017E00008702EE01CE01D48184908600120486080
:1017F000402088600020C8604FF48060086108467F
:10180000FFF7FAFBFEF7ECFE04460CB120466DE74D
:1018100011484669012080EAD67080F001086D1CED
:10182000B8F1000F03D14FF6FF708542DBD34FF6BE
:10183000FF70854202D31B24204657E7032004494A
:101840000870204652E70000581400207014002051
:101850001800002000001080008001400080FF8000
:101860002DE9F84F8146174698460A9C4FF0000A2A
:10187000D3464D464FF0FF36B9F1000F02D1262076
:10188000BDE8F88F00208249C862824800780228AB
:1018900005D10402780A40EAC8574FEA68280020B8
:1018A0007D4988604860401E086001204861002032
:1018B000C86008610846FFF743FB7548406900F0BF
:1018C000007008B10E20DBE7002C21DDB4F5006FBD
:1018D0001EDC601E2040D8B9204601F033F900908C
:1018E0006E48046010206D494860402088600020E8
:1018F000C8604FF4806008610846FFF77DFB102048
:10190000FEF714FE8246BAF1000F03D05046B7E747
:101910002620B5E7009800015F49886008464460CA
:101920004FF0FF300860012048610220C8600020AD
:1019300008610846FFF704FB584807601120574923
:101940004860402088600020C8604FF480600861D3
:101950000846FFF751FB1120FEF7E8FD8246BAF179
:10196000000F01D050468BE74D48007800285AD12F
:10197000FFF71DF918E04FF40040FFF70BFB78B1BB
:101980004FF0000B06E042488030006845F82B001D
:101990000BF1010BBBF1080FF5D32035414E03E0ED
:1019A0000EB904206CE7761E3948406B40F22A617C
:1019B00008400028DFD00820FFF7ECFA20B108200B
:1019C000FFF7A2FA04205BE70220FFF7E3FA20B159
:1019D0000220FFF799FA022052E72020FFF7DAFAF7
:1019E00020B12020FFF790FA062049E74FF400705D
:1019F000FFF7D0FA28B14FF40070FFF785FA0720FF
:101A00003EE703E0FFF7F2FA28602D1D4FF40010C7
:101A1000FFF7C0FA0028F5D1FFF7CBF840F2FF50EE
:101A2000FFF772FA31E01E48007801282DD100221C
:101A300021464846FFF70AFB00201B4908701B4956
:101A400008701B4908701248C06B40F22A310843E5
:101A50000F49C8630120FFF76DFA00E0761E1548B4
:101A6000006800F4005038B91148007820B90E48D9
:101A7000007808B9002EF1D10EB9042000E70A4819
:101A8000007810B1084890F800A05046F8E6000031
:101A900000800140180000208414002070140020F1
:101AA00020000020FFFF7F002200002021000020F6
:101AB00023000020000402402DE9FE4F83460C461F
:101AC000914600200290002625462C46700240EAEE
:101AD000D5566D020BF00300F0B14FF0000A18E08C
:101AE0004FF4007000904FEA4A20471946EBE0732C
:101AF0003A461648FFF7B4FE02904FF400721349BD
:101B00005846FEF785FB0BF5007B0AF1010000F05B
:101B1000FF0ACA45E4DB16E0B9F1010F09D14FF421
:101B200000702A46334600905846FFF799FE02900F
:101B300009E04FF400702A463346CDE900095846C3
:101B400000F006F802900298BDE8FE8F18150020FC
:101B50002DE9FF5F17469846DDE90E464FF0000974
:101B6000CA464FF0FF35A949009808600020A849EF
:101B7000C862A8480078022805D10402780A40EA21
:101B8000C8574FEA68280020A34988604860401E73
:101B90000860012048610020C86008610846FFF71E
:101BA000CFF99B48406900F0007018B10E2004B0D6
:101BB000BDE8F09F002C21DDB4F5006F1EDC601E37
:101BC0002040D8B9204600F0BDFF8346934804600A
:101BD000102092494860402088600020C8604FF47F
:101BE000806008610846FFF707FA1020FEF79EFCA8
:101BF0008146B9F1000F03D04846D8E72620D6E742
:101C0000012E70D906FB04F0B0F1007F01D326202D
:101C1000CDE74FEA0B108049886006FB04F048606E
:101C20004FF0FF300860012048610220C8600020AA
:101C300008610846FFF784F9784807601220774961
:101C40004860402088600020C8604FF480600861D0
:101C50000846FFF7D1F91220FEF768FC8146B9F17A
:101C6000000F01D04846A2E76D48007800287DD1DA
:101C7000FEF79DFF1EE04FF40040FFF78BF9A8B17F
:101C80004FF0000A08E06248803000685F49096848
:101C900041F82A000AF1010ABAF1080FF3D35B48B0
:101CA00000682030594908605E4D03E00DB90420FA
:101CB0007DE76D1E5648406B40F22A3108400028EF
:101CC000D9D00820FFF766F920B10820FFF71CF9EA
:101CD00004206CE70220FFF75DF928B10220FFF72E
:101CE00013F9022063E78EE02020FFF753F920B1BB
:101CF0002020FFF709F9062059E74FF40070FFF79D
:101D000049F928B14FF40070FFF7FEF807204EE7BD
:101D100009E0FFF76BF93D49096808603B48006836
:101D2000001D3A4908604FF40010FFF733F900280E
:101D3000EFD14FF48070FFF72DF920B335480078CC
:101D400038B134480078012803D03248007802289E
:101D500019D10020314908600C204860402088607B
:101D60000020C8604FF48060086100E012E008467F
:101D7000FFF742F90C20FEF7D9FB8146B9F1000FBD
:101D800001D0484613E7FEF714FF40F2FF50FFF77B
:101D9000BBF838E022480078012834D106FB04F172
:101DA00000220098FFF752F900201F490870012017
:101DB0001E49087000201E4908701548C06B40F28B
:101DC0002A3108431249C8630846C06A40F0080037
:101DD000C86200E06D1E1748006800F4005008B9A2
:101DE000002DF7D10DB90420E1E600BF10480078BE
:101DF00018B90D4800780028F8D00B48007810B1C9
:101E0000094890F800904846D1E6000024000020E0
:101E1000008001401800002084140020701400206D
:101E200020000020FFFF7F00220000202100002072
:101E3000230000200004024010B504460948046055
:101E4000072008494860402088600020C8604FF49F
:101E5000806008610846FFF7CFF80720FEF766FBB1
:101E600010BD00007014002001460020012900D0A0
:101E700011B9024B197000E02620704720000020A5
:101E80002DE9FF5F86B017469846149D0026002076
:101E900005900490002481460390824602900195AB
:101EA000DDF818B0DDF818B0BBF1000F03D1262023
:101EB0000AB0BDE8F09F0020C449C862C4498860E8
:101EC0004860401E0860012048610020C860086129
:101ED0000846FFF735F8BD48406900F0007008B1CA
:101EE0000E20E5E7BB480078022805D10502780AF4
:101EF00040EAC8574FEA6828002D1FDDB5F5006F8E
:101F00001CDC681E2840C8B9284600F01BFE05905E
:101F1000B14805601020B04948604020886000202A
:101F2000C8604FF4806008610846FFF765F810202C
:101F3000FEF7FCFA06461EB13046B9E72620B7E7A1
:101F4000A64800880004A44908600D20486040208D
:101F500088600020C8604FF4806008610846FFF781
:101F60004BF80D20FEF7E2FA06460EB130469FE729
:101F70009648406903904FF0FF341BE0641E974879
:101F800000880004944908600D2048604020886063
:101F90000020C8604FF4806008610846FFF72CF805
:101FA0000D20FEF7C3FA06460EB1304680E787489B
:101FB00040690390039800F4807008B9002CDDD1CB
:101FC0000CB9292074E784480760182082494860CA
:101FD000402088600020C8604FF480600861084697
:101FE000FFF70AF81820FEF7A1FA06460EB13046B0
:101FF0005EE700207A4908700598000174498860FE
:10200000084645604FF0FF3008600120486100201D
:10201000C86008610846FEF793FF4FF0FF3471482F
:10202000007800287BD1FEF7C2FD43E04FF48040EA
:10203000FEF7B0FFC8B30198A0EB0900202821D219
:102040000198A0EB090000F0030020B90198A0EB73
:102050000900800804E00198A0EB09008008401CFA
:1020600002904FF0000A09E0DBF80000FEF7E8FFFD
:102070000AF1010A0BF1040B09F1040902988245E7
:10208000F2D30FE04FF0000A05E05BF82A00FEF7FC
:10209000D7FF0AF1010ABAF1080FF6D30BF1200BB2
:1020A00009F120096FF0404404E0FFE70CB9042077
:1020B000FEE6641E4548406B40F21A610840002865
:1020C000B4D00820FEF766FF20B10820FEF71CFF01
:1020D0000420EDE60220FEF75DFF20B10220FEF7AE
:1020E00013FF0220E4E61020FEF754FF20B1102079
:1020F000FEF70AFF0520DBE64FF40070FEF74AFF0B
:1021000030B14FF40070FEF7FFFE0720D0E606E086
:10211000FEF74FFD40F2FF502C4988633EE0314806
:10212000007801283AD1102229460698FEF78EFF42
:1021300000202D4908702A4908702C49087023484E
:10214000C06B40F21A3108432049C8630846C06A90
:1021500040F00800C86200E0641E2548006800F4F2
:10216000005008B9002CF7D11CB9FFF761F9042021
:102170009EE64FF0FF3400E0641E1C48007820B952
:102180001948007808B9002CF6D10CB904208FE664
:102190001548007810B11448007889E640F2FF50E5
:1021A000FEF7B2FE04A8FEF707FD064603E004A80A
:1021B000FEF702FD06463EB99DF810000728F6D04E
:1021C0009DF810000628F2D0304671E600800140EC
:1021D0008414002018000020701400201C0000202F
:1021E00021000020200000202200002023000020E9
:1021F000000402402DE9FE4F81460C469246002025
:102200000290002625462C46700240EAD5566D0203
:1022100009F00300F0B14FF0000B18E04FF400722A
:1022200049461948FDF7F4FF4FF4007000904FEA5B
:102230004B20471946EBE0733A461348FFF720FE60
:10224000029009F500790BF1010000F0FF0BD34576
:10225000E4DB16E0BAF1010F09D14FF400702A4611
:10226000334600904846FFF70BFE029009E04FF41A
:1022700000702A463346CDE9000A484600F006F8C9
:1022800002900298BDE8FE8F181500202DE9FF5F2F
:1022900084B0DDE91247002600200390029000255B
:1022A00080468146019007FB04FBDDF810A0DDF8B5
:1022B00010A0BAF1000F03D1262008B0BDE8F09FAE
:1022C0000020D849C862D84988604860401E08602C
:1022D000012048610020C86008610846FEF730FE12
:1022E000D048406900F0007008B10E20E5E7CF4803
:1022F0000078022808D10402DDE90601400A40EA1C
:10230000C1504912CDE90601002C1FDDB4F5006F64
:102310001CDC601E2040C8B9204600F013FC03906E
:10232000C34804601020C2494860402088600020F3
:10233000C8604FF4806008610846FEF75DFE10201B
:10234000FEF7F4F806461EB13046B6E72620B4E79D
:10235000012F6FD907FB04F0B0F1007F01D32620D5
:10236000ABE7B248007838B1B0480078012803D014
:10237000AE48007802282DD1AE4800880004AC4950
:10238000086037204860402088600020C8604FF413
:10239000806008610846FEF72FFE3720FEF7C6F87A
:1023A00006460EB1304688E7A14807601720A049CD
:1023B0004860402088600020C8604FF48060086159
:1023C0000846FEF719FE1720FEF7B0F806460EB1D4
:1023D000304672E796490698086019204860402008
:1023E00088600020C8604FF4806008610846FEF7EE
:1023F00003FE1920FEF79AF806460EB130465CE758
:10240000039800018849886007FB04F048604FF09A
:10241000FF300860012048610020C860086108465C
:10242000FEF78EFD84480078002871D1451EFEF726
:10243000BEFB40E0DEE07B48406B00F48040A8B388
:10244000ABEB080020281ED2ABEB080000F0030025
:1024500018B9ABEB0800800803E0ABEB080080087C
:10246000401C01904FF0000909E0DAF80000FEF787
:10247000E7FD09F101090AF1040A08F104080198CD
:102480008145F2D30FE04FF0000905E05AF829002A
:10249000FEF7D6FD09F10109B9F1080FF6D30AF1EB
:1024A000200A08F120086FF0404504E0FFE70DB96D
:1024B000042002E76D1E5B48406B40F21A31084071
:1024C0000028B8D00820FEF765FD20B10820FEF7EF
:1024D0001BFD0420F1E60220FEF75CFD20B1022086
:1024E000FEF712FD0220E8E61020FEF753FD20B1B2
:1024F0001020FEF709FD0520DFE64FF40070FEF71F
:1025000049FD30B14FF40070FEF7FEFC0720D4E621
:102510002CE04FF48070FEF73DFD00B34348007897
:1025200038B142480078012803D04048007802289A
:1025300015D100203E4908600C204860402088608A
:102540000020C8604FF4806008610846FEF754FD23
:102550000C20FDF7EBFF06460EB13046ADE6FEF768
:1025600028FB40F2FF50FEF7CFFC43E032480078F2
:1025700001283FD107FB04F110220498FEF766FD05
:1025800000202E49087001202D49087000202D4997
:1025900008702448C06B40F21A3108432149C863CF
:1025A0000846C06A40F00800C8624FF0FF3500E0FE
:1025B0006D1E2548006800F4005008B9002DF7D1C1
:1025C0001DB9FEF735FF042077E64FF0FF3500E038
:1025D0006D1E1C48007820B91848007808B9002DF5
:1025E000F6D10DB9042068E61448007810B11348FC
:1025F000007862E640F2FF50FEF786FC02A8FEF784
:10260000DBFA064603E002A8FEF7D6FA06463EB914
:102610009DF808000728F6D09DF808000628F2D09B
:1026200030464AE600800140841400201800002053
:10263000701400201C000020200000202200002038
:10264000210000202300002000040240704710B544
:1026500000F002F810BD00000CB5002001900090C1
:102660003348006840F480303149086000BF30488A
:10267000006800F4003000900198401C0190009820
:1026800018B90198B0F5A06FF1D12948006800F49D
:10269000003010B10120009001E00020009000986F
:1026A000012843D12348006840F010002149086008
:1026B0000846006820F0030008600846006840F003
:1026C000020008601A484068194948600846406896
:1026D00048600846406840F48060486008464068AA
:1026E00020F47C1048600846406840F4E8104860D8
:1026F0000846006840F08070086000BF0C48006821
:1027000000F000700028F9D00948406820F003006C
:10271000074948600846406840F00200486000BF32
:102720000348406800F00C000828F9D10CBD0000F7
:1027300000100240002002407047000010B513480E
:10274000006840F0010011490860084640681049DF
:1027500008400E494860084600680E4908400B4989
:1027600008600846006820F4802008600846406839
:1027700020F4FE0048604FF41F008860FFF767FFF9
:102780004FF000600449086010BD000000100240D6
:102790000000FFF8FFFFF6FE08ED00E010B540F284
:1027A0002551154800F04AF820B3134800F002F90B
:1027B00004461248B0F80004B0F5806F0BD20F4801
:1027C000B0F80024B0F80004401C0C4BA3F800043F
:1027D000184684540EE000200849A1F80004084679
:1027E000B0F80024B0F80004401C0B46A3F8000425
:1027F0000846845410BD0000003801404C0C0020F5
:1028000001F40072B2F5007F00D100BFCA4302801C
:10281000704721B1828942F40052828104E08289AA
:102820004DF6FF731A40828170471AB1838A0B43B9
:10283000838202E0838A8B438382704770B50246AD
:10284000002400230025002040F66A16B14200D182
:1028500000BFC1F3421501F01F03012606FA03F37E
:10286000012D02D19689334006E0022D02D1168A4D
:10287000334001E0968A33400C12012606FA04F434
:102880001688344013B10CB1012000E0002070BD67
:10289000F0B50346002400260025002040F66A1704
:1028A000B94200D100BF1846C1F3421401F01F061F
:1028B000012707FA06F5012C01D10C3004E0022CA7
:1028C00001D1103000E014301AB107682F430760BF
:1028D00002E00768AF430760F0BD00002DE9F04754
:1028E00086B005460E460024A24600BFA14600273A
:1028F000B08900B100BF2F462C8A4CF6FF7004400F
:10290000F08804432C82AC894EF6F3100440B08862
:1029100031890843718908430443AC81AC8A4FF67E
:10292000FF400440B0890443AC8201A8FEF72CFAB2
:102930001F48874202D1DDF810A001E0DDF80CA0AD
:10294000A88900F4004040B10AEBCA0000EB0A106D
:1029500031684900B0FBF1F807E00AEBCA0000EB70
:102960000A1031688900B0FBF1F86420B8FBF0F080
:1029700004012009642101FB1089A88900F40040AA
:1029800040B1322000EBC900B0FBF1F000F00700CD
:10299000044308E0322000EB09106421B0FBF1F0A1
:1029A00000F00F0004432C8106B0BDE8F087000062
:1029B0000038014001468888C0F30800704700BF16
:1029C000FEE7000070B504460D4600202071401E51
:1029D000E0622946204601F05BFD08B1032070BD8E
:1029E00094F82E1294F82F0241EA00204AF655215D
:1029F000884201D00220F2E794F86900010694F8B9
:102A0000680041EA004194F8670041EA002094F828
:102A10006610084320F07F400D49884201D1002014
:102A2000DDE794F88500010694F8840041EA00414E
:102A300094F8830041EA002094F88210084320F0C3
:102A40007F400349884201D10020C8E70120C6E742
:102A500046415400024600E0521C107810B1107834
:102A60008842F9D11078704770B503460D46586A10
:102A7000021D680A1E68B678B0FBF6F400BF02CAF1
:102A800009B9002070BD8C4200D202E0641A121D08
:102A9000F5E700BF10682044F4E70246891E50693C
:102AA000801E884201D8002070479378906A01FB0D
:102AB0000300F9E72DE9F04705460C46207820F0A1
:102AC0004000401E00EB800101EBC00600274FF0E4
:102AD000010800BF1A48C05D205C1949C95D214446
:102AE000497840EA0129B8F1000F10D0484601F0BA
:102AF000CFF88046FF2E07D23146761C35F81100FC
:102B000001F0C6F8404508D00020BDE8F0874FF638
:102B1000FF70814501D00020F7E7781C07460D289B
:102B2000D8D3207800F0400038B1B8F1000F04D0BD
:102B300035F8160008B10020E7E70120E5E70000BE
:102B4000880C03080146002002E04910421CD0B264
:102B50000129FAD170472DE9F04704468946B9F1B9
:102B6000000F06D1E76817B16069B84215D8012790
:102B700013E04946204601F07FFB0646022E02D2B2
:102B80000120BDE8F087701C08B93046F9E760699C
:102B9000B04201D93046F4E74F463D4600BF6D1CB8
:102BA0006069A84204D80225BD4201D90020E8E7A7
:102BB0002946204601F060FB064606B909E0701C74
:102BC00008B1012E01D13046DBE7BD42E7D100203C
:102BD000D7E700BF6FF070422946204602F05CFB49
:102BE0008046B8F1000F08D1B9F1000F05D02A4690
:102BF0004946204602F050FB8046B8F1000F0BD149
:102C0000E5602069401C78B12069401E2061607930
:102C100040F00100607107E0B8F1010F02D14FF000
:102C2000FF3000E0012005462846AAE72DE9F34FD2
:102C300083B0814604980068019002E00198401C2E
:102C40000190019800782F28F8D0019800785C282E
:102C5000F4D0D9F81CA000252F4600BF38467F1CB1
:102C600001990C5C202C03DB2F2C01D05C2C00D1B3
:102C700032E0FF2D03D3062005B0BDE8F08FE4B2AB
:102C8000812C13DBE0B2FE2810DC38467F1C019952
:102C90000E5C06EB042084B2402E01DB7E2E05DDA7
:102CA000802E01DBFE2E01DD0620E5E70121204616
:102CB00000F0A2FF04460CB90620DDE7802C06DAFE
:102CC000214671A0FFF7C6FE08B10620D4E72846CA
:102CD0006D1C2AF81040C1E700BF0198C119049883
:102CE0000160202C01DA042000E00020804608E08A
:102CF000681E3AF81040202C02D02E2C00D002E0A2
:102D00006D1E002DF4D100BF0DB90620B4E70020E0
:102D10002AF815000B222021D9F8180001F0AEFB8B
:102D2000002700E07F1C3AF817002028FAD03AF874
:102D300017002E28F6D00FB148F0030800E06D1EF2
:102D400025B1681E3AF810002E28F8D1002006465A
:102D500002904FF0080B00BF38467F1C3AF8104035
:102D600004B963E0202C03D02E2C04D1AF4202D052
:102D700048F00308F0E70298584501D2AF4214D159
:102D8000BBF10B0F02D148F003084FE0AF4201D076
:102D900048F00308AF4200D948E02F4608200290CF
:102DA0004FF00B0BB006060ED6E7802C09DB204651
:102DB00000F06EFF0021009000F01EFF044648F076
:102DC0000208FF2C11DDABF101000299884204D802
:102DD00048F00308CDF808B0BEE72212D9F8183041
:102DE0000298411C02911A5419E024B1214629A0ED
:102DF000FFF730FE18B15F2448F003080FE0412CC4
:102E000004DB5A2C02DC46F0020608E0612C06DBEB
:102E10007A2C04DC46F00106A4F1200084B2D9F833
:102E200018300298411C02911C5495E700BFD9F854
:102E300018000078E52803D10520D9F8181008708B
:102E4000BBF1080F01D1B006060E06F00C000C28ED
:102E500003D006F00300032801D148F0020808F06F
:102E6000020058B906F00300012801D148F010080B
:102E700006F00C00042801D148F00808D9F8180021
:102E800080F80B800020F7E6222A3A3C3E3F7C7F08
:102E9000000000002B2C3B3D5B5D000010B511488D
:102EA0000021017040F26A310F48FDF728FA5621DF
:102EB0000E48FDF724FA40F202510D48FDF71FFAC3
:102EC00081210C48FDF71BFA44210B48FDF717FA46
:102ED00010210A48FDF713FA34210948FDF70FFACB
:102EE00010BD0000000000206C000020D603002070
:102EF0002C0400202E090020B0090020F409002035
:102F0000180C00202DE9F04104460E460021204611
:102F100000F0B7F90546EDB9002700BF2169206828
:102F200001F0B6FA054605B113E060690078E528BE
:102F300002D06069007820B9781C0746B04201D100
:102F400007E000270121204600F07FF80546002D0C
:102F5000E4D000BF042D00D107252846BDE8F0814C
:102F60002DE9F04704460021204600F08AF9074683
:102F700017B13846BDE8F0874FF0FF09CA464FF653
:102F8000FF70208400BF2169206801F081FA0746A4
:102F900007B157E065692E780EB9042752E0E87A48
:102FA00000F03F08E52E05D008F0080040B1B8F168
:102FB0000F0F05D04FF0FF094FF6FF7020843AE065
:102FC000B8F10F0F1CD1E06978B306F0400030B1C2
:102FD00095F80DA026F04006B146E08820844E45C5
:102FE0000AD1687B504507D12946E069FFF762FDA9
:102FF00010B1A9F1010000E0FF2000F0FF091AE084
:10300000B9F1000F05D1284602F01EFD504500D150
:1030100018E0A069C07A00F0010038B90B222846F8
:10302000A16901F00BFA08B90CE004E04FF0FF09C8
:103030004FF6FF7020840021204600F006F8074676
:10304000002FA0D000BF384694E72DE9F041044698
:103050008846E088461CB0B208B1206910B9042047
:10306000BDE8F08106F00F0000286BD12069401CFC
:103070002061E06828B920680089B04262D8042045
:10308000EEE720688078401E00EA1610002859D12B
:10309000E168206801F0F0F80546012D01D8022012
:1030A000DEE7681C08B90120DAE720684069A84219
:1030B00042D8B8F1000F01D10420D1E7E1682068BF
:1030C000FFF749FD05460DB90720C9E7012D01D1DC
:1030D0000220C5E7681C08B90120C1E7206802F09A
:1030E00027FD08B10120BBE7216801F130004FF452
:1030F0000072002101F0C2F929462068FFF7CDFCDB
:103100002168C86200270EE001202168087120684C
:1031100002F00EFD08B10120A2E72068C06A401C41
:103120002168C8627F1C20688078B842ECD820688B
:10313000C06AC01B2168C862E56029462068FFF7A5
:10314000ACFC2061E6802068303006F00F0100EB17
:1031500041106061002083E72DE9FE4F0446D4F85A
:103160001880D4F81C900C224146684601F079F989
:1031700000BF9DF80B0000F0010020B3002088F88C
:103180000B00E06101260CE033464A4669464046A2
:1031900001F00CF82046FFF7E3FE054605B102E01A
:1031A000761C642EF0D300BF642E02D10720BDE848
:1031B000FE8F042D01D02846F9E79DF80B0088F812
:1031C0000B00C4F81C909DF80B0000F0020060B1E9
:1031D000002600E0761C39F816000028FAD106F126
:1031E00019000D21B0FBF1F700E001273946204618
:1031F000FFF788FE054645BB781E071E25D0E088F0
:10320000C11B204600F03DF80546F5B9A06902F063
:103210001BFC824600BF2169206801F039F9054690
:1032200005B111E0FAB253466169E06900F016FF9A
:1032300001202168087100212046FFF706FF05469E
:1032400015B9781E071EE6D100BFC5B921692068EF
:1032500001F01EF9054695B920220021606901F0B0
:103260000DF90B22D4E9050101F0FBF8A069C07A41
:1032700000F0180061690873012021680871284670
:1032800095E72DE9F04104460E46E680A568012D3C
:1032900003D020684069A84202D80220BDE8F0812E
:1032A0002DB920680078032801D12068456A45B906
:1032B00020680089B04201D80220EFE72068476A01
:1032C0001EE0206880784FEA001812E02946206846
:1032D00000F0D2FF0546681C08B90120DEE7022D88
:1032E00003D320684069A84201D80220D6E7A6EBA4
:1032F00008064645EAD229462068FFF7CEFB074676
:10330000E5600FB90220C9E707EB161020612068BD
:10331000303006F00F0100EB411060610020BDE786
:1033200070B5044600251CB9FEF782F8054601E099
:10333000012500BF00BF0DB1012070BD0020FCE7DA
:103340002DE9F04706468946154646BBB9F1000F00
:1033500009D0B9F1010F13D0B9F1020F05D0B9F1BD
:10336000030F19D106E0002418E04FF40070286024
:10337000002413E00C48B0F85000288000240DE031
:1033800009484FF400720023D0E912713846FCF767
:103390001BFF2860002401E0042400BF00E001249A
:1033A0002046BDE8F0870000C01400202DE9F04160
:1033B00005460E4617461C464FF0000814B9042077
:1033C000BDE8F08195B9E2B239463046FEF774FBAC
:1033D000804607E0FEF72CF8E2B239463046FEF7A9
:1033E0006BFB8046B8F1000FF4D102E04FF001080A
:1033F00000BF00BFB8F1000F01D10020E0E70120BD
:10340000DEE70146002070472DE9F04105460E46F3
:1034100017461C464FF0000814B90420BDE8F0819F
:1034200095B9E2B239463046FEF7E4FE804607E041
:10343000FDF7FEFFE2B239463046FEF7DBFE80467E
:10344000B8F1000FF4D102E04FF0010800BF00BF57
:10345000B8F1000F01D10020E0E70120DEE7000015
:1034600010B5064890F8050430B102F011FC18B10F
:103470000020024981F8050410BD00005010002012
:1034800070B504460D4640210348FFF7B9F92946B7
:10349000204600F039F870BD0038014010B51948D9
:1034A00090F8050460BB174890F8041400F580609C
:1034B00000EB4100008818B3124A92F8043402F578
:1034C000806202EB430211880E4A92F804240D4BED
:1034D00003EB4220FFF7D4FF00210A4890F80424B0
:1034E00000F5806000EB42000180064890F804047B
:1034F000C0F10100034981F80404012081F80504AA
:1035000010BD00005010002070B504460D4600218B
:103510000548FDF709F9044844388564046501212C
:103520000148FDF701F970BD4400024010B50024C8
:103530000EE04FF40C71002001F0A2F8184941F898
:103540002400084650F8240000B903E0601CC4B20F
:10355000022CEEDB00BF4FF40A71002001F090F85E
:10356000104908604FF40A71002001F089F80E49F3
:1035700008604FF40071002001F082F80B490860E8
:10358000022C0AD10748006838B10748006820B10A
:103590000846006808B1002010BD0120FCE70000CB
:1035A000340000203C000020400000204C0000209F
:1035B00070B50546284600F0D1F9044634B92846CE
:1035C00002F07EFC04460CB900202860204670BD45
:1035D000F7B582B016460398019001A800F0C7FE27
:1035E0000546002D02DA0B2005B0F0BD0E4850F85C
:1035F00025400CB100202070029810B100200299E3
:1036000008700949029841F82500029808B1012E76
:1036100001D00020E8E7002203A902A800F054FB33
:1036200007463846E0E70000280000202DE9F7476C
:103630008DB0054616461DB9092010B0BDE8F087CB
:103640000020286006F01F0626F001020EA904A83B
:1036500000F03AFB0746002F73D14FF4007000F0E2
:1036600009FB8146B9F1000F01D11120E5E7CDF842
:103670002C9001A80A9004A80E9900F02FFD07468F
:10368000099C0FB904B9062706F01C00002851D088
:103690004FB1042F03D104A8FFF75EFD074646F0A3
:1036A0000806099C09E0E07A00F0110008B107273C
:1036B00003E006F0040000B10827002F4AD106F00D
:1036C0000800002846D000F050FE804684F80E80A6
:1036D0004FEA1821E1734FEA184121744FEA18614B
:1036E00061740020E072207700216177A177E17793
:1036F0002146049800F08CFE82460021204602F00C
:103700009BF9012004990871BAF1000F22D00498A6
:10371000D0F82C805146049801F05FFE0746CFB9DF
:10372000AAF101000499C8604146049800F0B0FE77
:1037300007460FE077B9E07A00F0100010B10427D7
:1037400008E031E006F0020020B1E07A00F001006C
:1037500000B1072747B906F0080008B146F0200677
:103760000498C06AE8612C62484600F08AFADFB922
:10377000AE710020E8712146049800F049FE2861EE
:10378000E07F0106A07F41EA0041607F41EA00201E
:10379000217F0843E8600020A860A861686204985F
:1037A00028602868C088A880384646E72DE9FF4F82
:1037B00083B0044615469A46DDF810B00020CAF8DA
:1037C0000000204602F07CFB0290029818B102989B
:1037D00007B0BDE8F08FE07908B1E079F8E7A079AB
:1037E00000F0010008B90720F2E7D4E90210401AFE
:1037F00000900098854200D9009DAAE02089C0F37E
:103800000800002876D120688078401EA16800EA70
:10381000512000F0FF09B9F1000F1FD1A06810B9C5
:10382000206901900CE0606A28B12046A168FFF78A
:103830001BF9019004E06169206800F01DFD019012
:103840000198022802D20220E071C1E70198401CD1
:1038500010B90120E071BBE70198606161692068DF
:10386000FFF71BF9064616B90220E071B0E74E4497
:103870004FEA5528B8F1000F29D009EB080021685C
:103880008978884203D920688078A0EB09082168EC
:103890004878434632465946FFF788FD10B101206B
:1038A000E07195E7A07900F0400068B1A069801B45
:1038B000404509D2A169891B0BEB41204FF40072EE
:1038C00004F1280100F0CDFD4FEA482737E0A06958
:1038D000B04220D0A07900F0400080B12168487843
:1038E000012304F12801A269FFF78EFD18B1012020
:1038F000E0716DE710E0A07920F04000A071216830
:1039000048780123324604F12801FFF74FFD10B13A
:103910000120E0715CE7A6612089C0F30800C0F5D2
:103920000077AF4200D92F462089C0F3080204F186
:10393000280011183A46584600F093FD00BFBB44DA
:10394000A0683844A060DAF800003844CAF80000E3
:10395000ED1B002D7FF452AF002039E72DE9F04137
:103960000446204602F0ACFA0746002F4CD1A0795D
:1039700000F02000002847D0A07900F0400078B186
:1039800021684878012304F12801A269FFF73CFD72
:1039900010B10120BDE8F081A07920F04000A071B5
:1039A000E169206800F074FD0746002F2CD1256ADC
:1039B000E87A40F02000E872207B2877A089010A8D
:1039C0006977E068010CA977E068010EE97728467D
:1039D000216902F031F800F0C8FC0646AE75310AE4
:1039E000E975310C2976310E69760020A874002122
:1039F000E974A07920F02000A071012021680871ED
:103A0000206802F031F807463846C3E72DE9FF4F3A
:103A100083B0044615469B46049801900020CBF8DD
:103A20000000204602F04CFA0290029818B1029869
:103A300007B0BDE8F08FE07908B1E079F8E7A07948
:103A400000F0020008B90720F2E7A0682844A16846
:103A5000884200D20025BEE02089C0F3080000287B
:103A60007DD120688078401EA16800EA512000F0D6
:103A7000FF0ABAF1000F26D1A06838B9276997B9B3
:103A800000212068FFF767F807460CE0606A28B15C
:103A90002046A168FEF7E8FF074604E06169206858
:103AA000FFF759F8074607B998E0012F02D1022025
:103AB000E071BDE7781C10B90120E071B8E76761DB
:103AC000206900B92761A07900F0400078B1216831
:103AD0004878012304F12801A269FFF795FC10B191
:103AE0000120E071A4E7A07920F04000A071616995
:103AF0002068FEF7D2FF064616B90220E07197E76C
:103B000056444FEA5529B9F1000F2CD00AEB0900B1
:103B100021688978884203D920688078A0EB0A0957
:103B2000216848784B4632460199FFF76DFC10B189
:103B30000120E0717CE7A069801B48450ED2A06996
:103B4000801B019A02EB40214FF4007204F128001F
:103B500000F087FCA07920F04000A07100E016E0A2
:103B60004FEA49282AE0A069B0420FD0D4E9020107
:103B700088420BD2216848780123324604F128019B
:103B8000FFF714FC10B10120E07151E7A661208914
:103B9000C0F30800C0F50078A84500D9A8462189DF
:103BA000C1F3080204F1280150184246019900F0BF
:103BB00058FCA07940F04000A07100BF019840443B
:103BC0000190A0684044A060DBF800004044CBF8BE
:103BD0000000A5EB0805002D7FF43EAF00BFD4E93F
:103BE0000201884201D9A068E060A07940F020007D
:103BF000A07100201CE700002DE9F04102460F46AD
:103C0000802A01DA10462FE01FB1184B45F22056EA
:103C100002E0174B45F220560025102416E0A6EBD3
:103C2000050C0CEBDC7805EB68014FEA410C33F82E
:103C30001CC0944500D10BE04FEA410C33F81CC086
:103C4000944501DA0D4600E00E46641E002CE6D1D4
:103C500000BF34B14FF0010C0CEB410C33F81CC029
:103C600001E04FF0000C6046BDE8F08144B401086B
:103C7000C05F000810B504462146002000F000FD9A
:103C800010BD10B504462146002000F0E7FC10BD31
:103C90000246002100E0491C094830F8110020B11B
:103CA000074830F811009042F5D1054830F811006E
:103CB00018B1044830F8110070471046FCE70000C6
:103CC000C8080308A80A03082DE9F74F8AB00021A5
:103CD0000A9801600B9800F04AFB099009980028A7
:103CE00003DA0B200DB0BDE8F08FD849099851F8E0
:103CF00020400CB90C20F5E70A980460207878B1D0
:103D00006078FFF77EFB814609F0010040B90C980E
:103D100020B109F0040008B10A20E3E70020E1E740
:103D200000202070099860706078FFF7F9FA8146EA
:103D300009F0010008B10320D4E70C9820B109F084
:103D4000040008B10A20CDE7002739462046FEF7D7
:103D500039FE0546012D01D09DBB32E000261AE058
:103D600004F5F77000EB061898F8040070B198F8A5
:103D70000B00010698F80A0041EA004198F8090092
:103D800041EA002098F80810084300E0002002A94A
:103D900041F82600761C042EE2D3002606B1761EDA
:103DA00000BF02A850F8267027B139462046FEF71A
:103DB00009FE00E0022005461DB1701C06460428DD
:103DC000EFD3032D01D101208CE70DB10D2089E740
:103DD0003B20015D94F83C0041EA0020B0F5007FF3
:103DE00001D00D207EE74620015D94F8470041EAAE
:103DF000002ABAF1000F0ED194F85700010694F88A
:103E0000560041EA004194F8550041EA002094F838
:103E1000541040EA010AC4F818A04020005DE07088
:103E2000E078012804D0E078022801D00D2059E77D
:103E3000E0780AFB00FA3D20005DA070A07818B180
:103E4000A078411E084008B10D204BE74120015DDC
:103E500094F8420041EA00202081207A00F00F000F
:103E600008B10D203EE74320015D94F8440041EA8B
:103E700000200890089870B994F85300010694F84F
:103E8000520041EA004194F8510041EA002094F8C0
:103E90005010084308903E20015D94F83F0041EA2D
:103EA00000200190019808B90D201BE701985044AB
:103EB000218900EB11100790DDE90701814201D251
:103EC0000D200FE7DDE90710401AA178B0FBF1FBE8
:103ED000BBF1000F01D10D2004E7012540F6F6707B
:103EE000834500D302254FF6F670834500D30325A2
:103EF0000BF102006061E761019838442062079885
:103F00003844A062032D16D1208908B10D20E9E6BE
:103F100094F85F00010694F85E0041EA004194F8CD
:103F20005D0041EA002094F85C100843606260691B
:103F30008000069014E0208908B90D20D2E6206A9E
:103F400050446062022D02D16069400007E0207D8C
:103F500000F00100616901EB410100EB51000690A6
:103F6000A169069800F2FF10B1EB502F01D20D208D
:103F7000B8E64FF0FF302061E06080206071032DD3
:103F80005AD194F8601094F8610041EA00200128A9
:103F900052D1791C204600F07BFAE8BB002060710A
:103FA00094F82E1294F82F0241EA00204AF6552187
:103FB000884241D13320005D01063220005D41EA94
:103FC00000413120005D41EA002094F830100843A0
:103FD0001F49884230D194F81702010694F816025E
:103FE00041EA004194F8150241EA002094F81412C5
:103FF0000843184988421FD194F81B02010694F81F
:104000001A0241EA004194F8190241EA002094F8AA
:1040100018120843206100E00EE094F81F02010628
:1040200094F81E0241EA004194F81D0241EA002082
:1040300094F81C120843E060257007480088401C73
:1040400080B205490880E08000204BE6280000206F
:10405000525261417272416130000020F0B5044655
:104060001D464D730F27CF7200270F738F76BC4606
:1040700081F81BC0571E07EB870C0CEBC706002707
:1040800038463B4600BF4FF6FF77B84203D037466D
:10409000761C34F81700DFF840C01CF803C001F8A4
:1040A0000C000712DFF830C01CF803C08C448CF8F9
:1040B000017008B94FF6FF705F1C3B460D2FE2D32D
:1040C0004FF6FF77B84202D034F816700FB942F0BD
:1040D00040020A70F0BD0000880C03082DE9F3418E
:1040E0000446019800782F2803D0019800785C28B6
:1040F00002D10198401C01900020A0600198007836
:10410000202807D200212046FFF7BBF805460020F3
:10411000606128E000BF01A92046FEF787FD054643
:1041200005B11FE02046FEF71BFF0546A069C67AD1
:104130003DB1042D04D100BF06F0040000B90525EF
:1041400010E006F0040000B10CE06769F87A00F0B6
:10415000100008B9052505E03946206800F058F937
:10416000A060D8E700BF2846BDE8FC8170B50446D2
:104170000D465520207065700021A81C2154002692
:1041800009E0A81C215CB01C205C0844C1B2A81C3A
:104190002154701CC6B2AE42F3DBAA21E81C2154A4
:1041A000291D204601F03EFE70BD00002DE9FF4FA5
:1041B00083B0074691461E460B223846049900F00C
:1041C00050F9052E19D9B04612E039F802BB002586
:1041D0000CE0584668F35F0080464FEA6B0B08F42A
:1041E000803010B1234888EA00086D1C102DF0D3F0
:1041F000B9F800000028E8D14646072500BF06F0C0
:104200000F0000F1300ABAF1390F03DD0AF107009F
:1042100000F0FF0A28466D1E01A901F800A036092A
:10422000002EECD17E20485500240BE0385D81281B
:1042300007DB385DFE2804DC681EA04200D106E0E2
:10424000641C641CAC4202D2385D2028EED100BF51
:1042500000BF082D04D228466D1C01A9095C00E0AE
:1042600020212046641C3954082CF2D307B0BDE845
:10427000F08F0000211001002DE9F04705460C46A3
:10428000022C02D36869A04202D84FF0010969E00C
:104290004FF0FF392878012804D002282ED00328B7
:1042A0005CD13FE0274607EB5707286A00EB572110
:1042B000284600F0EDF800B153E038467F1CC0F30B
:1042C000080105F1300010F80180286A00EB572141
:1042D000284600F0DDF800B143E0C7F3080105F11E
:1042E0003000405C48EA002804F0010010B14FEAB9
:1042F000181001E0C8F30B00814632E0286A00EB99
:104300001421284600F0C4F800B12AE040F2FF1062
:1043100000EA440105F130000E183078717840EA67
:1043200001291EE0286A00EBD411284600F0B0F8FD
:1043300000B116E040F2FF1000EA840105F1300000
:104340000E18F0780006B17840EA0140717840EA32
:1043500001203178084320F0704902E04FF0010954
:1043600000BF00BF4846BDE8F0870020704770B529
:1043700002464FF0FF301568E5B1116800E0491CB6
:104380000D78202D02D30D783A2DF8D10D783A2DE5
:104390000FD1146814F8015BA5F130030A2B07D282
:1043A0008C4205D1022B03D218464D1C29461560BC
:1043B00070BD002000BFFBE70948B0F81002084AB2
:1043C000B2F81222811A002908DA0548B0F8120260
:1043D000C0F10400024AB2F810228118C8B2704736
:1043E000040A00200948B0F80004084AB2F8022480
:1043F000811A002908DA0548B0F80204C0F5806087
:10440000024AB2F80024811888B270474C0C002090
:1044100010B502468C7ECB7E44EA03201378032B32
:1044200005D10C7D4B7D44EA032340EA034010BDD7
:1044300001F0B1FB00BF01F0A4FBFCE7F0B50346BF
:104440001C460D46002000BF161EA2F1010207D037
:1044500014F8017B15F801CBA7EB0C06301EF3D046
:10446000F0BD70B503460C4603E014F8015B03F899
:10447000015B151EA2F10102F7D170BD30B50346F4
:1044800001E003F8011B141EA2F10102F9D130BDB5
:1044900070B504460D460026E06AA84210D02046BA
:1044A00001F046FB06465EB9607801232A4604F116
:1044B0003001FEF77BFF10B14FF0FF350126E562BA
:1044C000304670BD2DE9F04104460E461548005DAA
:1044D00038B9144818380168204688470120BDE8DB
:1044E000F081114850F82400B04219D90F4850F813
:1044F0002400B6FBF0F10B48083850F8240030F8DF
:104500001120002508E000230648083850F8240050
:104510004F1920F817306D1C9542F4DB0020DEE7C0
:104520000220DCE768000020D40C0308CC0C030850
:1045300010B504460C4951F824104A000B4951F8B3
:104540002400002100F0B0F8094951F8242007495F
:10455000083951F82400002100F0A6F80121034891
:104560000830015510BD0000C40C03086000002095
:10457000D40C03082DE9F04704460F460025A94650
:104580002348005D20B92248183801682046884732
:104590001FB94FF0FF30BDE8F0871E4850F82400E7
:1045A000B7FBF0F61B4850F82400B7FBF0F100FB16
:1045B000117000B1761C184850F82400451E22E006
:1045C0001348083850F8240030F8150010B909F1E4
:1045D000010901E04FF00009B14513D14FF0000887
:1045E00009E00B48083850F8240005EB080220F8D1
:1045F000126008F10108B045F3D3064850F82400D2
:104600006843C8E76D1E002DDADA4FF0FF30C2E7CD
:1046100068000020CC0C0308C40C030810B5014648
:104620000023002207E00B4850F8210030F8120068
:1046300000B15B1C521C084850F821009042F2D88F
:1046400064205843044C54F82140B0FBF4F0C0B24D
:1046500010BD000060000020C40C030870B50546C2
:104660000C4604B970BD054850F82500261A31469D
:104670002846FFF727FF00BFF4E70000580000209E
:1046800070B504460E4631462046FFF773FF0546D7
:10469000681C08B9002070BD024850F82400284466
:1046A000F9E700005800002030B5034601E003F8A8
:1046B000011B141EA2F10102F9D130BD10B5002476
:1046C00009E004EB84120C4901EB42008221FBF764
:1046D00016FE601C84B2042CF3DB00200649091F7F
:1046E000A1F81002A1F81202012081F80C020020AA
:1046F00081F80D0210BD0000080A002010B5FFF778
:1047000071FE00287DDD7048B0F80204B0F5806FBE
:1047100003D300206C49A1F802046B48B0F80214DE
:10472000B0F80204401C684AA2F802041046435C38
:10473000664890F80E0228B9552B03D10120634931
:1047400081F80E02614890F80E02012859D15F48A5
:10475000B0F8100200EB80115C48001D00EB410036
:10476000B0F8800080282DDA5848B0F8100200EB2D
:1047700080115648001D00EB4100B0F880105348EE
:10478000B0F8100200EB80125048001D00EB420010
:10479000B0F88000401C82B24C48B0F8100200EB28
:1047A00080144A48001D00EB4400A0F880204748D0
:1047B000B0F8100200EB80124448001D00EB4200EC
:1047C00043540FE000214148B0F8100200EB801282
:1047D0003E48001D00EB4200A0F8801000203B493D
:1047E00081F80E023948B0F8100200EB801137480A
:1047F000001D00EB4100B0F88000032862DD334863
:1048000000E04EE0B0F8100200EB80112F48001DD0
:1048100000EB41004078001D2C49B1F8101201EB6B
:1048200081122A49091D01EB4201B1F8801088422A
:1048300048DC2648B0F8100200EB80112348001D28
:1048400000EB4101001FB0F8100200EB80121F487E
:10485000001D00EB42004078C01C085CAA2821D152
:104860001A48B0F81002032807DA1848B0F8100206
:10487000401C1649A1F8100203E000201349A1F8DA
:1048800010020020114981F80E0200210F48B0F8F3
:10489000100200EB80120D48001D00EB4200A0F852
:1048A00080100FE000210948B0F8100200EB8012E0
:1048B0000648001D00EB4200A0F8801000200349CC
:1048C00081F80E0210BD00004C0C0020040A0020EC
:1048D0000146972932D11B48B0F8120200EB801232
:1048E0001848001D00EB4200C2791648B0F81202C9
:1048F00000EB80131348001D00EB4300807902EBAE
:104900000020114AA2F87C020E48B0F8120200EB17
:1049100080120C48001D00EB4200C2790948B0F833
:10492000120200EB80130748001D00EB4300007AE1
:1049300002EB0020044AA2F87E0201E0002070474A
:104940000120FCE7040A00206C0000200146AD298C
:1049500002D0AE291CD10DE01048B0F8120200EBD5
:1049600080120E48001D00EB420080790C4A82F84C
:1049700067030FE00948B0F8120200EB8012074805
:10498000001D00EB42008079054A82F8680301E0CF
:104990000020704700BF0120FBE70000040A002050
:1049A0006C000020014668293CD12048B0F8120272
:1049B00000EB80121D48001D00EB4200C2791B482D
:1049C000B0F8120200EB80131848001D00EB430002
:1049D000807902EB0020164A90801448B0F8120249
:1049E00000EB80121148001D00EB4200027A1048D3
:1049F00082710E48B0F8120200EB80120B48001DC5
:104A000000EB4200427A0A48C2710848B0F812022C
:104A100000EB80120548001D00EB4200827A04483A
:104A2000027201E0002070470120FCE7040A002028
:104A3000F409002001462348B0F8120200EB80126E
:104A40002048001D00EB42008079012838D1B929A7
:104A500027D006DC96290BD0B22913D0B8292AD149
:104A60001AE0BE2922D0C62907D0D42923D10EE0CE
:104A70000120154A82F8FC041FE00120124A82F846
:104A8000FB041AE00120114A82F8540015E00120CD
:104A90000E4A82F8530010E001200D4A82F87E0091
:104AA0000BE001200A4A82F87F0006E00120084A54
:104AB00082F8800001E00020704700BF0120FBE782
:104AC0000020F9E7040A00202C040020D60300206F
:104AD0002E09002001460748B0F8120200EB8012B0
:104AE0000448001D00EB4200C079034A1070012009
:104AF00070470000040A00200000002010B50246A4
:104B00008948B0F8120200EB80138748001D00EBC3
:104B10004300807903068448B0F8120200EB801449
:104B20008148001D00EB4400C07903EB00437E4840
:104B3000B0F8120200EB80147B48001D00EB44002B
:104B4000007A03EB00237848B0F8120200EB8014DF
:104B50007548001D00EB4400407A1918822A75D070
:104B600011DCA2F16B0017286BD2DFE800F0BCC0AB
:104B7000D8C4D82F3235383B3E4145494C4F525569
:104B8000595D61656B008D2A70D00ADCA2F183004B
:104B90000A28E9D2DFE800F05E62666B6F73787C0A
:104BA0008087932A6FD008DCA2F18E000528DBD223
:104BB000DFE800F08185898D9100C52A70D0CE2A6A
:104BC0006FD0CF2A6ED0D02A3BD1A4E0574B597575
:104BD000A7E0564B9975A4E0544B1983A1E0534BC1
:104BE00059839EE0514B99839BE0504BD98398E0C9
:104BF0004E4880F8351094E04C4880F8361090E02C
:104C00004A4801878DE0494841878AE047488187C3
:104C100087E04648C18784E0444880F8551080E02A
:104C2000424880F856107CE04048A0F8581078E0E0
:104C30003E48A0F85A1074E03C48A0F85C1070E0C0
:104C400004E06CE03948A0F85E106AE0374880F86C
:104C5000751066E0354880F8761062E03348A0F8B9
:104C600078105EE03148A0F87A105AE01FE02F4833
:104C7000A0F87C1055E02D48A0F87E1051E02B489C
:104C800080F895104DE02AE0284880F8961048E01A
:104C90002648A0F8981044E02448A0F89A1040E074
:104CA0002DE030E033E02148A0F89C1039E01F48A7
:104CB000A0F89E1035E01D4880F8B51031E01B4883
:104CC00080F8B6102DE01948A0F8B81029E0174870
:104CD000A0F8BA1025E01548A0F8BC1021E0134850
:104CE000A0F8BE101DE0114B83F8F11419E00F4B32
:104CF00083F8F21415E00D4BA3F8F81411E00B4BF8
:104D0000A3F8F6140DE00A4BA3F8401009E0084B95
:104D100083F8421005E0064B83F8431001E00020C1
:104D200010BD00BF0120FBE7040A00202C04002076
:104D3000B00900200648B0F8120200EB80110448C8
:104D4000001D00EB41000079024908700120704706
:104D5000040A0020000000200146952902D0BB294A
:104D60001CD10DE01048B0F8120200EB80120E4882
:104D7000001D00EB420080790C4A82F8F3040FE03A
:104D80000948B0F8120200EB80120748001D00EB42
:104D900042008079054A82F8F40401E0002070475F
:104DA00000BF0120FBE70000040A00202C040020C3
:104DB000F0B50346FE48B0F8120200EB8014FC4840
:104DC000001D00EB440082791846BF2B17D00EDC83
:104DD000B7287CD006DC69287AD06A2879D0B12837
:104DE00078D174E1BC2876D0BD28F9D1F1E1C03882
:104DF00005286FD2DFE800F0275181ABD5000020F5
:104E0000EC4C207500211AE0EA48007D142813DAE2
:104E1000E748B0F8120200EB8014E548001D00EBF3
:104E20004404C81D245CE348057D007D401CE14E20
:104E300030753046445500E003E0481CC1B2914251
:104E4000E2DB00BFF1E10024DA4880F834400021C1
:104E50001FE0D84890F83400142817DAD448B0F886
:104E6000120200EB8014D248001D00EB4404C81D60
:104E7000245CD04890F8345090F83400401CC6B2FE
:104E8000CC4880F834602030445500E003E0481CF2
:104E9000C1B29142DDDB00BFC7E10024C54880F804
:104EA0005440002125E0C34890F8540014281DDA2E
:104EB000BF48B0F8120200EB8014BD48001D00EBA3
:104EC0004404C81D245CBB4890F8545004E029E118
:104ED00091E0D2E0A7E149E190F85400401CC6B24D
:104EE000B44880F854604030445500E003E0481C6A
:104EF000C1B29142D7DB00BF97E10024AD4880F8F2
:104F0000744000211FE0AB4890F87400142817DAB1
:104F1000A748B0F8120200EB8014A548001D00EB72
:104F20004404C81D245CA34890F8745090F87400A1
:104F3000401CC6B29F4880F874606030445500E061
:104F400003E0481CC1B29142DDDB00BF6DE10024EB
:104F5000984880F8944000211FE0964890F894000B
:104F6000142817DA9248B0F8120200EB8014904827
:104F7000001D00EB4404C81D245C8E4890F894503A
:104F800090F89400401CC6B28A4880F89460803043
:104F9000445500E003E0481CC1B29142DDDB00BF94
:104FA00043E10024834880F8B44000211FE0814899
:104FB00090F8B400142817DA7D48B0F8120200EB1C
:104FC00080147B48001D00EB4404C81D245C794814
:104FD00090F8B45090F8B400401CC6B2754880F800
:104FE000B460A030445500E003E0481CC1B29142D7
:104FF000DDDB00BF19E100246E4890F8DB5400F5BA
:1050000095604455002134E06A4890F8DB4400F58F
:105010009560005D142829DA6548B0F8120200EBAB
:1050200080146348001D00EB4404C81D245C6148E3
:1050300090F8DB5400F59560455D5E4890F8DB64C0
:1050400000F59560805D401CC6B25A4890F8DB744C
:1050500000F59560C655574890F8DB0400EB8006D4
:105060005448C03000EB8600445500E003E0481C83
:10507000C1B29142C8DB00BFD7E000204D4C84F89C
:10508000F00400211FE04B4890F8F004142817DAD0
:105090004748B0F8120200EB80144548001D00EBB1
:1050A0004404C81D245C434890F8F05490F8F00480
:1050B000401C404E86F8F00406F2DC40445500E007
:1050C00003E0481CC1B29142DDDB00BFADE000202F
:1050D000394C84F85200002120E0374890F8520003
:1050E000142818DA3248B0F8120200EB8014304865
:1050F000001D00EB4404C81D245C2F4890F852505A
:1051000090F85200401C2C4E86F8520006F12A00FE
:1051100020F8154000E003E0481CC1B29142DCDBFE
:1051200000BF82E00020254C207500211AE02348B2
:10513000007D142813DA1E48B0F8120200EB801428
:105140001B48001D00EB4404C81D245C1B48057D62
:10515000007D401C194E30753046445500E003E098
:10516000481CC1B29142E2DB00BF5EE00020134C5C
:1051700084F82900002128E0104890F8290014281C
:1051800020DA0B48B0F8120200EB80140848001D2A
:1051900000EB4404C81D245C084890F8295090F89E
:1051A0002900401C054E86F8290006F1150007E08D
:1051B000040A00202C040020D60300202E09002021
:1051C000445500E003E0481CC1B29142D4DB00BF6B
:1051D0002BE00020164C84F83E0000211FE014480C
:1051E00090F83E00142817DA1248B0F8120200EBCB
:1051F00080141048001D00EB4404C81D245C0C48BA
:1052000090F83E5090F83E00401C094E86F83E0053
:1052100006F12A00445500E003E0481CC1B2914267
:10522000DDDB00BF01E00020F0BD00BF0120FBE797
:105230002E090020040A00200146672924D11448C1
:10524000B0F8120200EB80121148001D00EB420082
:105250008079104A10700E48B0F8120200EB8012EC
:105260000B48001D00EB4200C0790A4A5070084804
:10527000B0F8120200EB80120548001D00EB42005E
:10528000007A044A907001E0002070470120FCE79A
:10529000040A0020F40900202DE9F04705460E46D7
:1052A0001746022E02D36869B04202D84FF00208B6
:1052B00090E02878012804D0022844D003287DD12A
:1052C00059E0B14609EB5909286A00EB59212846F3
:1052D000FFF7DEF88046B8F1000F00D079E04846CD
:1052E00009F10109C0F3080105F130000C1806F0BE
:1052F000010020B1F9B2207861F31F1000E03846B8
:10530000207001202871286A00EB59212846FFF7F8
:10531000BFF88046B8F1000F00D05AE0C9F3080189
:1053200005F130000C1806F0010010B1C7F30710AA
:1053300005E0207800F0F000C7F303210843207057
:105340000120287145E0286A00EB16212846FFF766
:105350009FF88046B8F1000F00D03AE040F2FF100D
:1053600000EA460105F130000C182770380A607019
:10537000012028712DE0286A00EBD6112846FFF79E
:1053800087F88046B8F1000F00D022E040F2FF100D
:1053900000EA860105F130000C18E0780006A178DB
:1053A00040EA0140617840EA01202178084300F09A
:1053B000704007432770380A607000E006E0380C40
:1053C000A070380EE0700120287102E04FF0020852
:1053D00000BF00BF4046BDE8F0872DE9F04104461C
:1053E0000E46022E02D36069B04201D8022727E0A0
:1053F000002721E031462046FEF73EFF054605B96D
:105400001DE0012D01D1022719E0681C08B9012710
:1054100015E0002231462046FFF73EFF074607B160
:105420000DE02069401C30B12069401C206160798A
:1054300040F0010060712E466069B042DAD800BFCA
:105440003846BDE8F08170471FB50BA103C9CDE90F
:1054500002010BA103C9CDE900010B48007820B976
:10546000062102A800F0DEFC05E000F025FA052187
:10547000684600F0D7FC1FBD726561644F4B0000A9
:105480006572726F72000000180C002010B5ADF547
:105490008E6D142217A10DF25C40FAF7FEFE40F269
:1054A0005C416846FAF74DFFAA208DF80000012004
:1054B0008DF8400012208DF84100002408E00DF224
:1054C0005C40015D04F141000DF80010601CC4B2A5
:1054D000122CF4DB0C4B40F25B4269460B4800682F
:1054E000FEF794FA09480068FEF762F80DF58E6D34
:1054F00010BD00006D6F646C652070776D20666173
:105500006E20746578740000480000203C00002084
:1055100070B5E2B014227FA122A8FAF7BEFE82A1E4
:1055200003C9CDE9200146F2A8165022804901A8FE
:10553000FAF7B3FE04208DF87C008DF87D008DF81D
:105540007E008DF87F0032208DF878008DF879008C
:105550008DF87A008DF87B000A208DF874008DF8A4
:1055600075008DF876008DF8770044F62060ADF870
:105570006C00ADF86E00ADF87000ADF87200401030
:10558000ADF86400ADF86600ADF86800ADF86A00EB
:105590004FF4FA60ADF85C00ADF85E00ADF8600065
:1055A000ADF862004010ADF85400ADF85600ADF80B
:1055B0005800ADF85A00EC2127A8FAF7C2FE1220D5
:1055C0008DF89C00002405E022A8015D601C27AA3C
:1055D0001154C4B2122CF7DB07208DF8B10000245F
:1055E00007E020A8015D04F1160027AA1154601CF1
:1055F000C4B2072CF5DB04208DF8C6008DF8C70077
:1056000005208DF8C90030128DF8CA00F0B28DF86F
:10561000CB0001208DF8CC008DF8CD00002464E093
:105620001FA8015DC4EB4410323027AA11541EA8F4
:10563000015DC4EB4410473011541DA8015DC4EB5B
:105640004410483011541BA830F814000112C4EB68
:105650004410493011541BA810F81410C4EB441026
:105660004A30115419A830F814000112C4EB441048
:105670004B30115419A810F81410C4EB44104C30DE
:10568000115417A830F814000112C4EB44104D3027
:10569000115417A810F81410C4EB44104E301154D4
:1056A00015A830F814000112C4EB44104F30115407
:1056B00015A810F81410C4EB4410503011540025F4
:1056C0000DE004EB840001A901EB8000415DC4EB17
:1056D00044103330284427AA1154681CC5B21FA8AF
:1056E000005DA842EDDC601CC4B2042C98DB0622ED
:1056F00010A113480068FDF799FF124BEC2227A96F
:105700000F480068FEF782F90D480068FDF750FF6A
:1057100062B070BD6D6F646C652070776D206661DE
:105720006E2074657874000070776D2066616E007D
:10573000705F0008303A2F302E747874000000003B
:105740003C0000204800002010B5FFF79FFEFFF747
:10575000DFFE10BD70B5ADF58C6D01224BA14F4839
:105760000068FDF763FF01204D49086040F25C418D
:1057700001A8FAF7E6FD0DE0494B40F25B4201A9B2
:1057800046480068FEF712F8064616B1444800681D
:1057900000B900E0F0E700BF9DF80500414981F83D
:1057A0005200002408E0A01C01A9095C3D482A30F1
:1057B00020F81410601C84B23A4890F85200A042BD
:1057C000F1DC9DF81A00384981F87D00002408E0DA
:1057D00004F1170001A9095C334869300155601CC8
:1057E00084B2314890F87D00A042F1DC9DF82F0092
:1057F0002D4981F85300002408E004F12C0001A990
:10580000095C29483F300155601C84B2264890F855
:105810005300A042F1DC9DF84400244981F8DA04E9
:1058200000242AE0C4EBC40000EB4000413001A991
:10583000095C1F480155005D18B101211D48015543
:1058400002E000211B480155002510E0C4EBC40014
:1058500000EB40004230284401A9095C04EB8402BB
:105860001248C03000EB82004155681C85B21048D8
:10587000005DA842EADC601C84B2322CD2DB07480F
:105880000068FDF795FE0DF58C6D70BD303A2F69FF
:105890006E6465782E747874000000003C0000206F
:1058A00044000020D60300202E0900202C040020F4
:1058B000D40800201A0C002010B5FBF7B9FD1349DD
:1058C00008700846007800BBFDF730FE1049012241
:1058D000086810A1FDF77CFE04460C480078A0B9CA
:1058E00006220DA110480068FDF7A0FE04462CB961
:1058F000FFF72AFF00200549087006E0082C04D1B4
:10590000FFF728FF00200149087010BD180C002087
:1059100034000020303A0000303A2F696E64657818
:105920002E747874000000003C000020F0B541485F
:10593000B0F8120200EB80113E48001D00EB410060
:1059400047783C48B0F8120200EB80113948001D3E
:1059500000EB410084783748B0F8120200EB801168
:105960003448001D00EB410001793248B0F81202C2
:1059700000EB80122F48001D00EB4200C07801EBC5
:10598000002086B22B48B0F8120200EB80112948A3
:10599000001D00EB41004579EB2C12D1202D04D0E5
:1059A000252D0AD0FF2D09D103E03046FFF742F83C
:1059B00006E03046FFF78EF802E001E00020F0BD7F
:1059C00036E0E92C02D1FFF7B5F931E0E02C2FD118
:1059D000212D16D006DC102D1BD0132D1DD0142D1B
:1059E00023D11EE0222D04D0232D06D0252D1CD13D
:1059F0000BE03046FFF782F819E03046FFF7D8F9A0
:105A000015E03046FEF7A2FF11E03046FFF7A4F99B
:105A10000DE03046FEF75CFF09E03046FFF70CFC76
:105A200005E03046FEF7BEFF01E00020C7E700BFFB
:105A30000120C4E7040A002081760B0AC3760A0C11
:105A400002750B0E4375704730B5014600200B22DE
:105A500000BF431003EBC01411F8015B6319D8B207
:105A6000531E1A1EF5D130BD70B50446204600F015
:105A70005FF80546002D59D1207803284FD1607971
:105A800001284CD14202002104F13000FEF7F6FC5F
:105A9000552184F82E12AA2184F82F12522084F85E
:105AA0003000522131200155612132200155412120
:105AB00033200155722184F8141284F81512412103
:105AC00084F81612612184F81712217C84F81812C8
:105AD000208A010A84F819122069010C84F81A122C
