:020000040800F2
:10000000001200208901000865040008F7030008B9
:1000100061040008D30200087F0900080000000006
:10002000000000000000000000000000E5050008DE
:10003000D702000800000000ED0400081D070008BA
:10004000A3010008A3010008A3010008A301000800
:10005000A3010008A3010008A3010008A3010008F0
:10006000A3010008A3010008A3010008A3010008E0
:10007000A3010008A3010008A3010008A3010008D0
:10008000A3010008A3010008A3010008A3010008C0
:10009000A3010008A3010008A3010008A3010008B0
:1000A000A3010008A3010008A3010008A3010008A0
:1000B000A3010008A3010008A3010008A301000890
:1000C000A3010008A3010008A3010008A301000880
:1000D000A301000881070008A3010008A30100088C
:1000E000A3010008A3010008A301000800F002F822
:1000F00000F03AF80AA090E8000C82448344AAF188
:100100000107DA4501D100F02FF8AFF2090EBAE885
:100110000F0013F0010F18BFFB1A43F0010318473B
:100120003414000054140000103A24BF78C878C179
:10013000FAD8520724BF30C830C144BF04680C60ED
:10014000704700000023002400250026103A28BF35
:1001500078C1FBD8520728BF30C148BF0B60704739
:100160001FB51FBD10B510BD00F07AF81146FFF79E
:10017000F7FF00F063FC00F098F803B4FFF7F2FF1C
:1001800003BC00F09FF80000094880470948004779
:10019000FEE7FEE7FEE7FEE7FEE7FEE7FEE7FEE737
:1001A000FEE7FEE704480549054A064B7047000094
:1001B00021070008ED000008000C002000120020BC
:1001C000000E0020000E00204FF000020429C0F0B5
:1001D000128010F0030C00F01B80CCF1040CBCF179
:1001E000020F18BF00F8012BA8BF20F8022BA1EBCB
:1001F0000C0100F00DB85FEAC17C24BF00F8012BB0
:1002000000F8012B48BF00F8012B70474FF00002A7
:1002100000B5134694469646203922BFA0E80C50FC
:10022000A0E80C50B1F12001BFF4F7AF090728BFD7
:10023000A0E80C5048BF0CC05DF804EB890028BF53
:1002400040F8042B08BF704748BF20F8022B11F07C
:10025000804F18BF00F8012B7047704770477047F8
:10026000754600F02BF8AE4605006946534620F06F
:100270000700854618B020B5FFF794FFBDE8204081
:100280004FF000064FF000074FF000084FF0000B52
:1002900021F00701AC46ACE8C009ACE8C009ACE805
:1002A000C009ACE8C0098D46704710B50446AFF3ED
:1002B00000802046BDE81040FFF75FBF0048704750
:1002C0009C0B002001491820ABBEFEE7260002006F
:1002D000704700BFFEE770472DE9F0410246002558
:1002E0000026002000230024002791F803C00CF012
:1002F0000F0591F803C00CF0100CBCF1000F03D0F7
:1003000091F802C04CEA050591F800C0BCF1000F5D
:1003100031D0146800202BE04FF0010C0CFA00F3F0
:10032000B1F800C00CEA03069E4220D183004FF0D2
:100330000F0C0CFA03F7BC4305FA03FC4CEA040467
:1003400091F803C0BCF1280F06D14FF0010C0CFA54
:1003500000FCC2F814C00AE091F803C0BCF1480FD9
:1003600005D14FF0010C0CFA00FCC2F810C0401C83
:100370000828D1D31460B1F800C0BCF1FF0F34DD00
:10038000546800202EE000F1080C4FF0010808FA34
:100390000CF3B1F800C00CEA03069E4221D18300A1
:1003A0004FF00F0C0CFA03F7BC4305FA03FC4CEAC0
:1003B000040491F803C0BCF1280F05D100F1080C2A
:1003C00008FA0CF8C2F8148091F803C0BCF1480F89
:1003D00007D100F1080C4FF0010808FA0CF8C2F838
:1003E0001080401C0828CED35460BDE8F0814161E4
:1003F00070470161704700BFFEE7000008B50121AA
:10040000402000F075F82020ADF8000010208DF895
:10041000030003208DF8020069460F48FFF75CFFD8
:1004200020210E48FFF7E5FF4020ADF800006946A7
:100430000948FFF751FF40210748FFF7DAFF102076
:10044000ADF8000069460448FFF746FF1021024856
:10045000FFF7CDFF08BD000000180140000C01406F
:1004600000BFFEE77047000070B5002100230F2297
:10047000C47804B3154C246804F4E064C4F5E06463
:10048000210AC1F10403CA40447804FA03F18478D4
:100490001440214309010E4C0678A155047804F05C
:1004A0001F050124AC4005786D11AD0005F1E02574
:1004B000C5F8004109E0047804F01F050124AC40B0
:1004C000044D0678761145F8264070BD0CED00E02D
:1004D00000E400E080E100E002490143024A1160CB
:1004E000704700000000FA050CED00E070470000C6
:1004F00029B1064A92690243044B9A6104E0034A17
:1005000092698243014B9A617047000000100240DB
:1005100030B500210022002400232D4D6D6805F028
:100520000C0121B1042905D0082923D105E0294D6A
:10053000056022E0274D05601FE0254D6D6805F43C
:100540007012234D6D6805F48034022505EB92424C
:100550001CB9214D554305600BE01D4D6D6805F438
:1005600000351DB11C4D5543056002E0194D554342
:10057000056002E0174D056000BF00BF144D6D68B7
:1005800005F0F0010909154D6B5C0568DD4045601B
:100590000F4D6D6805F4E061090A104D6B5C45680C
:1005A000DD4085600A4D6D6805F46051C90A0B4D48
:1005B0006B5C4568DD40C560054D6D6805F44041E4
:1005C000890B074D6B5CC568B5FBF3F5056130BD64
:1005D0000010024000127A0000093D000B000020CC
:1005E0001B0000207047000000B500F04DFA00F03D
:1005F000F9F900281BDD00F0D1FE012807D10C48D5
:10060000B0F81202401C0A49A1F8120206E008489C
:10061000B0F81202401C0649A1F812020448B0F8D2
:100620001202042803DB00200149A1F8120200BDD8
:100630008405002010B500F001F810BD0CB50020B5
:10064000019000903348006840F4803031490860E0
:1006500000BF3048006800F4003000900198401C52
:100660000190009818B90198B0F5A06FF1D1294810
:10067000006800F4003010B10120009001E000207B
:1006800000900098012843D12348006840F01000F2
:10069000214908600846006820F003000860084609
:1006A000006840F0020008601A4840681949486034
:1006B0000846406848600846406840F480604860EA
:1006C0000846406820F47C1048600846406840F4C2
:1006D000E81048600846006840F08070086000BF7D
:1006E0000C48006800F000700028F9D00948406804
:1006F00020F00300074948600846406840F00200C7
:10070000486000BF0348406800F00C000828F9D199
:100710000CBD0000001002400020024070470000A5
:1007200010B51348006840F0010011490860084600
:100730004068104908400E494860084600680E4964
:1007400008400B4908600846006820F480200860D3
:100750000846406820F4FE0048604FF41F0088609F
:10076000FFF768FF4FF000600449086010BD00000B
:10077000001002400000FFF8FFFFF6FE08ED00E069
:1007800010B540F22551154800F038F820B3134851
:1007900000F0F0F8C4B21248B0F80004B0F5806F71
:1007A0000BDA0F48B0F80014B0F80004401C0C4AF3
:1007B000A2F80004104644540EE000200849A1F8B5
:1007C00000040846B0F80014B0F80004401C044AC5
:1007D000A2F800041046445410BD00000038014047
:1007E0009807002021B1828942F40052828104E0FE
:1007F00082894DF6FF731A408281704770B50246B8
:10080000002400230025002040F66A16B14200D1E2
:1008100000BFC1F3421501F01F03012606FA03F3DE
:10082000012D02D19689334006E0022D02D1168AAD
:10083000334001E0968A33400C12012606FA04F494
:100840001688344013B10CB1012000E0002070BDC7
:10085000F0B50346002400260025002040F66A1764
:10086000B94200D100BF1846C1F3421401F01F067F
:10087000012707FA06F5012C01D10C3004E0022C07
:1008800001D1103000E014301AB107682F4307601F
:1008900002E00768AF430760F0BD00002DE9F047B4
:1008A00086B005460E460024A24600BFA14600279A
:1008B000B08900B100BF2F462C8A4CF6FF7004406F
:1008C000F08804432C82AC894EF6F3100440B088C3
:1008D00031890843718908430443AC81AC8A4FF6DF
:1008E000FF400440B0890443AC8201A8FFF710FE2A
:1008F0001F48874202D1DDF810A001E0DDF80CA00E
:10090000A88900F4004040B10AEBCA0000EB0A10CD
:1009100031684900B0FBF1F807E00AEBCA0000EBD0
:100920000A1031688900B0FBF1F86420B8FBF0F0E0
:1009300004012009642101FB1089A88900F400400A
:1009400040B1322000EBC900B0FBF1F000F007002D
:10095000044308E0322000EB09106421B0FBF1F001
:1009600000F00F0004432C8106B0BDE8F0870000C2
:100970000038014001468888C0F30800704700BF76
:10098000FEE7000010B500200F49086000F05CF899
:1009900040F266310D48FFF717FC54210C48FFF771
:1009A00013FCF2210B48FFF70FFC69210A48FFF7FF
:1009B0000BFC4C210948FFF729FC09480021016084
:1009C0008180817110BD0000000000202000002007
:1009D00086030020DA030020CC0400203805002024
:1009E000040000200948B0F81002084AB2F81222A8
:1009F000811A002908DA0548B0F81202C0F1040093
:100A0000024AB2F810228118C8B27047840500204B
:100A10000948B0F80004084AB2F80224811A0029F3
:100A200008DA0548B0F80204C0F58060024AB2F85E
:100A30000024811888B270479807002000F01EFD3E
:100A400000BF00F00BFDFCE710B5002409E004EB4B
:100A500084120C4901EB42008221FFF7B5FB601CB8
:100A600084B2042CF3DB00200649091FA1F8100210
:100A7000A1F81202012081F80C02002081F80D0279
:100A800010BD00008805002010B5FFF7C1FF002849
:100A90007DDD7048B0F80204B0F5806F03DB002004
:100AA0006C49A1F802046B48B0F80214B0F80204D3
:100AB000401C684AA2F802041046435C664890F85D
:100AC0000E0228B9552B03D10120634981F80E028B
:100AD000614890F80E02012859D15F48B0F8100221
:100AE00000EB80115C48001D00EB4100B0F8800075
:100AF00080282DDA5848B0F8100200EB80115648D3
:100B0000001D00EB4100B0F880105348B0F810020F
:100B100000EB80125048001D00EB4200B0F880004E
:100B2000401C82B24C48B0F8100200EB80144A48D6
:100B3000001D00EB4400A0F880204748B0F81002E8
:100B400000EB80124448001D00EB420043540FE0CC
:100B500000214148B0F8100200EB80123E48001D11
:100B600000EB4200A0F8801000203B4981F80E0203
:100B70003948B0F8100200EB80113748001D00EB37
:100B80004100B0F88000032862DD334800E04EE009
:100B9000B0F8100200EB80112F48001D00EB41005F
:100BA0004078001D2C49B1F8101201EB81122A493E
:100BB000091D01EB4201B1F88010884248DC26484B
:100BC000B0F8100200EB80112348001D00EB41013A
:100BD000001FB0F8100200EB80121F48001D00EB50
:100BE00042004078C01C085CAA2821D11A48B0F8FD
:100BF0001002032807DA1848B0F81002401C164902
:100C0000A1F8100203E000201349A1F8100200200F
:100C1000114981F80E0200210F48B0F8100200EBD4
:100C200080120D48001D00EB4200A0F880100FE07C
:100C300000210948B0F8100200EB80120648001DA0
:100C400000EB4200A0F880100020034981F80E025A
:100C500010BD0000980700208405002010B5024652
:100C60008848B0F8120200EB80138648001D00EBA4
:100C70004300807903068348B0F8120200EB801429
:100C80008048001D00EB4400C07903EB00437D4821
:100C9000B0F8120200EB80147A48001D00EB44000B
:100CA000007A03EB00237748B0F8120200EB8014BF
:100CB0007448001D00EB4400407A1918822A75D050
:100CC00011DCA2F16B0017286BD2DFE800F0BCC08A
:100CD000D6C4D62F3235383B3E4145494C4F52554C
:100CE000595D61656B008D2A70D00ADCA2F183002A
:100CF0000A28E9D2DFE800F05E62666B6F73787CE9
:100D00008087932A6FD008DCA2F18E000528DBD201
:100D1000DFE800F08185898D9100C52A70D0CE2A48
:100D20006FD0CF2A6ED0D02A3BD1A2E0564B597556
:100D3000A5E0554B9975A2E0534B19839FE0524BA8
:100D400059839CE0504B998399E04F4BD98396E0AF
:100D50004D4880F8351092E04B4880F836108EE010
:100D6000494801878BE04848418788E046488187A9
:100D700085E04548C18782E0434880F855107EE011
:100D8000414880F856107AE03F48A0F8581076E0C5
:100D90003D48A0F85A1072E03B48A0F85C106EE0A5
:100DA00004E06AE03848A0F85E1068E0364880F851
:100DB000751064E0344880F8761060E03248A0F89E
:100DC00078105CE03048A0F87A1058E01FE02E4818
:100DD000A0F87C1053E02C48A0F87E104FE02A4881
:100DE00080F895104BE02AE0274880F8961046E0FE
:100DF0002548A0F8981042E02348A0F89A103EE059
:100E00002DE030E032E02048A0F89C1037E01E488A
:100E1000A0F89E1033E01C4880F8B5102FE01A4867
:100E200080F8B6102BE01848A0F8B81027E0164854
:100E3000A0F8BA1023E01448A0F8BC101FE0124834
:100E4000A0F8BE101BE0104B83F8EA1017E00E4B21
:100E500083F8EB1013E00C4BA3F8EE100FE00A4BF5
:100E600083F8F0100BE00948016408E0074841648A
:100E700005E0064B83F8481001E0002010BD00BFDC
:100E80000120FBE784050020DA030020380500205C
:100E900070B50346F848B0F8120200EB8014F6482B
:100EA000001D00EB4400827918469F2B7ED010DC99
:100EB0009B287CD006DC69287AD06A2879D09A28C9
:100EC00078D160E19C2876D09D2875D09E28F7D1F6
:100ED00003E2BF3806286DD2DFE800F00327518314
:100EE000ADD70020E54C207500211AE0E348007DD5
:100EF000142813DAE048B0F8120200EB8014DE4840
:100F0000001D00EB4404C81D245CDC48057D007D09
:100F1000401CDA4E30753046445500E003E0481C72
:100F2000C1B29142E2DB00BF2FE20024D34880F837
:100F3000344000211FE0D14890F83400142817DA1B
:100F4000CD48B0F8120200EB8014CB48001D00EB36
:100F50004404C81D245CC94890F8345090F834000B
:100F6000401CC6B2C54880F834602030445500E0CB
:100F700003E0481CC1B29142DDDB00BF05E2002462
:100F8000BE4880F85440002127E0BC4890F8540047
:100F900014281FDAB848B0F8120200EB8014B648E3
:100FA000001D00EB4404C81D245C06E0C0E10EE116
:100FB00095E0BEE0E7E134E164E1B04890F85450D8
:100FC00090F85400401CC6B2AC4880F854604030E1
:100FD000445500E003E0481CC1B29142D5DB00BF9C
:100FE000D3E10024A54880F8744000211FE0A34805
:100FF00090F87400142817DA9F48B0F8120200EB3A
:1010000080149D48001D00EB4404C81D245C9B48CF
:1010100090F8745090F87400401CC6B2974880F85D
:1010200074606030445500E003E0481CC1B2914256
:10103000DDDB00BFA9E10024904880F89440002146
:101040001FE08E4890F89400142817DA8A48B0F808
:10105000120200EB80148848001D00EB4404C81DF8
:10106000245C864890F8945090F89400401CC6B2D6
:10107000824880F894608030445500E003E0481CCA
:10108000C1B29142DDDB00BF7FE100247B4880F8E4
:10109000B44000211FE0794890F8B400142817DA12
:1010A0007548B0F8120200EB80147348001D00EB85
:1010B0004404C81D245C714890F8B45090F8B40002
:1010C000401CC6B26D4880F8B460A030445500E0C2
:1010D00003E0481CC1B29142DDDB00BF55E10020B6
:1010E000664C84F8D40000211FE0644890F8D400D6
:1010F000142817DA6048B0F8120200EB80145E483A
:10110000001D00EB4404C81D245C5C4890F8D450DA
:1011100090F8D400401C594E86F8D40006F1C00067
:10112000445500E003E0481CC1B29142DDDB00BF42
:101130002BE10020514C84F8E90000211FE04F48CA
:1011400090F8E900142817DA4B48B0F8120200EBC7
:1011500080144948001D00EB4404C81D245C474826
:1011600090F8E95090F8E900401C444E86F8E900F8
:1011700006F1D500445500E003E0481CC1B291429D
:10118000DDDB00BF01E100203D4C207500211AE0AD
:101190003B48007D142813DA3748B0F8120200EB00
:1011A00080143548001D00EB4404C81D245C3448FD
:1011B000057D007D401C324E30753046445500E0C0
:1011C00003E0481CC1B29142E2DB00BFDDE0002435
:1011D0002B4880F87E4000211FE0294890F87E00CF
:1011E000142817DA2448B0F8120200EB80142248C1
:1011F000001D00EB4404C81D245C214890F87E507B
:1012000090F87E00401CC6B21D4880F87E606A30AF
:10121000445500E003E0481CC1B29142DDDB00BF51
:10122000B3E00024164880F8E84000211FE014488D
:1012300090F8E800142817DA0F48B0F8120200EB13
:1012400080140D48001D00EB4404C81D245C0C48AC
:1012500090F8E85090F8E800401CC6B2084880F8C2
:10126000E860D430445500E003E0481CC1B291422C
:10127000DDDB00BF89E0000084050020DA030020E8
:10128000200000200024424880F85241002120E044
:101290003F4890F85201142818DA3E48B0F812027C
:1012A00000EB80143B48001D00EB4404C81D245C87
:1012B000374890F8525190F85201401CC6B2344859
:1012C00080F8526100F59F70445500E003E0481C2F
:1012D000C1B29142DCDB00BF57E000242C4880F80B
:1012E000BC41002120E02A4890F8BC01142818DAFB
:1012F0002848B0F8120200EB80142648001D00EBCD
:101300004404C81D245C224890F8BC5190F8BC01EC
:10131000401CC6B21E4880F8BC6100F5D47044552C
:1013200000E003E0481CC1B29142DCDB00BF2CE0CE
:101330000024174880F82642002120E0144890F845
:101340002602142818DA1348B0F8120200EB8014B1
:101350001048001D00EB4404C81D245C0C4890F8A4
:10136000265290F82602401CC6B2094880F8266230
:1013700000F21220445500E003E0481CC1B2914243
:10138000DCDB00BF01E0002070BD00BF0120FBE7F7
:10139000200000208405002070470000F0B52E4892
:1013A000B0F8120200EB80112B48001D00EB410049
:1013B00047782948B0F8120200EB80112648001D3A
:1013C00000EB41008478E92C43D0E02C41D1224845
:1013D000B0F8120200EB80111F48001D00EB410025
:1013E00001791D48B0F8120200EB80121A48001D66
:1013F00000EB4200C07801EB002085B21648B0F83F
:10140000120200EB80111448001D00EB41004679E8
:10141000212E16D006DC102E15D0132E14D0142E2B
:1014200014D112E0222E04D0232E06D0252E0DD169
:1014300008E02846FFF712FC0AE02846FFF728FDDF
:1014400006E005E004E003E002E001E00020F0BD7A
:1014500000BF0120FBE700008405002010B5FFF766
:10146000C3F805480078044800780348007802482B
:1014700000780148007810BD0000002010B5FFF78B
:1014800081FA00F009F8FEF7B9FFFFF785FF4FF486
:10149000A060FFF721F810BD00B587B0012144F22C
:1014A0000400FFF725F84FF40070ADF81800032092
:1014B0008DF81A0018208DF81B0006A92248FEF7A7
:1014C0000BFF4FF48060ADF8180004208DF81B006E
:1014D00006A91D48FEF700FF25208DF80400032013
:1014E0008DF805008DF8060001208DF8070001A891
:1014F000FEF7BAFF4FF4E13002900020ADF80C0087
:10150000ADF80E00ADF81000ADF814000C20ADF8E9
:10151000120002A90D48FFF7C1F9012240F225513E
:101520000A48FFF795F901210848FFF75BF940F2F7
:1015300004410748FEF748FE00200549A1F80004D1
:10154000A1F8020407B000BD0008014000380140C6
:1015500098070020741500080000002020000000FB
:10156000280100089415000820000020E011000068
:10157000440100080000000000000000000000001E
:101580000000000102030401020304060708090227
:041590000406080045
:04000005080000ED02
:00000001FF
